:020000040800F2
:10000000000002202D1900087D1900087D19000844
:100010007D1900087D1900087D1900080000000006
:100020000000000000000000000000007D19000832
:100030007D190008000000007D1900087D190008E6
:100040007D1900087D1900087D1900087D19000838
:100050007D1900087D1900087D1900087D19000828
:100060007D1900087D1900087D1900087D19000818
:100070007D1900087D1900087D1900087D19000808
:100080007D1900087D1900087D1900087D190008F8
:100090007D1900087D1900087D1900087D190008E8
:1000A0007D1900087D1900087D1900087D190008D8
:1000B0007D1900087D1900087D1900087D190008C8
:1000C0007D1900087D1900087D1900087D190008B8
:1000D0007D1900087D1900087D1900087D190008A8
:1000E0007D1900087D1900087D1900087D19000898
:1000F0007D1900087D1900087D1900087D19000888
:100100007D1900087D1900087D1900087D19000877
:100110007D1900087D1900087D1900087D19000867
:100120007D1900087D1900087D1900087D19000857
:100130007D1900087D1900087D1900087D19000847
:100140007D1900087D1900087D1900087D19000837
:100150007D1900087D1900087D1900087D19000827
:100160007D1900087D1900087D1900087D19000817
:100170007D1900087D1900087D1900087D19000807
:080180007D1900087D1900083B
:1001880010B5054C237833B9044B13B10448AFF3C9
:1001980000800123237010BD6004002000000000CF
:1001A800441D000808B5064B1BB106480649AFF3C5
:1001B80000800648036813B1054B03B1984708BD92
:1001C80000000000441D0008640400205C040020B6
:1001D80000000000154B002B08BF134B9D46A3F5EC
:1001E800803A00218B460F461348144A121A01F030
:1001F800FBFB0F4B002B00D098470E4B002B00D079
:1002080098470020002104000D000D48002802D066
:100218000C4801F0B5FC01F0BFFB2000290001F0FB
:1002280015FB01F0A9FB00BF00000800000000005A
:10023800000000000000000060040020840400208A
:10024800891B0008951B000870B5402082B0012169
:1002580000F0FAFF01254FF4C04300240226694646
:100268000F4800938DF804508DF805608DF806400E
:100278008DF8074000F074F92846294600F0E4FF9D
:100288006946084800958DF804408DF805608DF89A
:1002980006408DF8076000F063F902B070BD00BF3A
:1002A8000018024000000240002882B04FF05B01B5
:1002B8000ADD019100E000BF019B5A1E002B01924C
:1002C800F9DC01380028F4DC02B07047FEE700BF13
:1002D800394A3A4BD2F88810394841F47001C2F8CB
:1002E80088101968002241F0010119609A601968A4
:1002F80021F0847121F4803119605860196882B046
:1003080021F480211960DA60009201921A6842F49F
:1003180080321A601A4603E0009BB3F5A06F09D03B
:10032800136803F400330193009B01330093019B8E
:10033800002BF1D0214B1B6813F4003318BF0123A5
:100348000193019B012B05D01B4B4FF000629A6073
:1003580002B07047194B1B4A186C1B4940F080507B
:100368001864106840F4804010609A689A609A682F
:1003780042F400429A609A6842F4A0529A60596026
:100388001A6842F080721A6019460B680B4A9B0182
:10039800FBD50E4B40F205611960936823F0030307
:1003A8009360936843F002039360936803F00C032F
:1003B800082BFAD1C8E700BF00ED00E00038024082
:1003C800103000240070004019544007003C0240DF
:1003D800154B9A6802F00C02042A23D0082A09D087
:1003E800124A1149124B8968C1F30311595CCA407A
:1003F8001A617047586859685B6842024CBF0D4AD9
:100408000A4A01F03F01C3F38813B2FBF1F202FB81
:1004180003F2054B5B68C3F3014301335B00B2FB96
:10042800F3F2DEE7034ADCE7003802400024F40078
:100438000800002000127A00741D00080000002047
:100448005C040020600400208404002008B5424BAE
:1004580098423BD003F58063984241D003F580630E
:10046800984247D003F5806398424DD003F58063E6
:10047800984221D003F5806398424FD003F58063FA
:10048800984255D003F5806398425BD003F58063AA
:10049800984205D031487B21BDE80840FFF716BFD8
:1004A8004FF48070012100F093FF4FF48070002119
:1004B800BDE8084000F08CBF1020012100F088FF43
:1004C80010200021BDE8084000F082BF012001464D
:1004D80000F07EFF01200021BDE8084000F078BF51
:1004E8000220012100F074FF02200021BDE808402D
:1004F80000F06EBF0420012100F06AFF04200021F3
:10050800BDE8084000F064BF0820012100F060FF4A
:1005180008200021BDE8084000F05ABF2020012132
:1005280000F056FF20200021BDE8084000F050BF31
:100538004020012100F04CFF40200021BDE8084088
:1005480000F046BF8020012100F042FF80200021FA
:10055800BDE8084000F03CBF000002406C1C0008E9
:100568002DE9F84F504B98420546884623D003F5AD
:10057800806398421FD003F5806398421BD003F52F
:100588008063984217D003F58063984213D003F52F
:10059800806398420FD003F5806398420BD003F52F
:1005A8008063984207D003F58063984203D03F48A0
:1005B800BB21FFF78BFED8F80030002B6ED098F8DF
:1005C8000430032B65D898F80730022B5CD8002636
:1005D80034464FF001094FF0030B04E00134102CAE
:1005E80006F1020627D0D8F8007009FA04F31F4074
:1005F8009F42F3D12A6898F804300BFA06FA6FEA9A
:100608000A0A0AEA02022A602A6803FA06F1013B8A
:100618000A43012B2A6010D9EA6898F807300AEAD9
:100628000202EA60EA68B34001341343102CEB601D
:1006380006F10206D7D1BDE8F88F98F80520032AFD
:100648001BD8A96898F8063018480AEA0101A96079
:10065800A968B2400A43012BAA6004D9D721FFF741
:1006680035FE98F806306A6822EA07076F606A68FC
:10067800A3409BB213436B60CEE70C48D021FFF731
:1006880025FE98F80520DCE70848BE21FFF71EFE86
:100698009DE70648BD21FFF719FE94E70348BC21F2
:1006A800FFF714FE8BE700BF000002406C1C000837
:1006B80000234FF6FF720260037143718371C371A7
:1006C800704700BF30B5214B83B04FF48032984259
:1006D80004460D46019224D003F58063984220D049
:1006E80003F5806398421CD003F58063984218D0C4
:1006F80003F58063984214D003F58063984210D0C4
:1007080003F5806398420CD003F58063984208D0C3
:1007180003F58063984204D00D484FF48271FFF7C7
:10072800D5FD25B90A4840F20511FFF7CFFD019B19
:100738002B430193019BE361E561019BE361E3695D
:100748000193E369019303B030BD00BF000002408C
:100758006C1C000838B52E4B984204460D4624D030
:1007680003F58063984220D003F5806398421CD03B
:1007780003F58063984218D003F58063984214D03B
:1007880003F58063984210D003F5806398420CD03B
:1007980003F58063984208D003F58063984204D03B
:1007A8001C484FF49871FFF791FD6B1E012B28D957
:1007B800042D26D0082D24D0102D22D0202D20D075
:1007C800402D1ED0802D1CD0B5F5807F19D0B5F5F1
:1007D800007F16D0B5F5806F13D0B5F5006F10D037
:1007E800B5F5805F0DD0B5F5005F0AD0B5F5804F3F
:1007F80007D0B5F5004F04D0064840F23111FFF795
:1008080065FD23691D420CBF0020012038BD00BFD3
:10081800000002406C1C0008164B984210B50446B4
:1008280024D003F58063984220D003F58063984272
:100838001CD003F58063984218D003F58063984272
:1008480014D003F58063984210D003F58063984272
:100858000CD003F58063984208D003F58063984272
:1008680004D005484FF4A371FFF730FD206980B22A
:1008780010BD00BF000002406C1C000838B52E4BAC
:10088800984204460D4624D003F58063984220D050
:1008980003F5806398421CD003F58063984218D012
:1008A80003F58063984214D003F58063984210D012
:1008B80003F5806398420CD003F58063984208D012
:1008C80003F58063984204D01C4840F25711FFF7A3
:1008D800FDFC6B1E012B28D9042D26D0082D24D011
:1008E800102D22D0202D20D0402D1ED0802D1CD0A0
:1008F800B5F5807F19D0B5F5007F16D0B5F5806FB6
:1009080013D0B5F5006F10D0B5F5805F0DD0B5F5F3
:10091800005F0AD0B5F5804F07D0B5F5004F04D079
:1009280006484FF4AC71FFF7D1FC63691D420CBF58
:100938000020012038BD00BF000002406C1C0008E8
:10094800164B984210B5044624D003F580639842AC
:1009580020D003F5806398421CD003F58063984249
:1009680018D003F58063984214D003F58063984249
:1009780010D003F5806398420CD003F58063984249
:1009880008D003F58063984204D0054840F26D1101
:10099800FFF79CFC606980B210BD00BF00000240F8
:1009A8006C1C000838B5194B984204460D4624D0F3
:1009B80003F58063984220D003F5806398421CD0E9
:1009C80003F58063984218D003F58063984214D0E9
:1009D80003F58063984210D003F5806398420CD0E9
:1009E80003F58063984208D003F58063984204D0E9
:1009F800074840F27F11FFF769FC25B904484FF416
:100A0800C071FFF763FC258338BD00BF00000240BA
:100A18006C1C000838B5194B984204460D4624D082
:100A280003F58063984220D003F5806398421CD078
:100A380003F58063984218D003F58063984214D078
:100A480003F58063984210D003F5806398420CD078
:100A580003F58063984208D003F58063984204D078
:100A680007484FF4C971FFF731FC25B9044840F233
:100A78009311FFF72BFC658338BD00BF00000240CF
:100A88006C1C000830B5354B984283B004460D46BF
:100A980026D003F58063984222D003F580639842FC
:100AA8001ED003F5806398421AD003F580639842FC
:100AB80016D003F58063984212D003F580639842FC
:100AC8000ED003F5806398420AD003F580639842FC
:100AD80006D0234801924FF4D371FFF7F7FB019A30
:100AE8006B1E012B2AD9042D28D0082D26D0102DB5
:100AF80024D0202D22D0402D20D0802D1ED0B5F519
:100B0800807F1BD0B5F5007F18D0B5F5806F15D064
:100B1800B5F5006F12D0B5F5805F0FD0B5F5005F61
:100B28000CD0B5F5804F09D0B5F5004F06D00C486C
:100B3800019240F2A711FFF7C9FB019A012A07D9D0
:100B480007484FF4D471FFF7C1FB258303B030BDCC
:100B5800002AFAD1658303B030BD00BF000002400F
:100B68006C1C000838B5164B984204460D4624D034
:100B780003F58063984220D003F5806398421CD027
:100B880003F58063984218D003F58063984214D027
:100B980003F58063984210D003F5806398420CD027
:100BA80003F58063984208D003F58063984204D027
:100BB800044840F2BD11FFF789FB656138BD00BFED
:100BC800000002406C1C000838B5174B98420446D8
:100BD8000D4624D003F58063984220D003F5806346
:100BE80098421CD003F58063984218D003F58063BF
:100BF800984214D003F58063984210D003F58063BF
:100C080098420CD003F58063984208D003F58063BE
:100C1800984204D0054840F2CB11FFF757FB6369AF
:100C28005D40656138BD00BF000002406C1C0008D3
:100C3800274B984270B504460D46164624D003F556
:100C48008063984220D003F5806398421CD003F556
:100C58008063984218D003F58063984214D003F556
:100C68008063984210D003F5806398420CD003F556
:100C78008063984208D003F58063984204D01548F1
:100C880040F21721FFF722FB0F2D1AD80D2E06D997
:100C98000F2E04D00F4840F21921FFF717FBEB087D
:100CA80004EB830405F00705226AAD000F23AB406F
:100CB80022EA03032362236A06FA05F51D43256227
:100CC80070BD04484FF40671FFF700FBDEE700BF74
:100CD800000002406C1C00080A4B0B481A680021EF
:100CE80042F001021A6099601A6822F0847222F4B4
:100CF80080321A6058601A6822F480221A60D9601B
:100D0800704700BF0038024010300024012810B599
:100D1800044605D9052803D00448F021FFF7D6FA80
:100D2800034B00221A701C7010BD00BFD41C0008B1
:100D3800023802401F2810B5044604D906484FF46B
:100D48009471FFF7C3FA054B1A6822F0F80242EAD9
:100D5800C4041C6010BD00BFD41C00080038024049
:100D6800012810B5044604D9034840F24B11FFF797
:100D7800ADFA024B1C6010BDD41C000800004742AD
:100D8800012810B5044606D904280DD00B484FF4A5
:100D9800B271FFF79BFA0A4B0022012C1A701A70E5
:100DA8000AD0042C04D010BD054B00221A701A700A
:100DB800034B05221A7010BD1C7010BDD41C00080E
:100DC80070380240012810B5044604D903484FF48E
:100DD800C671FFF77BFA024B1C6010BDD41C0008DB
:100DE800800E47422DE9F0411C4630F48003064648
:100DF8000F469046069D04D01C4840F2B711FFF7F5
:100E080065FA3F2F2BD8A8F1C003F02B21D824F086
:100E18000403022B08D0042C06D0082C04D0134855
:100E28004FF4DD71FFF752FA2B1F0B2B04D90F4833
:100E380040F2BB11FFF74AFA47EA8817640847EA05
:100E48000565013C45EA0445094B2E435E60BDE853
:100E5800F081064840F2B911FFF738FAD7E703489E
:100E68004FF4DC71FFF732FACDE700BFD41C00085D
:100E780000380240012810B5044604D903484FF44D
:100E8800E771FFF723FA024B1C6010BDD41C000861
:100E98006000474238B5A0F1C003F02B04460D4668
:100EA8000ED8AB1E052B04D9084840F2E911FFF70C
:100EB8000DFA2D07064B45EA8414C3F8844038BD63
:100EC80002484FF4F471FFF701FAEAE7D41C00086E
:100ED80000380240012810B5044604D9034840F2FE
:100EE800F711FFF7F3F9024B1C6010BDD41C000882
:100EF80068004742012810B5044604D9034840F267
:100F08000921FFF7E3F9024B1C6010BDD41C00084F
:100F18004C00474238B530F4C00305460C4604D0AF
:100F28000E484FF40971FFF7D1F934F080630CD003
:100F380024F00073B3F1A06F07D0B4F1C06F04D0F0
:100F4800064840F22521FFF7C1F9054B9A6822F0BF
:100F5800EC62144325439D6038BD00BFD41C0008D3
:100F68000038024038B520F0404305460C4623B10E
:100F78000E4840F24A21FFF7A9F934F000530CD08B
:100F880024F08053B3F1205F07D0B4F1405F04D060
:100F9800064840F24B21FFF799F9054B9A6822F071
:100FA8007842144325439D6038BD00BFD41C000817
:100FB80000380240022810B5044604D905484FF409
:100FC8002D71FFF783F9044B9A6822F0030214434A
:100FD8009C6010BDD41C000800380240024B986881
:100FE80000F00C00704700BF0038024030F080036A
:100FF80010B5044612D020F02003902B0ED020F01C
:101008004003A02B0AD020F01003C02B06D0F028F4
:1010180004D0064840F2E921FFF758F9044B9A68D2
:1010280022F0F00214439C6010BD00BFD41C0008DD
:101038000038024030F4805310B504460CD020F438
:101048000063B3F5A05F07D0B0F5C05F04D00648D1
:1010580040F20931FFF73AF9044B9A6822F4E0525A
:1010680014439C6010BD00BFD41C00080038024027
:1010780030F4805310B504460CD020F40063B3F567
:10108800A05F07D0B0F5C05F04D006484FF44A719E
:10109800FFF71CF9044B9A6822F4604242EAC40440
:1010A8009C6010BDD41C0008003802401F4A936899
:1010B80003F00C03042B10B41BD0082B1CD01C4BC2
:1010C80003601A491B4A8C68C4F30314145DE34097
:1010D80043608C68C4F38224145D23FA04F48460AA
:1010E80089685DF8044BC1F34231525CD340C36058
:1010F8007047114B0360E4E7546851685268630213
:101108004CBF0D4B0A4B01F03F01C2F38812B3FBF1
:10111800F1F303FB02F3054A5268C2F301420132BC
:101128005200B3FBF2F30360CBE700BF0038024084
:101138000024F4001C00002000127A00B0F5807F23
:1011480010B5044632D0B0F5007F2FD0204B20F4E4
:10115800A0229A4220F480312FD01E4B20F4102276
:101168009A422AD01C4A20F44033934225D002F5F3
:10117800C02220F4881090421FD002F5003293421A
:101188001BD002F58022934217D002F580229342A9
:1011980013D0124B994210D0114840F2D931FFF7C1
:1011A80095F804F44073B3F5407F06D00D4B1A6FE1
:1011B800C4F30B0414431C6710BD0A4A916824F059
:1011C800704321F4F81123F440730B439360EDE767
:1011D80000030200000304000003080000031C00D1
:1011E800D41C000800380240012810B5044604D970
:1011F800034840F2F731FFF769F8024B1C6010BD55
:10120800D41C00083C0E4742012810B5044604D9F6
:1012180003484FF48161FFF759F8024B1C6010BD79
:10122800D41C0008400E4742012810B5044604D9D2
:10123800034840F21941FFF749F8024B1C6010BD02
:10124800D41C00085C01474238B5104B03400446E3
:101258000D4663B958B1012D10D90D4840F24241ED
:10126800FFF734F80B4B1A6B14431C6338BD08485E
:101278004FF48861FFF72AF8012DEED8002DF1D13F
:10128800044B1A6B22EA04041C6338BD00EE8B8100
:10129800D41C00080038024038B530F0F103044689
:1012A8000D460CD158B1012D10D90C4840F26141BE
:1012B800FFF70CF80A4B5A6B14435C6338BD0748B8
:1012C8004FF48C61FFF702F8012DEED8002DF1D113
:1012D800034B5A6B22EA04045C6338BDD41C000833
:1012E8000038024038B530F0010304460D460CD1F1
:1012F80058B1012D10D90C4840F27C41FEF7E6FFA9
:101308000A4B9A6B14439C6338BD074840F27B41F3
:10131800FEF7DCFF012DEED8002DF1D1034B9A6BBF
:1013280022EA04049C6338BDD41C0008003802403B
:1013380038B5104B034004460D4663B958B1012D2A
:1013480010D90D4840F2AE41FEF7C0FF0B4B1A6CA6
:1013580014431C6438BD084840F2AD41FEF7B6FF9F
:10136800012DEED8002DF1D1044B1A6C22EA0404A9
:101378001C6438BD003601C9D41C0008003802407E
:1013880038B5104B034004460D4663B958B1012DDA
:1013980010D90D4840F2D641FEF798FF0B4B5A6C16
:1013A80014435C6438BD084840F2D541FEF78EFF0F
:1013B800012DEED8002DF1D1044B5A6C22EA040419
:1013C8005C6438BDCCA0F8FFD41C0008003802408B
:1013D80038B5104B034004460D4663B958B1012D8A
:1013E80010D90D4840F2FD41FEF770FF0B4B1A690A
:1013F80014431C6138BD084840F2FC41FEF766FF03
:10140800012DEED8002DF1D1044B1A6922EA04040B
:101418001C6138BD00EE9FDDD41C00080038024076
:1014280038B530F0F10304460D460CD158B1012D02
:1014380010D90C4840F21A51FEF748FF0A4B5A6976
:1014480014435C6138BD074840F21951FEF73EFF6E
:10145800012DEED8002DF1D1034B5A6922EA04047C
:101468005C6138BDD41C00080038024038B530F043
:10147800010304460D460CD158B1012D10D90C4872
:1014880040F23251FEF722FF0A4B9A6914439C61DD
:1014980038BD074840F23151FEF718FF012DEED84C
:1014A800002DF1D1034B9A6922EA04049C6138BDEE
:1014B800D41C00080038024038B5104B03400446DD
:1014C8000D4663B958B1012D10D90D4840F261514C
:1014D800FEF7FCFE0B4B1A6A14431C6238BD084821
:1014E8004FF4AC61FEF7F2FE012DEED8002DF1D1DC
:1014F800044B1A6A22EA04041C6238BD003601C98A
:10150800D41C00080038024038B5104B034004468C
:101518000D4663B958B1012D10D90D4840F28551D7
:10152800FEF7D4FE0B4B5A6A14435C6238BD084878
:1015380040F28451FEF7CAFE012DEED8002DF1D1FC
:10154800044B5A6A22EA04045C6238BDCCA6F8FF50
:10155800D41C00080038024038B5104B034004463C
:101568000D4663B958B1012D10D90D4840F2B35159
:10157800FEF7ACFE0B4B1A6D14431C6538BD0848CA
:1015880040F2B251FEF7A2FE012DEED8002DF1D1A6
:10159800044B1A6D22EA04041C6538BD006E98815C
:1015A800D41C00080038024038B530F0F103044676
:1015B8000D460CD158B1012D10D90C4840F2D35129
:1015C800FEF784FE0A4B5A6D14435C6538BD074824
:1015D80040F2D251FEF77AFE012DEED8002DF1D15E
:1015E800034B5A6D22EA04045C6538BDD41C00081C
:1015F8000038024038B530F0010304460D460CD1DE
:1016080058B1012D10D90C4840F2EE51FEF75EFE9C
:101618000A4B9A6D14439C6538BD074840F2ED515A
:10162800FEF754FE012DEED8002DF1D1034B9A6D33
:1016380022EA04049C6538BDD41C00080038024026
:1016480038B5104B034004460D4663B958B1012D17
:1016580010D90D484FF4C461FEF738FE0B4B1A6ED3
:1016680014431C6638BD084840F21F61FEF72EFE81
:10167800012DEED8002DF1D1044B1A6E22EA040494
:101688001C6638BD003601C9D41C00080038024069
:1016980038B5104B034004460D4663B958B1012DC7
:1016A80010D90D484FF4C961FEF710FE0B4B5A6E66
:1016B80014435C6638BD084840F24761FEF706FEF1
:1016C800012DEED8002DF1D1044B5A6E22EA040404
:1016D8005C6638BDCCA0F8FFD41C00080038024076
:1016E80010F0C00F38B504460D460CD158B1012D85
:1016F80010D90C4840F27561FEF7E8FD0A4B1A78DC
:1017080014431C7038BD074840F27461FEF7DEFDD3
:10171800012DEED8002DF1D1034B1A7822EA0404EA
:101728001C7038BDD41C00080D38024000F0EF03CF
:10173800212B10B504461ED039281CD0412823D0AF
:1017480061280FD0A0F17903062B0BD93B2812D0C2
:10175800124840F29C61FEF7B9FD6309012B0AD0DB
:10176800022B11D00E4B5B6F04F01F0423FA04F018
:1017780000F0010010BD0A4B1B6804F01F0423FA97
:1017880004F000F0010010BD054B1B6F04F01F04AE
:1017980023FA04F000F0010010BD00BFD41C0008BB
:1017A8000038024000B583B00023019300E048B937
:1017B8003120FFF7BBFF019B01330193019BB3F578
:1017C800A06FF4D13120FFF7B1FF003018BF01201E
:1017D80003B05DF804FB00BF024B5A6F42F0807201
:1017E8005A67704700380240431E012B10B5044663
:1017F8000ED904280CD008280AD0102808D0802830
:1018080006D0202804D0064840F2DA61FEF75EFDD3
:10181800044BDB681C420CBF0020012010BD00BF38
:10182800D41C000800380240430610B5044600D412
:1018380020B9044840F2F961FEF748FD024B1C70DC
:1018480010BD00BFD41C00080E3802402DE9F04F2F
:1018580085B0FEF7F9FC2F4A2F4B10681E682F4FF2
:101868002F4D4FF4C0495B213C24C0F128084FF4A8
:10187800804C4FF4005E3B69C246BAF1000F03F09A
:10188800010B0CDD019100E000BF019B5A1E002BEB
:101898000192F9DC0AF1FF3ABAF1000FF2DCBBF170
:1018A800000F20D08246BAF1000FA5F818C0A5F89D
:1018B8001AE00CDD029100E000BF029B5A1E002BCB
:1018C8000292F9DC0AF1FF3ABAF1000FF2DCA5F84E
:1018D8001AC0A5F818E0013CCDD1282816D098B137
:1018E800A6B10130C0E7A5F81A908246BAF1000FF8
:1018F800F1DD039100E000BF039B5A1E002B039209
:10190800F9DC0AF1FF3AF1E70126EAE70138002697
:10191800AAE700BF7C040020040000200000024069
:1019280000180240002100F004B80D4B5B584350EA
:1019380004310C480C4B42189A42FFF4F6AF0B4A9C
:1019480000F003B8002342F8043B094B9A42FFF425
:10195800F9AFFEF7BDFC00F01FF8FFF777FF7047FF
:10196800741D0008000000205C04002060040020B2
:1019780084040020FFF7FEBF08B50021044600F0EC
:1019880087F8044B1868C36B03B19847204600F0EA
:10199800E3F900BF401D000870B50F4E0F4D761BD0
:1019A800B61007D0043D0024013455F8043F984789
:1019B800A642F9D10A4E0B4D761B00F0C1F9B610BC
:1019C80008D0043D0024013455F8043F9847A64246
:1019D800F9D170BD70BD00BF681D0008681D000802
:1019E800701D0008681D0008F0B4840743D0541E19
:1019F800002A3ED0CDB2034603E0621E002C38D048
:101A0800144603F8015B9A07F7D1032C2AD9CDB203
:101A180045EA05250F2C45EA054515D9A4F1100717
:101A28003F0903F1100606EB07161A4615605560C4
:101A38009560D5601032B242F8D104F00F04013736
:101A4800032C03EB07130DD91E462246043A032A3A
:101A580046F8045BFAD8221F22F00302043213442A
:101A680004F003042CB1C9B21C4403F8011BA342BF
:101A7800FBD1F0BC704714460346C6E7024B13B1CE
:101A8800024800F07DB8704700000000951B000870
:101A98002DE9F04F384B1B6885B003F5A47201930C
:101AA80002900F460392019BD3F84881B8F1000FCA
:101AB8001CD0DDF80CB04FF00109DA46D8F8043034
:101AC8005C1E11D408F188059E1C05EB830508EB04
:101AD800860677B1EB6FBB420BD0013C631CA5F1C6
:101AE8000405A6F10406F4D1244A7ABB05B0BDE882
:101AF800F08FD8F8042056F8043C013AA24216BFE9
:101B08000022C8F8044046F8042C002BE5D0D8F889
:101B18008811D8F804B009FA04F20A4210D0D8F8AB
:101B28008C110A420ED1029855F8041C9847D8F82F
:101B380004305B45B7D1DAF800304345CDD0B2E781
:101B48009847F4E755F8040C9847F0E7D8F80430BC
:101B58006BB9D8F8003063B14046CAF80030AFF32B
:101B68000080DAF80080B8F1000FA7D1BEE7D8F8F6
:101B78000030C2469846F6E7401D00080000000005
:101B8800014600200246034600F018B838B5094D52
:101B9800094C641BA41018BF05EB840505D0013C53
:101BA80055F8043D9847002CF9D1BDE8384000F0BD
:101BB800CDB800BF701D0008741D0008F0B5274C93
:101BC8002668D6F8484185B00746002C41D065689C
:101BD8001F2D1EDD224818B94FF0FF3005B0F0BDAB
:101BE8004FF4C870039102920193AFF300800399F8
:101BF800029A019B04460028EED0D6F84851256089
:101C0800002060600546C6F84841C4F88801C4F859
:101C18008C013FB9AB1C00200135656044F82310E6
:101C280005B0F0BD04EB85004FF0010CC0F888202A
:101C3800D4F888610CFA05F21643022FC4F88861BB
:101C4800C0F80831E6D1D4F88C311A43C4F88C2195
:101C5800E0E706F5A674C6F84841B8E7401D000855
:101C6800000000002E2E2F2E2E2F4C6962726172FA
:101C78006965732F53544D333246342D4469736369
:101C88006F766572795F46575F56312E312E302F49
:101C98004C69627261726965732F53544D333246D1
:101CA8003478785F5374645065726970685F447201
:101CB800697665722F7372632F73746D333266346D
:101CC80078785F6770696F2E630000002E2E2F2EC4
:101CD8002E2F4C69627261726965732F53544D33AC
:101CE8003246342D446973636F766572795F46575F
:101CF8005F56312E312E302F4C69627261726965E0
:101D0800732F53544D3332463478785F537464508C
:101D180065726970685F4472697665722F73726361
:101D28002F73746D3332663478785F7263632E6311
:101D38000000000043000000300000200000000008
:101D4800F8B500BFF8BC08BC9E467047F8B500BFA0
:081D5800F8BC08BC9E46704770
:081D60007CE4FF7F010000009C
:081D6800851A0008AD01000816
:041D700089010008DD
:101D7400000000000100000000000000000000005E
:101D840001020304060708090095BA0A00000000CE
:101D9400010203040102030406070809000000000D
:101DA400000000001C03002084030020EC0300203A
:101DB400000000000000000000000000000000001F
:101DC400000000000000000000000000000000000F
:101DD400000000003C1D000800000000000000009E
:101DE40000000000000000000000000000000000EF
:101DF40000000000000000000000000000000000DF
:101E040000000000000000000000000000000000CE
:101E140000000000000000000000000000000000BE
:101E240000000000000000000000000000000000AE
:101E3400000000000000000000000000000000009E
:101E4400000000000000000001000000000000008D
:101E54000E33CDAB34126DE6ECDE05000B00000052
:101E6400000000000000000000000000000000006E
:101E7400000000000000000000000000000000005E
:101E8400000000000000000000000000000000004E
:101E9400000000000000000000000000000000003E
:0C21C400000000000000000030000020BF
:0421D000000000000B
:040000050800192DA9
:00000001FF
