:020000040800F2
:1000000000000220D5750008257600082576000836
:1000100025760008257600082576000800000000F7
:10002000000000000000000000000000257600082D
:1000300025760008000000002576000825760008D7
:100040002576000825760008257600082576000824
:100050002576000825760008257600082576000814
:100060002576000825760008257600082576000804
:1000700025760008257600082576000825760008F4
:1000800025760008257600082576000825760008E4
:1000900025760008257600082576000825760008D4
:1000A00025760008257600082576000825760008C4
:1000B00025760008257600082576000825760008B4
:1000C00025760008257600082576000825760008A4
:1000D0002576000825760008257600082576000894
:1000E0002576000825760008257600082576000884
:1000F0002576000825760008257600082576000874
:100100002576000825760008257600082576000863
:100110002576000825760008257600082576000853
:100120002576000825760008257600082576000843
:100130002576000825760008257600082576000833
:100140002576000825760008257600082576000823
:100150002576000825760008257600082576000813
:100160002576000825760008257600082576000803
:1001700025760008257600082576000825760008F3
:08018000257600082576000831
:1001880010B5054C237833B9044B13B10448AFF3C9
:1001980000800123237010BD5804002000000000D7
:1001A800547A000808B5064B1BB106480649AFF358
:1001B80000800648036813B1054B03B1984708BD92
:1001C80000000000547A00085C0400205404002059
:1001D80000000000154B002B08BF134B9D46A3F5EC
:1001E800803A00218B460F461348144A121A07F02A
:1001F8004FFA0F4B002B00D098470E4B002B00D026
:1002080098470020002104000D000D48002802D066
:100218000C4807F009FB07F013FA2000290000F04A
:1002280013F807F0FDF900BF000008000000000007
:1002380000000000000000005804002074040020A2
:10024800317800083D78000880B58CB000AF0420F4
:10025800012101F0E3FE4020012101F03BFE0220D4
:10026800012101F037FE4FF460433B6002233B71EC
:1002780003237B710023BB710123FB713B46574865
:10028800194600F0BDFA40233B6002233B7100236E
:100298007B710023BB710123FB713B465048194613
:1002A80000F0AEFA4E480621022200F0C5FF4B4886
:1002B8000D21022200F0C0FF48480E21022200F062
:1002C800BBFF46480F21022200F0B6FF00237B85C2
:1002D800444B1A68444BA3FB02135B0E9BB2013BD1
:1002E8007B8540F299233B627B8DBB830023BB84D3
:1002F8000023FB8307F11C033C48194602F044FB2A
:1003080060233B8101237B8100233B610023BB8267
:1003180007F108033548194603F088F933480821DE
:1003280004F018F901237B8100233B6107F10803DE
:100338002E48194603F0A8FA2C48082104F07CF945
:1003480001237B8100233B6107F1080327481946F5
:1003580003F0BEFB2548082104F0CAF901237B817C
:1003680000233B6107F108032048194603F0C6FC47
:100378001E48082104F00AFA1C48012102F05EFF19
:100388001A48012103F0D0F80023FB62174BFA6AE0
:100398005A63164AFB6AD90F0B445B109363134ADE
:1003A800FB6A002B00DA0733DB10D3630F4AFB6AC2
:1003B800002B00DA0F331B1113640D4800F01CF8F2
:1003C800FB6A0133FB62FB6AB3F52F7F05DB002371
:1003D800FB62084800F010F8D8E7D7E70018024099
:1003E8000004024004000020B5FA9BEE000800401B
:1003F80080380100A0BB0D0080B483B000AF7860E6
:1004080000BF7B685A1E7A60002BFAD10C37BD46B4
:100418005DF8047B704700BF80B483B000AF78609C
:100428003960FEE780B500AF154B154AD2F8882031
:1004380042F47002C3F88820124B124A126842F044
:1004480001021A600F4B00229A600E4A0D4B1B687E
:1004580023F0847323F4803313600A4B0A4A5A60EA
:10046800084B084A126822F480221A60054B0022C1
:10047800DA6000F087F8024B4FF000629A6080BDA6
:1004880000ED00E0003802401030002480B487B04E
:1004980000AF00233B6100237B610223FB60002344
:1004A800BB6002237B60324B9B6803F00C033B610B
:1004B8003B69042B07D0082B09D0002B3FD12D4BCB
:1004C8002D4A1A603FE02B4B2C4A1A603BE0284B20
:1004D8005B6803F480039B0DBB60254B5B6803F0EE
:1004E8003F037B60BB68002B0DD0244A7B68B2FBBE
:1004F800F3F21F4B596847F6C0730B409B0903FB87
:1005080002F37B610CE01C4A7B68B2FBF3F2184BE8
:10051800596847F6C0730B409B0903FB02F37B61E4
:10052800134B5B6803F440331B0C01335B00FB6027
:100538007A69FB68B2FBF3F20E4B1A6003E00D4BCD
:100548000D4A1A6000BF0A4B9B6803F0F0031B09B1
:100558000B4AD35CDBB23B61064B1A683B69DA4055
:10056800044B1A601C37BD465DF8047B704700BF1A
:1005780000380240040000200024F40000127A0031
:100588000800002080B483B000AF00237B60002304
:100598003B60354B344A126842F480321A60324B61
:1005A8001B6803F400333B607B6801337B603B6866
:1005B800002B03D17B68B3F5A06FF0D12A4B1B68E1
:1005C80003F40033002B02D001233B6001E0002339
:1005D8003B603B68012B42D1234B234A126C42F00B
:1005E80080521A64214B214A126842F480421A60F0
:1005F8001D4B1D4A92689A601B4B1B4A926842F435
:1006080000429A60184B184A926842F4A0529A60C5
:10061800154B174A5A60144B134A126842F08072FD
:100628001A6000BF104B1B6803F00073002BF9D051
:10063800104B40F205621A600B4B0B4A926822F08D
:1006480003029A60084B084A926842F002029A60D4
:1006580000BF054B9B6803F00C03082BF9D10C373E
:10066800BD465DF8047B70470038024000700040CA
:1006780019544007003C0240847A0008000000201A
:1006880054040020580400207404002080B582B06F
:1006980000AF78607A68504B9A4223D07A684F4B03
:1006A8009A421FD07A684E4B9A421BD07A684D4BBB
:1006B8009A4217D07A684C4B9A4213D07A684B4BBF
:1006C8009A420FD07A684A4B9A420BD07A68494BC3
:1006D8009A4207D07A68484B9A4203D047487B2110
:1006E800FFF79AFE7A683C4B9A4208D10120012113
:1006F80001F004FD0120002101F000FD68E07A68A6
:10070800364B9A4208D10220012101F0F7FC022061
:10071800002101F0F3FC5BE07A68314B9A4208D182
:100728000420012101F0EAFC0420002101F0E6FC8C
:100738004EE07A682B4B9A4208D10820012101F03B
:10074800DDFC0820002101F0D9FC41E07A68264B45
:100758009A4208D11020012101F0D0FC102000217C
:1007680001F0CCFC34E07A68204B9A4208D1202072
:10077800012101F0C3FC2020002101F0BFFC27E08B
:100788007A681B4B9A4208D14020012101F0B6FC3F
:100798004020002101F0B2FC1AE07A68154B9A4219
:1007A80008D18020012101F0A9FC8020002101F05E
:1007B800A5FC0DE07A68104B9A4209D14FF480707D
:1007C800012101F09BFC4FF48070002101F096FCA0
:1007D8000837BD4680BD00BF00000240000402404B
:1007E80000080240000C02400010024000140240C1
:1007F80000180240001C0240002002401479000842
:1008080080B586B000AF7860396000237B61002333
:100818003B610023FB607A687A4B9A4223D07A685E
:10082800794B9A421FD07A68784B9A421BD07A68E3
:10083800774B9A4217D07A68764B9A4213D07A68E7
:10084800754B9A420FD07A68744B9A420BD07A68EB
:10085800734B9A4207D07A68724B9A4203D0724817
:10086800BB21FFF7D9FD3B681B68002B03D16E48FD
:10087800BC21FFF7D1FD3B681B79002B0FD03B68EB
:100888001B79012B0BD03B681B79022B07D03B68E7
:100898001B79032B03D06448BD21FFF7BDFD3B68DE
:1008A800DB79002B0BD03B68DB79012B07D03B6849
:1008B800DB79022B03D05C48BE21FFF7ADFD002396
:1008C8007B6197E07B69012202FA03F33B613B6895
:1008D8001A683B691340FB60FA683B699A4240F02A
:1008E80086807B681A687B695B00032101FA03F341
:1008F800DB431A407B681A607B681A683B681B797F
:1009080019467B695B0001FA03F31A437B681A6096
:100918003B681B79012B03D03B681B79022B4ED116
:100928003B685B79002B0FD03B685B79012B0BD0C0
:100938003B685B79022B07D03B685B79032B03D0BC
:100948003948D021FFF768FD7B689A687B695B00AE
:10095800032101FA03F3DB431A407B689A607B6842
:100968009A683B685B7919467B695B0001FA03F377
:100978001A437B689A603B689B79002B07D03B68D9
:100988009B79012B03D02848D721FFF745FD7B68C9
:100998005A687B699BB2012101FA03F3DB431A40D1
:1009A8007B685A607B685A683B689B7919467B6903
:1009B8009BB201FA03F39BB21A437B685A607B68C7
:1009C800DA687B699BB25B00032101FA03F3DB431E
:1009D8001A407B68DA607B68DA683B68DB7919461D
:1009E8007B695B0001FA03F31A437B68DA607B6971
:1009F80001337B617B690F2B7FF664AF1837BD46E7
:100A080080BD00BF00000240000402400008024010
:100A1800000C02400010024000140240001802407E
:100A2800001C0240002002401479000880B483B002
:100A380000AF78607B684FF6FF721A607B6800220F
:100A48001A717B6800225A717B6800229A717B6850
:100A58000022DA710C37BD465DF8047B704700BF91
:100A680080B584B000AF78600B467B804FF480334C
:100A7800FB607A68224B9A4224D07A68214B9A42CA
:100A880020D07A68204B9A421CD07A681F4B9A4231
:100A980018D07A681E4B9A4214D07A681D4B9A4235
:100AA80010D07A681C4B9A420CD07A681B4B9A4239
:100AB80008D07A681A4B9A4204D01A484FF48271C7
:100AC800FFF7AAFC7B88002B04D1164840F20511D9
:100AD800FFF7A2FC7A88FB681343FB60FA687B681F
:100AE800DA617A887B68DA61FA687B68DA617B6840
:100AF800DB69FB607B68DB69FB601037BD4680BD46
:100B0800000002400004024000080240000C0240BD
:100B1800001002400014024000180240001C02406D
:100B2800002002401479000880B584B000AF7860D6
:100B38000B467B800023FB737A683A4B9A4224D099
:100B48007A68394B9A4220D07A68384B9A421CD03E
:100B58007A68374B9A4218D07A68364B9A4214D042
:100B68007A68354B9A4210D07A68344B9A420CD046
:100B78007A68334B9A4208D07A68324B9A4204D04A
:100B880031484FF49871FFF747FC7B88012B39D027
:100B98007B88022B36D07B88042B33D07B88082BAC
:100BA80030D07B88102B2DD07B88202B2AD07B88B7
:100BB800402B27D07B88802B24D07B88B3F5807F7F
:100BC80020D07B88B3F5007F1CD07B88B3F5806F7D
:100BD80018D07B88B3F5006F14D07B88B3F5805F9D
:100BE80010D07B88B3F5005F0CD07B88B3F5804FBD
:100BF80008D07B88B3F5004F04D0134840F2311178
:100C0800FFF70AFC7B681A697B881340002B02D027
:100C18000123FB7301E00023FB73FB7B18461037AD
:100C2800BD4680BD000002400004024000080240AA
:100C3800000C02400010024000140240001802405C
:100C4800001C0240002002401479000880B582B0E0
:100C580000AF78607A68174B9A4224D07A68164BAE
:100C68009A4220D07A68154B9A421CD07A68144B65
:100C78009A4218D07A68134B9A4214D07A68124B69
:100C88009A4210D07A68114B9A420CD07A68104B6D
:100C98009A4208D07A680F4B9A4204D00E484FF413
:100CA800A371FFF7B9FB7B681B699BB2184608372D
:100CB800BD4680BD0000024000040240000802401A
:100CC800000C0240001002400014024000180240CC
:100CD800001C0240002002401479000880B584B04E
:100CE80000AF78600B467B800023FB737A683A4B31
:100CF8009A4224D07A68394B9A4220D07A68384B85
:100D08009A421CD07A68374B9A4218D07A68364B88
:100D18009A4214D07A68354B9A4210D07A68344B8C
:100D28009A420CD07A68334B9A4208D07A68324B90
:100D38009A4204D0314840F25711FFF76DFB7B8887
:100D4800012B39D07B88022B36D07B88042B33D0FB
:100D58007B88082B30D07B88102B2DD07B88202BCC
:100D68002AD07B88402B27D07B88802B24D07B8877
:100D7800B3F5807F20D07B88B3F5007F1CD07B88BB
:100D8800B3F5806F18D07B88B3F5006F14D07B88DB
:100D9800B3F5805F10D07B88B3F5005F0CD07B88FB
:100DA800B3F5804F08D07B88B3F5004F04D01348C3
:100DB8004FF4AC71FFF730FB7B685A697B881340AE
:100DC800002B02D00123FB7301E00023FB73FB7BA4
:100DD80018461037BD4680BD00000240000402409E
:100DE80000080240000C02400010024000140240BB
:100DF80000180240001C024000200240147900083C
:100E080080B582B000AF78607A68174B9A4224D0D8
:100E18007A68164B9A4220D07A68154B9A421CD0B1
:100E28007A68144B9A4218D07A68134B9A4214D0B5
:100E38007A68124B9A4210D07A68114B9A420CD0B9
:100E48007A68104B9A4208D07A680F4B9A4204D0BD
:100E58000E4840F26D11FFF7DFFA7B685B699BB2C1
:100E680018460837BD4680BD000002400004024015
:100E780000080240000C024000100240001402402A
:100E880000180240001C02400020024014790008AB
:100E980080B582B000AF78600B467B807A681B4BC8
:100EA8009A4224D07A681A4B9A4220D07A68194B11
:100EB8009A421CD07A68184B9A4218D07A68174B15
:100EC8009A4214D07A68164B9A4210D07A68154B19
:100ED8009A420CD07A68144B9A4208D07A68134B1D
:100EE8009A4204D0124840F27F11FFF795FA7B88A6
:100EF800002B04D10E484FF4C071FFF78DFA7B68C0
:100F08007A881A830837BD4680BD00BF00000240BA
:100F18000004024000080240000C02400010024099
:100F28000014024000180240001C02400020024049
:100F38001479000880B582B000AF78600B467B80DA
:100F48007A681B4B9A4224D07A681A4B9A4220D06E
:100F58007A68194B9A421CD07A68184B9A4218D072
:100F68007A68174B9A4214D07A68164B9A4210D076
:100F78007A68154B9A420CD07A68144B9A4208D07A
:100F88007A68134B9A4204D012484FF4C971FFF79C
:100F980043FA7B88002B04D10E4840F29311FFF7E7
:100FA8003BFA7B687A885A830837BD4680BD00BF04
:100FB800000002400004024000080240000C024009
:100FC800001002400014024000180240001C0240B9
:100FD800002002401479000880B582B000AF786024
:100FE80013460A467A807B707A683E4B9A4224D030
:100FF8007A683D4B9A4220D07A683C4B9A421CD082
:101008007A683B4B9A4218D07A683A4B9A4214D085
:101018007A68394B9A4210D07A68384B9A420CD089
:101028007A68374B9A4208D07A68364B9A4204D08D
:1010380035484FF4D371FFF7EFF97B88012B39D08E
:101048007B88022B36D07B88042B33D07B88082BF7
:1010580030D07B88102B2DD07B88202B2AD07B8802
:10106800402B27D07B88802B24D07B88B3F5807FCA
:1010780020D07B88B3F5007F1CD07B88B3F5806FC8
:1010880018D07B88B3F5006F14D07B88B3F5805FE8
:1010980010D07B88B3F5005F0CD07B88B3F5804F08
:1010A80008D07B88B3F5004F04D0174840F2A71149
:1010B800FFF7B2F97B78002B07D07B78012B04D09F
:1010C80011484FF4D471FFF7A7F97B78002B03D0B0
:1010D8007B687A881A8302E07B687A885A830837A3
:1010E800BD4680BD000002400004024000080240E6
:1010F800000C024000100240001402400018024098
:10110800001C0240002002401479000880B582B01B
:1011180000AF78600B467B807A68174B9A4224D0E0
:101128007A68164B9A4220D07A68154B9A421CD09E
:101138007A68144B9A4218D07A68134B9A4214D0A2
:101148007A68124B9A4210D07A68114B9A420CD0A6
:101158007A68104B9A4208D07A680F4B9A4204D0AA
:101168000E4840F2BD11FFF757F97A887B685A613B
:101178000837BD4680BD00BF0000024000040240A1
:1011880000080240000C0240001002400014024017
:1011980000180240001C0240002002401479000898
:1011A80080B582B000AF78600B467B807A68184BB8
:1011B8009A4224D07A68174B9A4220D07A68164B04
:1011C8009A421CD07A68154B9A4218D07A68144B08
:1011D8009A4214D07A68134B9A4210D07A68124B0C
:1011E8009A420CD07A68114B9A4208D07A68104B10
:1011F8009A4204D00F4840F2CB11FFF70DF97B68F3
:101208005A697B885A407B685A610837BD4680BD59
:10121800000002400004024000080240000C0240A6
:10122800001002400014024000180240001C024056
:10123800002002401479000880B584B000AF7860BF
:1012480013460A467A807B700023FB600023BB604C
:101258007A68834B9A4224D07A68824B9A4220D08B
:101268007A68814B9A421CD07A68804B9A4218D08F
:101278007A687F4B9A4214D07A687E4B9A4210D093
:101288007A687D4B9A420CD07A687C4B9A4208D097
:101298007A687B4B9A4204D07A4840F21721FFF7CC
:1012A800BBF87B88002B31D07B88012B2ED07B8824
:1012B800022B2BD07B88032B28D07B88042B25D0AE
:1012C8007B88052B22D07B88062B1FD07B88072B99
:1012D8001CD07B88082B19D07B88092B16D07B88DB
:1012E8000A2B13D07B880B2B10D07B880C2B0DD0AE
:1012F8007B880D2B0AD07B880E2B07D07B880F2B81
:1013080004D060484FF40671FFF786F87B78002B0D
:101318006DD07B78092B6AD07B78002B67D07B78DF
:10132800002B64D07B78002B61D07B78002B5ED0BB
:101338007B78012B5BD07B78012B58D07B78022BF4
:1013480055D07B78022B52D07B78022B4FD07B78FC
:10135800032B4CD07B78042B49D07B78042B46D0C8
:101368007B78042B43D07B78052B40D07B78052BEA
:101378003DD07B78092B3AD07B78062B37D07B7809
:10138800092B34D07B78072B31D07B78072B2ED0D4
:101398007B78072B2BD07B78082B28D07B78082BE1
:1013A80025D07B78082B22D07B78092B1FD07B781F
:1013B800092B1CD07B780A2B19D07B780A2B16D0E6
:1013C8007B780B2B13D07B780C2B10D07B780C2BD5
:1013D8000DD07B780C2B0AD07B780D2B07D07B782F
:1013E8000F2B04D0274840F21921FFF715F87A7817
:1013F8007B8803F007039B0002FA03F3FB607B88FA
:10140800DB089BB21A467B88DB089BB219467B68CF
:10141800083153F821107B8803F007039B000F2045
:1014280000FA03F3DB4319407B68083243F82210C3
:101438007B88DB089BB21A467B68083253F8222067
:10144800FB681343BB607B88DB089BB21A467B684A
:101458000832B96843F822101037BD4680BD00BF76
:10146800000002400004024000080240000C024054
:10147800001002400014024000180240001C024004
:10148800002002401479000880B400AF104B104AC5
:10149800126842F001021A600D4B00229A600C4A51
:1014A8000B4B1B6823F0847323F480331360084BC1
:1014B800084A5A60064B064A126822F480221A60CB
:1014C800034B0022DA60BD465DF8047B704700BF1D
:1014D800003802401030002480B582B000AF0346C7
:1014E800FB71FB79002B09D0FB79012B06D0FB7926
:1014F800052B03D00648F021FEF78EFF054B00228E
:101508001A70044BFA791A700837BD4680BD00BFBF
:101518007C7900080238024080B582B000AF002311
:101528003B600023FB710023BB71312001F04AF8B6
:101538000346BB713B6801333B603B68B3F5A06F62
:1015480002D0BB79002BF0D0312001F03BF80346E4
:10155800002B02D00123FB7101E00023FB71FB7912
:1015680018460837BD4680BD80B584B000AF034635
:10157800FB710023FB60FB791F2B04D90B484FF448
:101588009471FEF749FF0A4B1B68FB60FB6823F068
:10159800F803FB60FB79DB00FA681343FB60044B3C
:1015A800FA681A601037BD4680BD00BF7C79000814
:1015B8000038024080B582B000AF0346FB71FB796A
:1015C800002B07D0FB79012B04D0054840F24B11C2
:1015D800FEF722FF034BFA791A600837BD4680BD33
:1015E8007C7900080000474280B582B000AF03460E
:1015F800FB71FB79002B0AD0FB79012B07D0FB7913
:10160800042B04D00D484FF4B271FEF705FF0C4BC4
:1016180000221A700A4B00221A70FB79012B02D0A3
:10162800042B04D007E0064B01221A7003E0044B98
:1016380005221A7000BF0837BD4680BD7C790008B6
:101648007038024080B582B000AF0346FB71FB7969
:10165800002B07D0FB79012B04D005484FF4C67145
:10166800FEF7DAFE034BFA791A600837BD4680BDEB
:101678007C790008800E474280B584B000AFF860DE
:10168800B9607A603B60FB68002B08D0FB68B3F553
:10169800800F04D0234840F2B711FEF7BDFEBB68A7
:1016A8003F2B04D91F484FF4DC71FEF7B5FE7B6869
:1016B800BF2B03D97B68B3F5D87F04D9194840F20A
:1016C800B911FEF7A9FE3B68022B0DD03B68042B2D
:1016D8000AD03B68062B07D03B68082B04D011487A
:1016E8004FF4DD71FEF798FEBB69032B02D9BB6985
:1016F8000F2B04D90B4840F2BB11FEF78DFE0A4BA5
:101708007A689101BA6811433A685208013A12049A
:101718001143FA681143BA6912060A435A6010372E
:10172800BD4680BD7C7900080038024080B582B093
:1017380000AF0346FB71FB79002B07D0FB79012B27
:1017480004D005484FF4E771FEF766FE034BFA79BB
:101758001A600837BD4680BD7C79000860004742A2
:1017680080B582B000AF786039607B68BF2B03D941
:101778007B68B3F5D87F04D90D484FF4F471FEF7B0
:101788004BFE3B68012B02D93B68072B04D908485C
:1017980040F2E911FEF740FE064B7A6891013A687B
:1017A80012070A43C3F884200837BD4680BD00BF2E
:1017B8007C7900080038024080B582B000AF03464B
:1017C800FB71FB79002B07D0FB79012B04D005486E
:1017D80040F2F711FEF720FE034BFA791A6008373A
:1017E800BD4680BD7C7900086800474280B582B05C
:1017F80000AF0346FB71FB79002B07D0FB79012B67
:1018080004D0054840F20921FEF706FE034BFA7999
:101818001A600837BD4680BD7C7900084C004742F5
:1018280080B584B000AF786039600023FB607B68C6
:10183800002B10D07B68B3F5001F0CD07B68B3F584
:10184800800F08D07B68B3F5C00F04D017484FF459
:101858000971FEF7E1FD3B68002B14D03B68B3F13A
:10186800806F10D03B68B3F1A06F0CD03B68B3F128
:10187800C06F08D03B68B3F1E06F04D00B4840F26A
:101888002521FEF7C9FD0A4B9B68FB60FB6823F026
:10189800EC63FB607A683B681343FA681343FB60A8
:1018A800034BFA689A601037BD4680BD7C79000802
:1018B8000038024080B584B000AF786039600023FA
:1018C800FB607B68002B10D07B68B3F1804F0CD095
:1018D8007B68B3F1004F08D07B68B3F1404F04D068
:1018E800174840F24A21FEF797FD3B68002B14D0B9
:1018F8003B68B3F1005F10D03B68B3F1205F0CD0B8
:101908003B68B3F1405F08D03B68B3F1605F04D037
:101918000B4840F24B21FEF77FFD0A4B9B68FB60AA
:10192800FB6823F07843FB607A683B681343FA68E6
:101938001343FB60034BFA689A601037BD4680BDBD
:101948007C7900080038024080B584B000AF786028
:101958000023FB607B68002B0AD07B68012B07D033
:101968007B68022B04D00B484FF42D71FEF754FD11
:10197800094B9B68FB60FB6823F00303FB60FA6874
:101988007B681343FB60044BFA689A601037BD46C6
:1019980080BD00BF7C7900080038024080B400AFE9
:1019A800054B9B68DBB203F00C03DBB21846BD465F
:1019B8005DF8047B704700BF0038024080B584B0F2
:1019C80000AF78600023FB607B68002B1CD07B682D
:1019D800802B19D07B68902B16D07B68A02B13D056
:1019E8007B68B02B10D07B68C02B0DD07B68D02BC8
:1019F8000AD07B68E02B07D07B68F02B04D00B481B
:101A080040F2E921FEF708FD094B9B68FB60FB6883
:101A180023F0F003FB60FA687B681343FB60044B18
:101A2800FA689A601037BD4680BD00BF7C7900080F
:101A38000038024080B584B000AF78600023FB60B6
:101A48007B68002B14D07B68B3F5805F10D07B686F
:101A5800B3F5A05F0CD07B68B3F5C05F08D07B6896
:101A6800B3F5E05F04D00B4840F20931FEF7D4FC2F
:101A7800094B9B68FB60FB6823F4E053FB60FA6842
:101A88007B681343FB60044BFA689A601037BD46C5
:101A980080BD00BF7C7900080038024080B584B062
:101AA80000AF78600023FB607B68002B14D07B6854
:101AB800B3F5805F10D07B68B3F5A05F0CD07B686E
:101AC800B3F5C05F08D07B68B3F5E05F04D00B487E
:101AD8004FF44A71FEF7A0FC094B9B68FB60FB685A
:101AE80023F46043FB607B68DB00FA681343FB6008
:101AF800034BFA689A601037BD4680BD7C790008B0
:101B08000038024080B489B000AF78600023BB6120
:101B180000237B610023FB6102233B610023FB6000
:101B28000223BB60484B9B6803F00C03BB61BB6995
:101B3800042B07D0082B09D0002B3FD17B68434AE0
:101B48001A603FE07B68424A1A603BE03E4B5B68A4
:101B580003F480039B0DFB603B4B5B6803F03F0382
:101B6800BB60FB68002B0DD0394ABB68B2FBF3F2AF
:101B7800354B596847F6C0730B409B0903FB02F3CA
:101B8800FB610CE0314ABB68B2FBF3F22E4B59689B
:101B980047F6C0730B409B0903FB02F3FB612A4B1A
:101BA8005B6803F440331B0C01335B003B61FA694B
:101BB8003B69B2FBF3F27B681A6003E07B68234A57
:101BC8001A6000BF204B9B6803F0F003BB61BB6940
:101BD8001B09BB611F4ABB6913441B78DBB27B61DD
:101BE8007B681A687B69DA407B685A60164B9B6889
:101BF80003F4E053BB61BB699B0ABB61154ABB692F
:101C080013441B78DBB27B617B685A687B69DA40D6
:101C18007B689A600C4B9B6803F46043BB61BB69AB
:101C28005B0BBB610B4ABB6913441B78DBB27B615E
:101C38007B685A687B69DA407B68DA602437BD467E
:101C48005DF8047B704700BF003802400024F400B0
:101C580000127A001800002080B584B000AF7860C8
:101C68000023FB607B68B3F5807F00F081807B6890
:101C7800B3F5007F7CD07A684F4B9A4278D07A6867
:101C88004E4B9A4274D07A684D4B9A4270D07A681B
:101C98004C4B9A426CD07A684B4B9A4268D07A681F
:101CA8004A4B9A4264D07A68494B9A4260D07A6823
:101CB800484B9A425CD07A68474B9A4258D07A6827
:101CC800464B9A4254D07A68454B9A4250D07A682B
:101CD800444B9A424CD07A68434B9A4248D07A682F
:101CE800424B9A4244D07A68414B9A4240D07A6833
:101CF800404B9A423CD07A683F4B9A4238D07A6837
:101D08003E4B9A4234D07A683D4B9A4230D07A683A
:101D18003C4B9A422CD07A683B4B9A4228D07A683E
:101D28003A4B9A4224D07A68394B9A4220D07A6842
:101D3800384B9A421CD07A68374B9A4218D07A6846
:101D4800364B9A4214D07A68354B9A4210D07A684A
:101D5800344B9A420CD07A68334B9A4208D07A684E
:101D6800324B9A4204D0324840F2D931FEF754FB44
:101D78007B6803F44073B3F5407F11D12D4B9B680A
:101D8800FB60FB6823F4F813FB607B6823F0704367
:101D980023F44073FA681343FB60264BFA689A6091
:101DA800244B244A116F7A68C2F30B020A431A675C
:101DB8001037BD4680BD00BF0003020000030300CA
:101DC80000030400000305000003060000030700E9
:101DD800000308000003090000030A0000030B00C9
:101DE80000030C0000030D0000030E0000030F00A9
:101DF8000003100000031100000312000003130089
:101E08000003140000031500000316000003170068
:101E1800000318000003190000031A0000031B0048
:101E280000031C0000031D0000031E0000031F0028
:101E38007C7900080038024080B582B000AF0346C4
:101E4800FB71FB79002B07D0FB79012B04D00548E7
:101E580040F2F731FEF7E0FA034BFA791A600837D7
:101E6800BD4680BD7C7900083C0E474280B582B0F3
:101E780000AF0346FB71FB79002B07D0FB79012BE0
:101E880004D005484FF48161FEF7C6FA034BFA798E
:101E98001A600837BD4680BD7C790008400E47426D
:101EA80080B582B000AF78607B68002B07D07B6874
:101EB800012B04D0054840F21941FEF7ADFA044B56
:101EC8007A681A600837BD4680BD00BF7C79000873
:101ED8005C01474280B582B000AF78600B46FB706A
:101EE8007A68154B1340002B02D17B68002B04D174
:101EF80012484FF48861FEF78FFAFB78002B07D061
:101F0800FB78012B04D00D4840F24241FEF784FAD9
:101F1800FB78002B06D00A4B094A116B7A680A43F2
:101F28001A6306E0064B064A116B7A68D2430A40E8
:101F38001A630837BD4680BD00EE8B817C790008A6
:101F48000038024080B582B000AF78600B46FB7065
:101F58007B6823F0F103002B02D17B68002B04D1AE
:101F680011484FF48C61FEF757FAFB78002B07D025
:101F7800FB78012B04D00C4840F26141FEF74CFA83
:101F8800FB78002B06D0094B084A516B7A680A4344
:101F98005A6306E0054B054A516B7A68D2430A40FA
:101FA8005A630837BD4680BD7C7900080038024076
:101FB80080B582B000AF78600B46FB707B6823F079
:101FC8000103002B02D17B68002B04D1114840F299
:101FD8007B41FEF721FAFB78002B07D0FB78012B19
:101FE80004D00C4840F27C41FEF716FAFB78002B2F
:101FF80006D0094B084A916B7A680A439A6306E04F
:10200800054B054A916B7A68D2430A409A630837B0
:10201800BD4680BD7C7900080038024080B582B09A
:1020280000AF78600B46FB707A68154B1340002BA5
:1020380002D17B68002B04D1124840F2AD41FEF773
:10204800EBF9FB78002B07D0FB78012B04D00D4867
:1020580040F2AE41FEF7E0F9FB78002B06D00A4BC0
:10206800094A116C7A680A431A6406E0064B064A64
:10207800116C7A68D2430A401A640837BD4680BD9D
:10208800003601C97C7900080038024080B582B06A
:1020980000AF78600B46FB707A68154B1340002B35
:1020A80002D17B68002B04D1124840F2D541FEF7DB
:1020B800B3F9FB78002B07D0FB78012B04D00D482F
:1020C80040F2D641FEF7A8F9FB78002B06D00A4B60
:1020D800094A516C7A680A435A6406E0064B064A74
:1020E800516C7A68D2430A405A640837BD4680BDAD
:1020F800CCA0F8FF7C7900080038024080B582B097
:1021080000AF78600B46FB707A68154B1340002BC4
:1021180002D17B68002B04D1124840F2FC41FEF743
:102128007BF9FB78002B07D0FB78012B04D00D48F6
:1021380040F2FD41FEF770F9FB78002B06D00A4B00
:10214800094A11697A680A431A6106E0064B064A89
:1021580011697A68D2430A401A610837BD4680BDC2
:1021680000EE9FDD7C7900080038024080B582B01F
:1021780000AF78600B46FB707B6823F0F103002BFF
:1021880002D17B68002B04D1114840F21951FEF7A7
:1021980043F9FB78002B07D0FB78012B04D00C48BF
:1021A80040F21A51FEF738F9FB78002B06D0094B9C
:1021B800084A51697A680A435A6106E0054B054A9C
:1021C80051697A68D2430A405A610837BD4680BDD2
:1021D8007C7900080038024080B582B000AF786092
:1021E8000B46FB707B6823F00103002B02D17B6850
:1021F800002B04D1114840F23151FEF70DF9FB785C
:10220800002B07D0FB78012B04D00C4840F2325148
:10221800FEF702F9FB78002B06D0094B084A9169B2
:102228007A680A439A6106E0054B054A91697A681B
:10223800D2430A409A610837BD4680BD7C790008C0
:102248000038024080B582B000AF78600B46FB7062
:102258007A68154B1340002B02D17B68002B04D100
:1022680012484FF4AC61FEF7D7F8FB78002B07D083
:10227800FB78012B04D00D4840F26151FEF7CCF8F1
:10228800FB78002B06D00A4B094A116A7A680A4380
:102298001A6206E0064B064A116A7A68D2430A4077
:1022A8001A620837BD4680BD003601C97C7900082E
:1022B8000038024080B582B000AF78600B46FB70F2
:1022C8007A68154B1340002B02D17B68002B04D190
:1022D800124840F28451FEF79FF8FB78002B07D094
:1022E800FB78012B04D00D4840F28551FEF794F895
:1022F800FB78002B06D00A4B094A516A7A680A43D0
:102308005A6206E0064B064A516A7A68D2430A4086
:102318005A620837BD4680BDCCA6F8FF7C79000814
:102328000038024080B582B000AF78600B46FB7081
:102338007A68154B1340002B02D17B68002B04D11F
:10234800124840F2B251FEF767F8FB78002B07D02D
:10235800FB78012B04D00D4840F2B351FEF75CF82E
:10236800FB78002B06D00A4B094A116D7A680A439C
:102378001A6506E0064B064A116D7A68D2430A4090
:102388001A650837BD4680BD006E98817C790008C3
:102398000038024080B582B000AF78600B46FB7011
:1023A8007B6823F0F103002B02D17B68002B04D15A
:1023B800114840F2D251FEF72FF8FB78002B07D0D6
:1023C800FB78012B04D00C4840F2D351FEF724F8D7
:1023D800FB78002B06D0094B084A516D7A680A43EE
:1023E8005A6506E0054B054A516D7A68D2430A40A2
:1023F8005A650837BD4680BD7C7900080038024020
:1024080080B582B000AF78600B46FB707B6823F024
:102418000103002B02D17B68002B04D1114840F244
:10242800ED51FDF7F9FFFB78002B07D0FB78012B66
:1024380004D00C4840F2EE51FDF7EEFFFB78002B7C
:1024480006D0094B084A916D7A680A439A6506E0F6
:10245800054B054A916D7A68D2430A409A65083758
:10246800BD4680BD7C7900080038024080B582B046
:1024780000AF78600B46FB707A68154B1340002B51
:1024880002D17B68002B04D1124840F21F61FDF78E
:10249800C3FFFB78002B07D0FB78012B04D00D4835
:1024A8004FF4C461FDF7B8FFFB78002B06D00A4B48
:1024B800094A116E7A680A431A6606E0064B064A0C
:1024C800116E7A68D2430A401A660837BD4680BD45
:1024D800003601C97C7900080038024080B582B016
:1024E80000AF78600B46FB707A68154B1340002BE1
:1024F80002D17B68002B04D1124840F24761FDF7F6
:102508008BFFFB78002B07D0FB78012B04D00D48FC
:102518004FF4C961FDF780FFFB78002B06D00A4B0A
:10252800094A516E7A680A435A6606E0064B064A1B
:10253800516E7A68D2430A405A660837BD4680BD54
:10254800CCA0F8FF7C7900080038024080B582B042
:1025580000AF02460B46FA71BB71FB7903F0C0036A
:10256800002B02D1FB79002B04D1144840F274618E
:10257800FDF752FFBB79002B07D0BB79012B04D0A4
:102588000E4840F27561FDF747FFBB79002B08D074
:102598000B4B0B4A1278D1B2FA790A43D2B21A70AD
:1025A80009E0074B064A1278D1B2FA79D243D2B27F
:1025B8000A40D2B21A700837BD4680BD7C7900083F
:1025C8000D38024080B586B000AF0346FB7100238A
:1025D800FB6000237B610023FB74FB79212B28D04F
:1025E800FB79312B25D0FB79392B22D0FB79412B74
:1025F8001FD0FB79612B1CD0FB79792B19D0FB7983
:102608007A2B16D0FB797B2B13D0FB797C2B10D03F
:10261800FB797D2B0DD0FB797E2B0AD0FB797F2BA4
:1026280007D0FB793B2B04D0174840F29C61FDF79B
:10263800F3FEFB795B09DBB2FB60FB68012B03D17E
:10264800124B1B687B6109E0FB68022B03D10F4B1F
:102658001B6F7B6102E00D4B5B6F7B61FB7903F0C5
:102668001F03FB60FB687A6922FA03F303F0010396
:10267800002B02D00123FB7401E00023FB74FB7CD8
:1026880018461837BD4680BD7C79000800380240DE
:1026980080B400AF044B044A526F42F080725A670C
:1026A800BD465DF8047B70470038024080B584B0B1
:1026B80000AF0346FB710023FB73FB79012B16D097
:1026C800FB79022B13D0FB79042B10D0FB79082B54
:1026D8000DD0FB79102B0AD0FB79802B07D0FB7922
:1026E800202B04D00A4840F2DA61FDF795FE094B29
:1026F800DA68FB791340002B02D00123FB7301E059
:102708000023FB73FB7B18461037BD4680BD00BF16
:102718007C7900080038024080B582B000AF0346DB
:10272800FB71FB7903F04003002B02D1FB79002BEE
:1027380004D1054840F2F961FDF76EFE034BFA79C2
:102748001A700837BD4680BD7C7900080E380240F3
:1027580080B582B000AF78607A687D4B9A4237D0F6
:102768007B68B3F1804F33D07A687A4B9A422FD086
:102778007A68794B9A422BD07A68784B9A4227D05C
:102788007A68774B9A4223D07A68764B9A421FD060
:102798007A68754B9A421BD07A68744B9A4217D064
:1027A8007A68734B9A4213D07A68724B9A420FD068
:1027B8007A68714B9A420BD07A68704B9A4207D06C
:1027C8007A686F4B9A4203D06E48C521FDF724FE04
:1027D8007A685F4B9A4208D101200121FFF76AFD10
:1027E80001200021FFF766FDAFE07B68B3F1804F61
:1027F80008D101200121FFF725FD01200021FFF765
:1028080021FDA2E07A68534B9A4208D102200121A7
:10281800FFF718FD02200021FFF714FD95E07A6804
:102828004D4B9A4208D104200121FFF70BFD0420EB
:102838000021FFF707FD88E07A68484B9A4208D1E3
:1028480008200121FFF7FEFC08200021FFF7FAFC11
:102858007BE07A68424B9A4208D110200121FFF7A9
:10286800F1FC10200021FFF7EDFC6EE07A683D4B8B
:102878009A4208D120200121FFF7E4FC2020002102
:10288800FFF7E0FC61E07A68374B9A4208D10220F2
:102898000121FFF70FFD02200021FFF70BFD54E097
:1028A8007A68324B9A420AD14FF480300121FFF7FF
:1028B80001FD4FF480300021FFF7FCFC45E07A6809
:1028C8002B4B9A420AD14FF400300121FFF7F2FC5A
:1028D8004FF400300021FFF7EDFC36E07A68254B15
:1028E8009A420AD14FF480200121FFF7E3FC4FF40C
:1028F80080200021FFF7DEFC27E07A681E4B9A4211
:1029080008D140200121FFF79DFC40200021FFF75E
:1029180099FC1AE07A68194B9A4208D18020012163
:10292800FFF790FC80200021FFF78CFC0DE07A680F
:10293800134B9A4209D14FF480700121FFF782FCB2
:102948004FF480700021FFF77DFC0837BD4680BD3D
:10295800000001400004004000080040000C004056
:1029680000100040001400400004014000400140F5
:10297800004401400048014000180040001C00408D
:1029880000200040E479000880B584B000AF78608A
:1029980039600023FB817A685D4B9A4238D07B68A6
:1029A800B3F1804F34D07A685A4B9A4230D07A6863
:1029B800594B9A422CD07A68584B9A4228D07A6858
:1029C800574B9A4224D07A68564B9A4220D07A685C
:1029D800554B9A421CD07A68544B9A4218D07A6860
:1029E800534B9A4214D07A68524B9A4210D07A6864
:1029F800514B9A420CD07A68504B9A4208D07A6868
:102A08004F4B9A4204D04F4840F21F11FDF704FD86
:102A18003B685B88002B14D03B685B88102B10D078
:102A28003B685B88202B0CD03B685B88402B08D028
:102A38003B685B88602B04D042484FF49071FDF7E7
:102A4800EBFC3B681B89002B0ED03B681B89B3F558
:102A5800807F09D03B681B89B3F5007F04D03948D3
:102A680040F22111FDF7D8FC7B681B88FB817A684E
:102A7800274B9A4213D07A682B4B9A420FD07B6827
:102A8800B3F1804F0BD07A68224B9A4207D07A680C
:102A9800214B9A4203D07A68204B9A4208D1FB898D
:102AA80023F07003FB813B685A88FB891343FB8141
:102AB8007A681B4B9A420CD07A681A4B9A4208D013
:102AC800FB8923F44073FB813B681A89FB89134314
:102AD800FB817B68FA891A803B685A687B68DA62EE
:102AE8003B681A887B681A857A68094B9A4203D032
:102AF8007A680D4B9A4204D13B689B7A1A467B68E8
:102B08001A867B6801229A821037BD4680BD00BFB5
:102B1800000001400004004000080040000C004094
:102B28000010004000140040000401400040014033
:102B3800004401400048014000180040001C0040CB
:102B480000200040E479000880B483B000AF7860CA
:102B58007B684FF0FF325A607B6800221A807B68DE
:102B680000221A817B6800225A807B6800229A72B0
:102B78000C37BD465DF8047B704700BF80B582B056
:102B880000AF786013460A467A803B807A68284B03
:102B98009A4238D07B68B3F1804F34D07A68254B9D
:102BA8009A4230D07A68244B9A422CD07A68234BC8
:102BB8009A4228D07A68224B9A4224D07A68214BCC
:102BC8009A4220D07A68204B9A421CD07A681F4BD0
:102BD8009A4218D07A681E4B9A4214D07A681D4BD4
:102BE8009A4210D07A681C4B9A420CD07A681B4BD8
:102BF8009A4208D07A681A4B9A4204D0194840F28F
:102C08006511FDF709FC3B88002B07D03B88012B99
:102C180004D014484FF4B371FDF7FEFB7B687A8843
:102C28001A857B683A889A820837BD4680BD00BFFE
:102C3800000001400004004000080040000C004073
:102C48000010004000140040000401400040014012
:102C5800004401400048014000180040001C0040AA
:102C680000200040E479000880B584B000AF7860A7
:102C78000B467B800023FB817A68204B9A4218D050
:102C88007B68B3F1804F14D07A681D4B9A4210D0FC
:102C98007A681C4B9A420CD07A681B4B9A4208D02F
:102CA8007A681A4B9A4204D019484FF4BF71FDF75D
:102CB800B3FB7B88002B10D07B88102B0DD07B8832
:102CC800202B0AD07B88402B07D07B88602B04D030
:102CD8000F4840F27F11FDF79FFB7B681B88FB8143
:102CE800FB8923F07003FB81FA897B881343FB81FE
:102CF8007B68FA891A801037BD4680BD0000014004
:102D08000004004000080040000C0040000401409E
:102D1800E479000880B582B000AF786039607A68DD
:102D2800204B9A4238D07B68B3F1804F34D07A6810
:102D38001D4B9A4230D07A681C4B9A422CD07A6844
:102D48001B4B9A4228D07A681A4B9A4224D07A6848
:102D5800194B9A4220D07A68184B9A421CD07A684C
:102D6800174B9A4218D07A68164B9A4214D07A6850
:102D7800154B9A4210D07A68144B9A420CD07A6854
:102D8800134B9A4208D07A68124B9A4204D01248E0
:102D98004FF4CB71FDF740FB7B683A685A620837FD
:102DA800BD4680BD0000014000040040000800400E
:102DB800000C0040001000400014004000040140D6
:102DC8000040014000440140004801400018004014
:102DD800001C004000200040E479000880B582B063
:102DE80000AF786039607A68204B9A4238D07B68A7
:102DF800B3F1804F34D07A681D4B9A4230D07A684C
:102E08001C4B9A422CD07A681B4B9A4228D07A687D
:102E18001A4B9A4224D07A68194B9A4220D07A6881
:102E2800184B9A421CD07A68174B9A4218D07A6885
:102E3800164B9A4214D07A68154B9A4210D07A6889
:102E4800144B9A420CD07A68134B9A4208D07A688D
:102E5800124B9A4204D0124840F2A511FDF7DCFA51
:102E68007B683A68DA620837BD4680BD00000140D9
:102E78000004004000080040000C00400010004022
:102E8800001400400004014000400140004401409B
:102E98000048014000180040001C0040002000408D
:102EA800E479000880B582B000AF78607A68214B79
:102EB8009A4238D07B68B3F1804F34D07A681E4B81
:102EC8009A4230D07A681D4B9A422CD07A681C4BB3
:102ED8009A4228D07A681B4B9A4224D07A681A4BB7
:102EE8009A4220D07A68194B9A421CD07A68184BBB
:102EF8009A4218D07A68174B9A4214D07A68164BBF
:102F08009A4210D07A68154B9A420CD07A68144BC2
:102F18009A4208D07A68134B9A4204D0124840F279
:102F2800B311FDF779FA7B685B6A18460837BD4626
:102F380080BD00BF000001400004004000080040C0
:102F4800000C004000100040001400400004014044
:102F58000040014000440140004801400018004082
:102F6800001C004000200040E479000880B582B0D1
:102F780000AF78607A68214B9A4238D07B68B3F109
:102F8800804F34D07A681E4B9A4230D07A681D4BF5
:102F98009A422CD07A681C4B9A4228D07A681B4BEC
:102FA8009A4224D07A681A4B9A4220D07A68194BF0
:102FB8009A421CD07A68184B9A4218D07A68174BF4
:102FC8009A4214D07A68164B9A4210D07A68154BF8
:102FD8009A420CD07A68144B9A4208D07A68134BFC
:102FE8009A4204D0124840F2C111FDF715FA7B68E5
:102FF8001B8D9BB218460837BD4680BD00000140B6
:103008000004004000080040000C00400010004090
:103018000014004000040140004001400044014009
:103028000048014000180040001C004000200040FB
:10303800E479000880B582B000AF78600B46FB7079
:103048007A682F4B9A4238D07B68B3F1804F34D0DE
:103058007A682C4B9A4230D07A682B4B9A422CD003
:103068007A682A4B9A4228D07A68294B9A4224D007
:103078007A68284B9A4220D07A68274B9A421CD00B
:103088007A68264B9A4218D07A68254B9A4214D00F
:103098007A68244B9A4210D07A68234B9A420CD013
:1030A8007A68224B9A4208D07A68214B9A4204D017
:1030B800204840F2D111FDF7AFF9FB78002B07D07B
:1030C800FB78012B04D01B484FF4E971FDF7A4F9F4
:1030D800FB78002B08D07B681B889BB243F0020367
:1030E8009AB27B681A8007E07B681B889BB223F042
:1030F80002039AB27B681A800837BD4680BD00BFBC
:10310800000001400004004000080040000C00409E
:10311800001000400014004000040140004001403D
:10312800004401400048014000180040001C0040D5
:1031380000200040E479000880B582B000AF7860D4
:103148000B467B807A682F4B9A4238D07B68B3F164
:10315800804F34D07A682C4B9A4230D07A682B4B07
:103168009A422CD07A682A4B9A4228D07A68294BFE
:103178009A4224D07A68284B9A4220D07A68274B02
:103188009A421CD07A68264B9A4218D07A68254B06
:103198009A4214D07A68244B9A4210D07A68234B0A
:1031A8009A420CD07A68224B9A4208D07A68214B0E
:1031B8009A4204D020484FF4F771FDF72DF97B8827
:1031C800002B07D07B88012B04D01B4840F2EF115D
:1031D800FDF722F97B88002B08D07B681B889BB2FF
:1031E80043F004039AB27B681A8007E07B681B8867
:1031F8009BB223F004039AB27B681A800837BD4655
:1032080080BD00BF000001400004004000080040ED
:10321800000C004000100040001400400004014071
:1032280000400140004401400048014000180040AF
:10323800001C004000200040E479000880B582B0FE
:1032480000AF78600B46FB707A682F4B9A4238D0F3
:103258007B68B3F1804F34D07A682C4B9A4230D0D7
:103268007A682B4B9A422CD07A682A4B9A4228D0FB
:103278007A68294B9A4224D07A68284B9A4220D0FF
:103288007A68274B9A421CD07A68264B9A4218D003
:103298007A68254B9A4214D07A68244B9A4210D007
:1032A8007A68234B9A420CD07A68224B9A4208D00B
:1032B8007A68214B9A4204D0204840F20721FDF752
:1032C800ABF8FB78002B07D0FB78012B04D01B4808
:1032D8004FF40271FDF7A0F8FB78002B08D07B684B
:1032E8001B889BB243F080039AB27B681A8007E080
:1032F8007B681B889BB223F080039AB27B681A8094
:103308000837BD4680BD00BF0000014000040040F2
:1033180000080040000C004000100040001400406D
:1033280000040140004001400044014000480140C1
:1033380000180040001C004000200040E47900080C
:1033480080B582B000AF78600B467B807A682D4BE1
:103358009A4238D07B68B3F1804F34D07A682A4BD0
:103368009A4230D07A68294B9A422CD07A68284BF6
:103378009A4228D07A68274B9A4224D07A68264BFA
:103388009A4220D07A68254B9A421CD07A68244BFE
:103398009A4218D07A68234B9A4214D07A68224B02
:1033A8009A4210D07A68214B9A420CD07A68204B06
:1033B8009A4208D07A681F4B9A4204D01E4840F2BD
:1033C8002221FDF729F87B88082B07D07B88002B62
:1033D80004D0194840F22321FDF71EF87B681B88AA
:1033E8009BB223F008039AB27B681A807B681B881B
:1033F8009AB27B8813439AB27B681A800837BD4615
:1034080080BD00BF000001400004004000080040EB
:10341800000C00400010004000140040000401406F
:1034280000400140004401400048014000180040AD
:10343800001C004000200040E479000880B582B0FC
:1034480000AF78600B467B807A682B4B9A4230D06D
:103458007B68B3F1804F2CD07A68284B9A4228D0E9
:103468007A68274B9A4224D07A68264B9A4220D011
:103478007A68254B9A421CD07A68244B9A4218D015
:103488007A68234B9A4214D07A68224B9A4210D019
:103498007A68214B9A420CD07A68204B9A4208D01D
:1034A8007A681F4B9A4204D01E4840F23921FCF733
:1034B800B3FF7B88002B0CD07B88B3F5807F08D0C6
:1034C8007B88B3F5007F04D0164840F23A21FCF718
:1034D800A3FF7B681B889BB223F440739AB27B6876
:1034E8001A807B681B889AB27B8813439AB27B68E0
:1034F8001A800837BD4680BD000001400004004026
:1035080000080040000C0040000401400040014059
:10351800004401400048014000180040001C0040E1
:1035280000200040E479000880B582B000AF7860E0
:103538000B46FB707A682F4B9A4238D07B68B3F100
:10354800804F34D07A682C4B9A4230D07A682B4B13
:103558009A422CD07A682A4B9A4228D07A68294B0A
:103568009A4224D07A68284B9A4220D07A68274B0E
:103578009A421CD07A68264B9A4218D07A68254B12
:103588009A4214D07A68244B9A4210D07A68234B16
:103598009A420CD07A68224B9A4208D07A68214B1A
:1035A8009A4204D0204840F24D21FCF735FFFB78C1
:1035B800002B07D0FB78012B04D01B4840F24E218A
:1035C800FCF72AFFFB78002B08D07B681B889BB28E
:1035D80043F001039AB27B681A8007E07B681B8876
:1035E8009BB223F001039AB27B681A800837BD4664
:1035F80080BD00BF000001400004004000080040FA
:10360800000C00400010004000140040000401407D
:1036180000400140004401400048014000180040BB
:10362800001C004000200040E479000880B584B008
:1036380000AF7860396000237B810023FB81002381
:10364800BB817A68844B9A4230D07B68B3F1804F53
:103658002CD07A68814B9A4228D07A68804B9A425B
:1036680024D07A687F4B9A4220D07A687E4B9A425F
:103678001CD07A687D4B9A4218D07A687C4B9A4263
:1036880014D07A687B4B9A4210D07A687A4B9A4267
:103698000CD07A68794B9A4208D07A68784B9A426B
:1036A80004D0784840F29E21FCF7B6FE3B681B88A0
:1036B800002B18D03B681B88102B14D03B681B8844
:1036C800202B10D03B681B88302B0CD03B681B8804
:1036D800602B08D03B681B88702B04D0694840F2E7
:1036E8009F21FCF799FE3B685B88002B08D03B685C
:1036F8005B88012B04D063484FF42871FCF78CFEDB
:103708003B689B89002B08D03B689B89022B04D01F
:103718005C4840F2A121FCF77FFE7B681B8C9BB2C2
:1037280023F001039AB27B681A847B681B8CFB81A7
:103738007B689B88BB817B681B8B7B817B8923F0A3
:1037480070037B817B8923F003037B813B681A88A4
:103758007B8913437B81FB8923F00203FB813B6850
:103768009A89FB891343FB813B685A88FB89134379
:10377800FB817A68384B9A4203D07A683A4B9A426E
:1037880059D13B689B88002B08D03B689B88042B49
:1037980004D03C4840F2BE21FCF73EFE3B68DB8982
:1037A800002B08D03B68DB89082B04D0354840F251
:1037B800BF21FCF731FE3B685B8AB3F5007F08D078
:1037C8003B685B8A002B04D02E484FF43071FCF71D
:1037D80023FE3B681B8AB3F5807F08D03B681B8AB1
:1037E800002B04D0274840F2C121FCF715FEFB89C5
:1037F80023F00803FB813B68DA89FB891343FB81CB
:10380800FB8923F00403FB813B689A88FB891343F7
:10381800FB81BB8923F48073BB81BB8923F40073CC
:10382800BB813B681A8ABB891343BB813B685A8AB0
:10383800BB891343BB817B68BA899A807B687A8984
:103848001A833B689A687B685A637B68FA891A848A
:103858001037BD4680BD00BF000001400004004095
:1038680000080040000C00400004014000400140F6
:10387800004401400048014000180040001C00407E
:1038880000200040E479000880B584B000AF78607B
:10389800396000237B810023FB810023BB817A6888
:1038A800834B9A4220D07B68B3F1804F1CD07A6852
:1038B800804B9A4218D07A687F4B9A4214D07A6823
:1038C8007E4B9A4210D07A687D4B9A420CD07A6827
:1038D8007C4B9A4208D07A687B4B9A4204D07B484A
:1038E80040F2EF21FCF798FD3B681B88002B18D0AD
:1038F8003B681B88102B14D03B681B88202B10D0EA
:103908003B681B88302B0CD03B681B88602B08D089
:103918003B681B88702B04D06C484FF43C71FCF753
:103928007BFD3B685B88002B08D03B685B88012BDC
:1039380004D0664840F2F121FCF76EFD3B689B8994
:10394800002B08D03B689B89022B04D05F4840F2CB
:10395800F221FCF761FD7B681B8C9BB223F01003FE
:103968009AB27B681A847B681B8CFB817B689B8876
:10397800BB817B681B8B7B817B8923F4E0437B8144
:103988007B8923F440737B813B681B881B029AB2B6
:103998007B8913437B81FB8923F02003FB813B68F0
:1039A8009B891B019AB2FB891343FB813B685B88A7
:1039B8001B019AB2FB891343FB817A683C4B9A42FC
:1039C80003D07A683E4B9A4261D13B689B88002BB2
:1039D80008D03B689B88042B04D03C484FF44471C2
:1039E800FCF71AFD3B68DB89002B08D03B68DB89B4
:1039F800082B04D0354840F21131FCF70DFD3B6827
:103A08005B8AB3F5007F08D03B685B8A002B04D043
:103A18002E4840F21231FCF7FFFC3B681B8AB3F5D5
:103A2800807F08D03B681B8A002B04D0274840F2CF
:103A38001331FCF7F1FCFB8923F08003FB813B6821
:103A4800DB891B019AB2FB891343FB81FB8923F0B5
:103A58004003FB813B689B881B019AB2FB89134397
:103A6800FB81BB8923F48063BB81BB8923F400639A
:103A7800BB813B681B8A9B009AB2BB891343BB81FD
:103A88003B685B8A9B009AB2BB891343BB817B6806
:103A9800BA899A807B687A891A833B689A687B68B6
:103AA8009A637B68FA891A841037BD4680BD00BFC7
:103AB800000001400004004000080040000C0040E5
:103AC800000401400040014000180040E47900086B
:103AD80080B584B000AF7860396000237B81002313
:103AE800FB810023BB817A687E4B9A4218D07B68A1
:103AF800B3F1804F14D07A687B4B9A4210D07A6821
:103B08007A4B9A420CD07A68794B9A4208D07A68F4
:103B1800784B9A4204D078484FF45071FCF77CFCFB
:103B28003B681B88002B18D03B681B88102B14D0CF
:103B38003B681B88202B10D03B681B88302B0CD08F
:103B48003B681B88602B08D03B681B88702B04D00F
:103B5800694840F24131FCF75FFC3B685B88002B09
:103B680008D03B685B88012B04D0634840F242319F
:103B7800FCF752FC3B689B89002B08D03B689B896B
:103B8800022B04D05C4840F24331FCF745FC7B68CB
:103B98001B8C9BB223F480739AB27B681A847B686F
:103BA8001B8CFB817B689B88BB817B689B8B7B81A3
:103BB8007B8923F070037B817B8923F003037B815E
:103BC8003B681A887B8913437B81FB8923F4007344
:103BD800FB813B689B891B029AB2FB891343FB81DB
:103BE8003B685B881B029AB2FB891343FB817A68A6
:103BF8003C4B9A4203D07A683E4B9A4261D13B686B
:103C08009B88002B08D03B689B88042B04D03A483B
:103C18004FF45871FCF700FC3B68DB89002B08D097
:103C28003B68DB89082B04D0334840F26131FCF74C
:103C3800F3FB3B685B8AB3F5007F08D03B685B8A7F
:103C4800002B04D02C4840F26231FCF7E5FB3B68BE
:103C58001B8AB3F5807F08D03B681B8A002B04D0F1
:103C6800254840F26331FCF7D7FBFB8923F4006356
:103C7800FB813B68DB891B029AB2FB891343FB81FA
:103C8800FB8923F48063FB813B689B881B029AB203
:103C9800FB891343FB81BB8923F48053BB81BB8918
:103CA80023F40053BB813B681B8A1B019AB2BB8972
:103CB8001343BB813B685B8A1B019AB2BB891343E0
:103CC800BB817B68BA899A807B687A899A833B68CA
:103CD8009A687B68DA637B68FA891A841037BD466C
:103CE80080BD00BF00000140000400400008004003
:103CF800000C004000040140E479000880B584B05D
:103D080000AF786039600023BB8100237B810023EA
:103D1800FB817A685A4B9A4218D07B68B3F1804F7E
:103D280014D07A68574B9A4210D07A68564B9A4208
:103D38000CD07A68554B9A4208D07A68544B9A420C
:103D480004D054484FF46471FCF766FB3B681B8849
:103D5800002B18D03B681B88102B14D03B681B889D
:103D6800202B10D03B681B88302B0CD03B681B885D
:103D7800602B08D03B681B88702B04D0454840F264
:103D88009131FCF749FB3B685B88002B08D03B6806
:103D98005B88012B04D03F4840F29231FCF73CFB92
:103DA8003B689B89002B08D03B689B89022B04D079
:103DB800384840F29331FCF72FFB7B681B8C9BB291
:103DC80023F480539AB27B681A847B681B8C7B81AE
:103DD8007B689B88FB817B689B8BBB81BB8923F4B9
:103DE800E043BB81BB8923F44073BB813B681B88DC
:103DF8001B029AB2BB891343BB817B8923F400530E
:103E08007B813B689B891B039AB27B8913437B8127
:103E18003B685B881B039AB27B8913437B817A6872
:103E2800174B9A4203D07A68194B9A4218D13B68CB
:103E38001B8AB3F5807F08D03B681B8A002B04D00F
:103E4800144840F2B131FCF7E7FAFB8923F48043C8
:103E5800FB813B681B8A9B019AB2FB891343FB8158
:103E68007B68FA899A807B68BA899A833B689A68E2
:103E78007B681A647B687A891A841037BD4680BDCE
:103E8800000001400004004000080040000C004011
:103E980000040140E479000880B483B000AF786082
:103EA8007B6800221A807B6800225A807B68002287
:103EB8009A807B6800229A607B6800229A817B68DE
:103EC8000022DA817B6800221A827B6800225A82EB
:103ED8000C37BD465DF8047B704700BF80B584B0E1
:103EE80000AF786013460A467A803B800023FB6067
:103EF80000237B817A68554B9A4230D07B68B3F1B6
:103F0800804F2CD07A68524B9A4228D07A68514B0D
:103F18009A4224D07A68504B9A4220D07A684F4B04
:103F28009A421CD07A684E4B9A4218D07A684D4B08
:103F38009A4214D07A684C4B9A4210D07A684B4B0C
:103F48009A420CD07A684A4B9A4208D07A68494B10
:103F58009A4204D048484FF47D71FCF75DFA7B889B
:103F6800002B0DD07B88042B0AD07B88082B07D028
:103F78007B880C2B04D0404840F2F531FCF74CFA12
:103F88003B88002B19D03B88102B16D03B88202B60
:103F980013D03B88302B10D03B88602B0DD03B884A
:103FA800702B0AD03B88502B07D03B88402B04D07D
:103FB800314840F2F631FCF72FFA7B68FB60FB686A
:103FC8001833FB607B88012202FA03F37B817B684C
:103FD8001B8C9AB27B89DB439BB213409AB27B68F5
:103FE8001A847B88002B02D07B88082B13D17B880E
:103FF8005B089BB2FA681344FB60FA68FB681968AF
:104008004FF68F730B401360FB68FA6811683A88A3
:104018000A431A6016E07B88043B9BB25B089BB29C
:10402800FA681344FB60FA68FB68196848F6FF737E
:104038000B401360FB68FA6811683A88120292B262
:104048000A431A601037BD4680BD00BF000001401A
:104058000004004000080040000C0040000401403B
:104068000040014000440140004801400018004061
:10407800001C004000200040E479000880B582B0B0
:1040880000AF786039607A681C4B9A4230D07B6800
:10409800B3F1804F2CD07A68194B9A4228D07A68AD
:1040A800184B9A4224D07A68174B9A4220D07A68E3
:1040B800164B9A421CD07A68154B9A4218D07A68E7
:1040C800144B9A4214D07A68134B9A4210D07A68EB
:1040D800124B9A420CD07A68114B9A4208D07A68EF
:1040E800104B9A4204D0104840F21F41FCF794F953
:1040F8007B683A685A630837BD4680BD00000140B6
:104108000004004000080040000C0040000401408A
:1041180000400140004401400048014000180040B0
:10412800001C004000200040E479000880B582B0FF
:1041380000AF786039607A68144B9A4220D07B6867
:10414800B3F1804F1CD07A68114B9A4218D07A6824
:10415800104B9A4214D07A680F4B9A4210D07A6862
:104168000E4B9A420CD07A680D4B9A4208D07A6866
:104178000C4B9A4204D00C4840F22F41FCF74CF902
:104188007B683A689A630837BD4680BD00000140E5
:104198000004004000080040000C004000040140FA
:1041A8000040014000180040E479000880B582B062
:1041B80000AF786039607A68104B9A4218D07B68F3
:1041C800B3F1804F14D07A680D4B9A4210D07A68B8
:1041D8000C4B9A420CD07A680B4B9A4208D07A68FA
:1041E8000A4B9A4204D00A4840F23E41FCF714F9BF
:1041F8007B683A68DA630837BD4680BD0000014035
:104208000004004000080040000C00400004014089
:10421800E479000880B582B000AF786039607A68C8
:10422800104B9A4218D07B68B3F1804F14D07A684B
:104238000D4B9A4210D07A680C4B9A420CD07A688F
:104248000B4B9A4208D07A680A4B9A4204D00A4823
:1042580040F24D41FCF7E0F87B683A681A64083789
:10426800BD4680BD00000140000400400008004039
:10427800000C004000040140E479000880B584B0D7
:1042880000AF78600B467B800023FB817A68284B5F
:104298009A4230D07B68B3F1804F2CD07A68254B96
:1042A8009A4228D07A68244B9A4224D07A68234BC1
:1042B8009A4220D07A68224B9A421CD07A68214BC5
:1042C8009A4218D07A68204B9A4214D07A681F4BC9
:1042D8009A4210D07A681E4B9A420CD07A681D4BCD
:1042E8009A4208D07A681C4B9A4204D01B4840F284
:1042F8006141FCF791F87B88502B07D07B88402BD5
:1043080004D0164840F26241FCF786F87B681B8BA4
:10431800FB81FB8923F07003FB81FA897B881343B7
:10432800FB817B68FA891A831037BD4680BD00BFC0
:10433800000001400004004000080040000C00405C
:104348000004014000400140004401400048014091
:1043580000180040001C004000200040E4790008DC
:1043680080B584B000AF78600B467B800023FB816A
:104378007A68214B9A4220D07B68B3F1804F1CD0D9
:104388007A681E4B9A4218D07A681D4B9A4214D00C
:104398007A681C4B9A4210D07A681B4B9A420CD010
:1043A8007A681A4B9A4208D07A68194B9A4204D014
:1043B800184840F27E41FCF72FF87B88502B07D035
:1043C8007B88402B04D0134840F27F41FCF724F847
:1043D8007B681B8BFB81FB8923F4E043FB817B8893
:1043E8001B029AB2FB891343FB817B68FA891A8303
:1043F8001037BD4680BD00BF0000014000040040EA
:1044080000080040000C004000040140004001404A
:1044180000180040E479000880B584B000AF7860E7
:104428000B467B800023FB817A681C4B9A4218D08C
:104438007B68B3F1804F14D07A68194B9A4210D038
:104448007A68184B9A420CD07A68174B9A4208D06F
:104458007A68164B9A4204D0154840F29A41FBF705
:10446800DBFF7B88502B07D07B88402B04D010487B
:1044780040F29B41FBF7D0FF7B689B8BFB81FB895C
:1044880023F07003FB81FA897B881343FB817B68E7
:10449800FA899A831037BD4680BD00BF00000140ED
:1044A8000004004000080040000C004000040140E7
:1044B800E479000880B584B000AF78600B467B8053
:1044C8000023FB817A681D4B9A4218D07B68B3F1B0
:1044D800804F14D07A681A4B9A4210D07A68194BD8
:1044E8009A420CD07A68184B9A4208D07A68174BCF
:1044F8009A4204D0164840F2B741FBF78DFF7B88FB
:10450800502B07D07B88402B04D011484FF497617B
:10451800FBF782FF7B689B8BFB81FB8923F4E043DD
:10452800FB817B881B029AB2FB891343FB817B6862
:10453800FA899A831037BD4680BD00BF000001404C
:104548000004004000080040000C00400004014046
:10455800E479000880B584B000AF78600B467B80B2
:104568000023FB817A68284B9A4230D07B68B3F1EC
:10457800804F2CD07A68254B9A4228D07A68244BF1
:104588009A4224D07A68234B9A4220D07A68224BE8
:104598009A421CD07A68214B9A4218D07A68204BEC
:1045A8009A4214D07A681F4B9A4210D07A681E4BF0
:1045B8009A420CD07A681D4B9A4208D07A681C4BF4
:1045C8009A4204D01B4840F2D341FBF725FF7B8871
:1045D800082B07D07B88002B04D0164840F2D44122
:1045E800FBF71AFF7B681B8BFB81FB8923F0080311
:1045F800FB81FA897B881343FB817B68FA891A83DC
:104608001037BD4680BD00BF0000014000040040D7
:1046180000080040000C0040000401400040014038
:10462800004401400048014000180040001C0040C0
:1046380000200040E479000880B584B000AF7860BD
:104648000B467B800023FB817A68214B9A4220D05D
:104658007B68B3F1804F1CD07A681E4B9A4218D001
:104668007A681D4B9A4214D07A681C4B9A4210D033
:104678007A681B4B9A420CD07A681A4B9A4208D037
:104688007A68194B9A4204D0184840F2F141FBF776
:10469800C3FE7B88082B07D07B88002B04D01348E7
:1046A80040F2F241FBF7B8FE7B681B8BFB81FB896C
:1046B80023F40063FB817B881B029AB2FB891343B6
:1046C800FB817B68FA891A831037BD4680BD00BF1D
:1046D800000001400004004000080040000C0040B9
:1046E800000401400040014000180040E47900083F
:1046F80080B584B000AF78600B467B800023FB81D7
:104708007A681C4B9A4218D07B68B3F1804F14D05A
:104718007A68194B9A4210D07A68184B9A420CD092
:104728007A68174B9A4208D07A68164B9A4204D096
:10473800154840F20E51FBF76FFE7B88082B07D017
:104748007B88002B04D0104840F20F51FBF764FE21
:104758007B689B8BFB81FB8923F00803FB81FA892B
:104768007B881343FB817B68FA899A831037BD469F
:1047780080BD00BF00000140000400400008004068
:10478800000C004000040140E479000880B584B0C2
:1047980000AF78600B467B800023FB817A681D4B55
:1047A8009A4218D07B68B3F1804F14D07A681A4BBC
:1047B8009A4210D07A68194B9A420CD07A68184BF2
:1047C8009A4208D07A68174B9A4204D0164840F2A9
:1047D8002B51FBF721FE7B88082B07D07B88002B09
:1047E80004D0114840F22C51FBF716FE7B689B8BD6
:1047F800FB81FB8923F40063FB817B881B029AB24F
:10480800FB891343FB817B68FA899A831037BD467D
:1048180080BD00BF000001400004004000080040C7
:10482800000C004000040140E479000880B584B021
:1048380000AF78600B467B800023FB817A68284BA9
:104848009A4230D07B68B3F1804F2CD07A68254BE0
:104858009A4228D07A68244B9A4224D07A68234B0B
:104868009A4220D07A68224B9A421CD07A68214B0F
:104878009A4218D07A68204B9A4214D07A681F4B13
:104888009A4210D07A681E4B9A420CD07A681D4B17
:104898009A4208D07A681C4B9A4204D01B484FF4BD
:1048A800A961FBF7B9FD7B88042B07D07B88002B17
:1048B80004D0164840F24951FBF7AEFD7B681B8BCC
:1048C800FB81FB8923F00403FB81FA897B8813436E
:1048D800FB817B68FA891A831037BD4680BD00BF0B
:1048E800000001400004004000080040000C0040A7
:1048F80000040140004001400044014000480140DC
:1049080000180040001C004000200040E479000826
:1049180080B584B000AF78600B467B800023FB81B4
:104928007A68214B9A4220D07B68B3F1804F1CD023
:104938007A681E4B9A4218D07A681D4B9A4214D056
:104948007A681C4B9A4210D07A681B4B9A420CD05A
:104958007A681A4B9A4208D07A68194B9A4204D05E
:10496800184840F26751FBF757FD7B88042B07D0A6
:104978007B88002B04D013484FF4AD61FBF74CFD46
:104988007B681B8BFB81FB8923F48063FB817B881D
:104998001B029AB2FB891343FB817B68FA891A834D
:1049A8001037BD4680BD00BF000001400004004034
:1049B80000080040000C0040000401400040014095
:1049C80000180040E479000880B584B000AF786032
:1049D8000B467B800023FB817A681C4B9A4218D0D7
:1049E8007B68B3F1804F14D07A68194B9A4210D083
:1049F8007A68184B9A420CD07A68174B9A4208D0BA
:104A08007A68164B9A4204D0154840F28551FBF754
:104A180003FD7B88042B07D07B88002B04D010482B
:104A280040F28651FBF7F8FC7B689B8BFB81FB8986
:104A380023F00403FB81FA897B881343FB817B689D
:104A4800FA899A831037BD4680BD00BF0000014037
:104A58000004004000080040000C00400004014031
:104A6800E479000880B584B000AF78600B467B809D
:104A78000023FB817A681D4B9A4218D07B68B3F1FA
:104A8800804F14D07A681A4B9A4210D07A68194B22
:104A98009A420CD07A68184B9A4208D07A68174B19
:104AA8009A4204D0164840F2A351FBF7B5FC7B8824
:104AB800042B07D07B88002B04D0114840F2A45166
:104AC800FBF7AAFC7B689B8BFB81FB8923F4806343
:104AD800FB817B881B029AB2FB891343FB817B68AD
:104AE800FA899A831037BD4680BD00BF0000014097
:104AF8000004004000080040000C00400004014091
:104B0800E479000880B584B000AF78600B467B80FC
:104B18000023FB817A68284B9A4230D07B68B3F136
:104B2800804F2CD07A68254B9A4228D07A68244B3B
:104B38009A4224D07A68234B9A4220D07A68224B32
:104B48009A421CD07A68214B9A4218D07A68204B36
:104B58009A4214D07A681F4B9A4210D07A681E4B3A
:104B68009A420CD07A681D4B9A4208D07A681C4B3E
:104B78009A4204D01B4840F2C151FBF74DFC7B8898
:104B8800802B07D07B88002B04D0164840F2C251F6
:104B9800FBF742FC7B681B8BFB81FB8923F08003BE
:104BA800FB81FA897B881343FB817B68FA891A8326
:104BB8001037BD4680BD00BF000001400004004022
:104BC80000080040000C0040000401400040014083
:104BD800004401400048014000180040001C00400B
:104BE80000200040E479000880B584B000AF786008
:104BF8000B467B800023FB817A68214B9A4220D0A8
:104C08007B68B3F1804F1CD07A681E4B9A4218D04B
:104C18007A681D4B9A4214D07A681C4B9A4210D07D
:104C28007A681B4B9A420CD07A681A4B9A4208D081
:104C38007A68194B9A4204D0184840F2DF51FBF7C2
:104C4800EBFB7B88802B07D07B88002B04D0134894
:104C58004FF4BC61FBF7E0FB7B681B8BFB81FB8996
:104C6800C3F30E03FB817B881B029AB2FB891343B3
:104C7800FB817B68FA891A831037BD4680BD00BF67
:104C8800000001400004004000080040000C004003
:104C9800000401400040014000180040E479000889
:104CA80080B584B000AF78600B467B800023FB8121
:104CB8007A681C4B9A4218D07B68B3F1804F14D0A5
:104CC8007A68194B9A4210D07A68184B9A420CD0DD
:104CD8007A68174B9A4208D07A68164B9A4204D0E1
:104CE800154840F2FC51FBF797FB7B88802B07D0D7
:104CF8007B88002B04D0104840F2FD51FBF78CFB59
:104D08007B689B8BFB81FB8923F08003FB81FA89FD
:104D18007B881343FB817B68FA899A831037BD46E9
:104D280080BD00BF000001400004004000080040B2
:104D3800000C004000040140E479000880B584B00C
:104D480000AF78600B467B800023FB817A681D4B9F
:104D58009A4218D07B68B3F1804F14D07A681A4B06
:104D68009A4210D07A68194B9A420CD07A68184B3C
:104D78009A4208D07A68174B9A4204D0164840F2F3
:104D88001961FBF749FB7B88802B07D07B88002BB8
:104D980004D0114840F21A61FBF73EFB7B689B8BFD
:104DA800FB81FB89C3F30E03FB817B881B029AB24C
:104DB800FB891343FB817B68FA899A831037BD46C8
:104DC80080BD00BF00000140000400400008004012
:104DD800000C004000040140E479000880B584B06C
:104DE80000AF78600B467B800023FB817A68284BF4
:104DF8009A4230D07B68B3F1804F2CD07A68254B2B
:104E08009A4228D07A68244B9A4224D07A68234B55
:104E18009A4220D07A68224B9A421CD07A68214B59
:104E28009A4218D07A68204B9A4214D07A681F4B5D
:104E38009A4210D07A681E4B9A420CD07A681D4B61
:104E48009A4208D07A681C4B9A4204D01B4840F218
:104E58003661FBF7E1FA7B88002B07D07B88022BB1
:104E680004D0164840F23761FBF7D6FA7B681B8CF2
:104E7800FB81FB8923F00203FB81FA897B881343BA
:104E8800FB817B68FA891A841037BD4680BD00BF54
:104E9800000001400004004000080040000C0040F1
:104EA8000004014000400140004401400048014026
:104EB80000180040001C004000200040E479000871
:104EC80080B584B000AF78600B467B800023FB81FF
:104ED8007A68144B9A4208D07A68134B9A4204D0E5
:104EE80012484FF4CA61FBF797FA7B88002B07D06A
:104EF8007B88082B04D00D4840F25161FBF78CFAEF
:104F08007B681B8CFB81FB8923F00803FB81FA89F2
:104F18007B881343FB817B68FA891A841037BD4666
:104F280080BD00BF0000014000040140E479000892
:104F380080B584B000AF78600B467B800023FB818E
:104F48007A68214B9A4220D07B68B3F1804F1CD0FD
:104F58007A681E4B9A4218D07A681D4B9A4214D030
:104F68007A681C4B9A4210D07A681B4B9A420CD034
:104F78007A681A4B9A4208D07A68194B9A4204D038
:104F8800184840F26C61FBF747FA7B88002B07D082
:104F98007B88022B04D0134840F26D61FBF73CFA82
:104FA8007B681B8CFB81FB8923F02003FB817B88BA
:104FB8001B019AB2FB891343FB817B68FA891A8427
:104FC8001037BD4680BD00BF00000140000400400E
:104FD80000080040000C004000040140004001406F
:104FE80000180040E479000880B584B000AF78600C
:104FF8000B467B800023FB817A68154B9A4208D0C8
:105008007A68144B9A4204D0134840F28761FBF740
:1050180003FA7B88002B07D07B88082B04D00E4826
:105028004FF4D161FBF7F8F97B681B8CFB81FB8996
:1050380023F08003FB817B881B019AB2FB89134311
:10504800FB817B68FA891A841037BD4680BD00BF92
:105058000000014000040140E479000880B584B0F4
:1050680000AF78600B467B800023FB817A681D4B7C
:105078009A4218D07B68B3F1804F14D07A681A4BE3
:105088009A4210D07A68194B9A420CD07A68184B19
:105098009A4208D07A68174B9A4204D0164840F2D0
:1050A800A261FBF7B9F97B88002B07D07B88022B1C
:1050B80004D0114840F2A361FBF7AEF97B681B8C62
:1050C800FB81FB8923F40073FB817B881B029AB266
:1050D800FB891343FB817B68FA891A841037BD4624
:1050E80080BD00BF000001400004004000080040EF
:1050F800000C004000040140E479000880B584B049
:1051080000AF78600B467B800023FB817A68154BE3
:105118009A4208D07A68144B9A4204D0134840F255
:10512800BD61FBF779F97B88002B07D07B88082BBA
:1051380004D00E4840F2BE61FBF76EF97B681B8C09
:10514800FB81FB8923F40063FB817B881B029AB2F5
:10515800FB891343FB817B68FA891A841037BD46A3
:1051680080BD00BF0000014000040140E479000850
:1051780080B584B000AF78600B467B800023FB814C
:105188007A681D4B9A4218D07B68B3F1804F14D0CF
:105198007A681A4B9A4210D07A68194B9A420CD006
:1051A8007A68184B9A4208D07A68174B9A4204D00A
:1051B80016484FF4DB61FBF72FF97B88002B07D0EB
:1051C8007B88022B04D0114840F2D961FBF724F9FF
:1051D8007B681B8CFB81FB8923F40053FB817B8854
:1051E8001B039AB2FB891343FB817B68FA891A84F3
:1051F8001037BD4680BD00BF0000014000040040DC
:1052080000080040000C004000040140E479000858
:1052180080B584B000AF786013460A467A803B8038
:105228000023FB817A68374B9A4230D07B68B3F110
:10523800804F2CD07A68344B9A4228D07A68334B06
:105248009A4224D07A68324B9A4220D07A68314BFD
:105258009A421CD07A68304B9A4218D07A682F4B01
:105268009A4214D07A682E4B9A4210D07A682D4B05
:105278009A420CD07A682C4B9A4208D07A682B4B09
:105288009A4204D02A4840F2F761FBF7C5F87B88B8
:10529800002B0DD07B88042B0AD07B88082B07D0E5
:1052A8007B880C2B04D022484FF4DF61FBF7B4F85D
:1052B8003B88012B07D03B88002B04D01C4840F2C8
:1052C800F961FBF7A9F87B88012202FA03F3FB8155
:1052D8007B681B8C9AB2FB89DB439BB213409AB262
:1052E8007B681A847B681B8C9AB239887B8801FAA0
:1052F80003F39BB213439AB27B681A841037BD46F6
:1053080080BD00BF000001400004004000080040CC
:10531800000C0040000401400040014000440140EE
:105328000048014000180040001C004000200040D8
:10533800E479000880B584B000AF786013460A4667
:105348007A803B800023FB817A68214B9A4208D0FF
:105358007A68204B9A4204D01F4840F21571FBF737
:105368005BF87B88002B0AD07B88042B07D07B88CE
:10537800082B04D0184840F21671FBF74DF83B880B
:10538800042B07D03B88002B04D0134840F2177138
:10539800FBF742F87B88042202FA03F3FB817B685F
:1053A8001B8C9AB2FB89DB439BB213409AB27B6891
:1053B8001A847B681B8C9AB239887B8801FA03F3BC
:1053C8009BB213439AB27B681A841037BD4680BDDE
:1053D8000000014000040140E479000880B582B073
:1053E80000AF786039607A68904B9A4230D07B6819
:1053F800B3F1804F2CD07A688D4B9A4228D07A68C6
:105408008C4B9A4224D07A688B4B9A4220D07A6887
:105418008A4B9A421CD07A68894B9A4218D07A688B
:10542800884B9A4214D07A68874B9A4210D07A688F
:10543800864B9A420CD07A68854B9A4208D07A6893
:10544800844B9A4204D0844840F26571FAF7E4FF2D
:105458003B685B88002B0CD03B685B88022B08D02C
:105468003B685B880A2B04D07B4840F26671FAF7E8
:10547800D3FF3B689B88012B0CD03B689B88022B91
:1054880008D03B689B88032B04D0734840F26771AF
:10549800FAF7C2FF3B68DB88002B10D03B68DB883B
:1054A800042B0CD03B68DB88082B08D03B68DB88D2
:1054B8000C2B04D068484FF4ED61FAF7ADFF3B6858
:1054C8001B890F2B04D9644840F26971FAF7A4FFCD
:1054D8003B681B88002B0FD13B6859883B689A882A
:1054E8003B681B89786801F065FF3B68DB88786852
:1054F800194600F05BFA95E03B681B88042B34D111
:105508007A684A4B9A4220D07B68B3F1804F1CD00E
:105518007A68474B9A4218D07A68464B9A4214D018
:105528007A68454B9A4210D07A68444B9A420CD01C
:105538007A68434B9A4208D07A68444B9A4204D01E
:10554800454840F27771FAF767FF3B6859883B682E
:105558009A883B681B89786801F068FF3B68DB889C
:105568007868194600F09AFA5CE03B681B88082BBB
:105578002CD17A682D4B9A4218D07B68B3F1804FB2
:1055880014D07A682A4B9A4210D07A68294B9A42EA
:105598000CD07A68284B9A4208D07A68274B9A42EE
:1055A80004D02D4840F28171FAF736FF3B685988DC
:1055B8003B689A883B681B89786801F07DFF3B68E7
:1055C800DB887868194600F0CBFA2BE07A68174B2D
:1055D8009A4218D07B68B3F1804F14D07A68144B84
:1055E8009A4210D07A68134B9A420CD07A68124BC0
:1055F8009A4208D07A68114B9A4204D0164840F271
:105608008B71FAF709FF3B6859883B689A883B68B1
:105618001B89786801F092FF3B68DB887868194637
:1056280000F0F2FA0837BD4680BD00BF0000014017
:105638000004004000080040000C00400004014045
:10564800004001400044014000480140001800406B
:10565800001C004000200040E479000880B483B0BA
:1056680000AF78607B6800221A807B6800225A802D
:105678007B6801229A807B680022DA807B6800229E
:105688001A810C37BD465DF8047B704780B584B03D
:1056980000AF786039600023FB810123BB817A6801
:1056A8003A4B9A4220D07B68B3F1804F1CD07A687D
:1056B800374B9A4218D07A68364B9A4214D07A6897
:1056C800354B9A4210D07A68344B9A420CD07A689B
:1056D800334B9A4208D07A68324B9A4204D0324807
:1056E80040F2B371FAF798FE3B685B88002B02D151
:1056F8000223FB8101E00023FB813B689B88012B8F
:1057080002D10223BB8101E00123BB813B681B88D6
:10571800002B1CD13B6859883B689A883B681B89D9
:10572800786801F047FE3B68DB887868194600F026
:105738003DF93B681B89F989BA89786801F076FEDA
:105748003B68DB887868194600F0A8F91BE03B68DD
:1057580059883B689A883B681B89786801F066FE1F
:105768003B68DB887868194600F098F93B681B8924
:10577800F989BA89786801F01DFE3B68DB8878688A
:10578800194600F013F91037BD4680BD00000140EE
:105798000004004000080040000C004000040140E4
:1057A8000040014000180040E479000880B582B04C
:1057B80000AF78607A681D4B9A4230D07B68B3F1AD
:1057C800804F2CD07A681A4B9A4228D07A68194BA5
:1057D8009A4224D07A68184B9A4220D07A68174B9C
:1057E8009A421CD07A68164B9A4218D07A68154BA0
:1057F8009A4214D07A68144B9A4210D07A68134BA4
:105808009A420CD07A68124B9A4208D07A68114BA7
:105818009A4204D0104840F2E971FAF7FDFD7B681E
:105828005B6B18460837BD4680BD00BF00000140CD
:105838000004004000080040000C00400004014043
:105848000040014000440140004801400018004069
:10585800001C004000200040E479000880B582B0B8
:1058680000AF78607A68154B9A4220D07B68B3F114
:10587800804F1CD07A68124B9A4218D07A68114B24
:105888009A4214D07A68104B9A4210D07A680F4B1B
:105898009A420CD07A680E4B9A4208D07A680D4B1F
:1058A8009A4204D00C484FF4FF61FAF7B5FD7B68C3
:1058B8009B6B18460837BD4680BD00BF00000140FD
:1058C8000004004000080040000C004000040140B3
:1058D8000040014000180040E479000880B582B01B
:1058E80000AF78607A68114B9A4218D07B68B3F1A0
:1058F800804F14D07A680E4B9A4210D07A680D4BBC
:105908009A420CD07A680C4B9A4208D07A680B4BB2
:105918009A4204D00A4840F60601FAF77DFD7B68F2
:10592800DB6B18460837BD4680BD00BF000001404C
:105938000004004000080040000C00400004014042
:10594800E479000880B582B000AF78607A68114BBE
:105958009A4218D07B68B3F1804F14D07A680E4B06
:105968009A4210D07A680D4B9A420CD07A680C4B48
:105978009A4208D07A680B4B9A4204D00A4840F6FB
:105988001401FAF749FD7B681B6C18460837BD46B9
:1059980080BD00BF00000140000400400008004036
:1059A800000C004000040140E479000880B582B092
:1059B80000AF78600B467B807A682C4B9A4230D0D7
:1059C8007B68B3F1804F2CD07A68294B9A4228D053
:1059D8007A68284B9A4224D07A68274B9A4220D07A
:1059E8007A68264B9A421CD07A68254B9A4218D07E
:1059F8007A68244B9A4214D07A68234B9A4210D082
:105A08007A68224B9A420CD07A68214B9A4208D085
:105A18007A68204B9A4204D01F4840F62801FAF7CA
:105A2800FBFC7B88002B0DD07B88042B0AD07B885D
:105A3800082B07D07B880C2B04D0174840F6290187
:105A4800FAF7EAFC7B681B8B9BB223F00C039AB233
:105A58007B681A837B681B8B9AB27B8813439AB244
:105A68007B681A830837BD4680BD00BF000001402F
:105A78000004004000080040000C00400004014001
:105A88000040014000440140004801400018004027
:105A9800001C004000200040E479000880B582B076
:105AA80000AF78600B467B807A68254B9A4220D0FD
:105AB8007B68B3F1804F1CD07A68224B9A4218D089
:105AC8007A68214B9A4214D07A68204B9A4210D0B7
