:020000040800F2
:10000000000002204934000899340008993400089F
:100010009934000899340008993400080000000061
:1000200000000000000000000000000099340008FB
:100030009934000800000000993400089934000841
:10004000993400089934000899340008993400085C
:10005000993400089934000899340008993400084C
:10006000993400089934000899340008993400083C
:10007000993400089934000899340008993400082C
:10008000993400089934000899340008993400081C
:10009000993400089934000899340008993400080C
:1000A00099340008993400089934000899340008FC
:1000B00099340008993400089934000899340008EC
:1000C00099340008993400089934000899340008DC
:1000D00099340008993400089934000899340008CC
:1000E00099340008993400089934000899340008BC
:1000F00099340008993400089934000899340008AC
:10010000993400089934000899340008993400089B
:10011000993400089934000899340008993400088B
:10012000993400089934000899340008993400087B
:10013000993400089934000899340008993400086B
:10014000993400089934000899340008993400085B
:10015000993400089934000899340008993400084B
:10016000993400089934000899340008993400083B
:10017000993400089934000899340008993400082B
:080180009934000899340008CD
:1001880010B5054C237833B9044B13B10448AFF3C9
:1001980000800123237010BD6004002000000000CF
:1001A8009037000808B5064B1BB106480649AFF35F
:1001B80000800648036813B1054B03B1984708BD92
:1001C8000000000090370008640400205C04002050
:1001D80000000000154B002B08BF134B9D46A3F5EC
:1001E800803A00218B460F461348144A121A03F02E
:1001F80089F90F4B002B00D098470E4B002B00D0ED
:1002080098470020002104000D000D48002802D066
:100218000C4803F043FA03F04DF92000290000F0E0
:100228005DF803F037F900BF000008000000000087
:10023800000000000000000060040020840400208A
:10024800A5360008B136000880B582B000AF40205E
:10025800012100F00FFF4FF4C0433B6001233B71C5
:1002680002237B710023BB710023FB713B460D48C1
:10027800194600F067FA0120012100F0FBFE012376
:100288003B6000233B7102237B710023BB71022377
:10029800FB713B460448194600F054FA0837BD463E
:1002A80080BD00BF001802400000024080B485B045
:1002B80000AF786008E05B23FB6000E000BFFB68EC
:1002C8005A1EFA60002BF9DC7B685A1E7A60002BF4
:1002D800F1DC1437BD465DF8047B704780B582B009
:1002E80000AFFFF7B1FF2D4B00221A6032E02C4B14
:1002F8001B6903F001037B602A4B1B68C3F12803C9
:100308001846FFF7D3FF7B68002B15D0264B4FF418
:1003180080421A83244B4FF400525A83214B1B68A6
:100328001846FFF7C3FF204B4FF480425A831E4BF9
:100338004FF400521A8308E01B4B4FF4C0425A8313
:10034800184B1B681846FFF7B1FF144B1B685A1C63
:10035800124B1A60114B1B683B2BC8DD114B1B68F5
:10036800282B03D1114B00221A6006E00D4B1B68A5
:10037800002B02D10D4B01221A600C4B1B68002B7D
:1003880005D0084B1B685A1C064B1A60ABE7054B97
:100398001B685A1E034B1A60A5E700BF80040020A3
:1003A800000002407C0400200018024004000020E5
:1003B80080B483B000AF78603960FEE780B500AFE5
:1003C800154B154AD2F8882042F47002C3F88820E9
:1003D800124B124A126842F001021A600F4B0022B7
:1003E8009A600E4A0D4B1B6823F0847323F4803304
:1003F80013600A4B0A4A5A60084B084A126822F4EA
:1004080080221A60054B0022DA6000F087F8024B60
:100418004FF000629A6080BD00ED00E000380240B5
:100428001030002480B487B000AF00233B61002364
:100438007B610223FB600023BB6002237B60324B9D
:100448009B6803F00C033B613B69042B07D0082B26
:1004580009D0002B3FD12D4B2D4A1A603FE02B4B82
:100468002C4A1A603BE0284B5B6803F480039B0D21
:10047800BB60254B5B6803F03F037B60BB68002BC8
:100488000DD0244A7B68B2FBF3F21F4B596847F63C
:10049800C0730B409B0903FB02F37B610CE01C4A11
:1004A8007B68B2FBF3F2184B596847F6C0730B40F0
:1004B8009B0903FB02F37B61134B5B6803F4403336
:1004C8001B0C01335B00FB607A69FB68B2FBF3F23B
:1004D8000E4B1A6003E00D4B0D4A1A6000BF0A4B21
:1004E8009B6803F0F0031B090B4AD35CDBB23B614A
:1004F800064B1A683B69DA40044B1A601C37BD4644
:100508005DF8047B704700BF0038024008000020F7
:100518000024F40000127A000C00002080B483B09C
:1005280000AF00237B6000233B60354B344A1268E0
:1005380042F480321A60324B1B6803F400333B608C
:100548007B6801337B603B68002B03D17B68B3F584
:10055800A06FF0D12A4B1B6803F40033002B02D0A4
:1005680001233B6001E000233B603B68012B42D143
:10057800234B234A126C42F080521A64214B214AC1
:10058800126842F480421A601D4B1D4A92689A60B4
:100598001B4B1B4A926842F400429A60184B184A57
:1005A800926842F4A0529A60154B174A5A60144B4D
:1005B800134A126842F080721A6000BF104B1B6821
:1005C80003F00073002BF9D0104B40F205621A605B
:1005D8000B4B0B4A926822F003029A60084B084AB8
:1005E800926842F002029A6000BF054B9B6803F0D4
:1005F8000C03082BF9D10C37BD465DF8047B704716
:10060800003802400070004019544007003C024086
:10061800C0370008000000205C04002060040020AF
:100628008404002080B582B000AF78607A683C4BC3
:100638009A4208D10120012100F0B2FD01200021D9
:1006480000F0AEFD68E07A68364B9A4208D1022085
:10065800012100F0A5FD0220002100F0A1FD5BE0D2
:100668007A68314B9A4208D10420012100F098FDA4
:100678000420002100F094FD4EE07A682B4B9A424A
:1006880008D10820012100F08BFD0820002100F08E
:1006980087FD41E07A68264B9A4208D11020012153
:1006A80000F07EFD1020002100F07AFD34E07A6829
:1006B800204B9A4208D12020012100F071FD202012
:1006C800002100F06DFD27E07A681B4B9A4208D1A3
:1006D8004020012100F064FD4020002100F060FD71
:1006E8001AE07A68154B9A4208D18020012100F05F
:1006F80057FD8020002100F053FD0DE07A68104B73
:100708009A4209D14FF48070012100F049FD4FF45D
:100718008070002100F044FD0837BD4680BD00BF51
:10072800000002400004024000080240000C0240A1
:10073800001002400014024000180240001C024051
:100748000020024080B487B000AF78603960002391
:100758007B6100233B610023FB6000237B6176E023
:100768007B69012202FA03F33B613B681A683B6923
:100778001340FB60FA683B699A4265D17B681A6846
:100788007B695B00032101FA03F3DB431A407B68B2
:100798001A607B681A683B681B7919467B695B009D
:1007A80001FA03F31A437B681A603B681B79012B33
:1007B80003D03B681B79022B2ED17B689A687B6932
:1007C8005B00032101FA03F3DB431A407B689A605C
:1007D8007B689A683B685B7919467B695B0001FA1C
:1007E80003F31A437B689A607B685A687B699BB2FB
:1007F800012101FA03F3DB431A407B685A607B68E6
:100808005A683B689B7919467B699BB201FA03F3E6
:100818009BB21A437B685A607B68DA687B699BB233
:100828005B00032101FA03F3DB431A407B68DA60BB
:100838007B68DA683B68DB7919467B695B0001FAFB
:1008480003F31A437B68DA607B6901337B617B6958
:100858000F2B85D91C37BD465DF8047B704700BF58
:1008680080B483B000AF78607B684FF6FF721A607F
:100878007B6800221A717B6800225A717B6800220B
:100888009A717B680022DA710C37BD465DF8047BEB
:10089800704700BF80B485B000AF78600B467B809E
:1008A8004FF48033FB607A88FB681343FB60FA6877
:1008B8007B68DA617A887B68DA61FA687B68DA6172
:1008C8007B68DB69FB607B68DB69FB601437BD46CE
:1008D8005DF8047B704700BF80B485B000AF7860D6
:1008E8000B467B800023FB737B681A697B88134067
:1008F800002B02D00123FB7301E00023FB73FB7B79
:1009080018461437BD465DF8047B704780B483B041
:1009180000AF78607B681B699BB218460C37BD46F0
:100928005DF8047B704700BF80B485B000AF786085
:100938000B467B800023FB737B685A697B881340D6
:10094800002B02D00123FB7301E00023FB73FB7B28
:1009580018461437BD465DF8047B704780B483B0F1
:1009680000AF78607B685B699BB218460C37BD4660
:100978005DF8047B704700BF80B483B000AF786037
:100988000B467B807B687A881A830C37BD465DF8F6
:10099800047B704780B483B000AF78600B467B80DF
:1009A8007B687A885A830C37BD465DF8047B7047AC
:1009B80080B483B000AF786013460A467A807B70B3
:1009C8007B78002B03D07B687A881A8302E07B68E7
:1009D8007A885A830C37BD465DF8047B704700BFA0
:1009E80080B483B000AF78600B467B807A887B68E0
:1009F8005A610C37BD465DF8047B704780B483B0FC
:100A080000AF78600B467B807B685A697B885A40C8
:100A18007B685A610C37BD465DF8047B704700BFA0
:100A280080B485B000AF786013460A467A807B7040
:100A38000023FB600023BB607A787B8803F0070300
:100A48009B0002FA03F3FB607B88DB089BB21A4623
:100A58007B88DB089BB219467B68083153F8211064
:100A68007B8803F007039B000F2000FA03F3DB43A6
:100A780019407B68083243F822107B88DB089BB258
:100A88001A467B68083253F82220FB681343BB6080
:100A98007B88DB089BB21A467B680832B96843F842
:100AA80022101437BD465DF8047B704780B400AF50
:100AB800104B104A126842F001021A600D4B0022D6
:100AC8009A600C4A0B4B1B6823F0847323F4803321
:100AD8001360084B084A5A60064B064A126822F40B
:100AE80080221A60034B0022DA60BD465DF8047B61
:100AF800704700BF003802401030002480B483B033
:100B080000AF0346FB71054B00221A70034BFA79BC
:100B18001A700C37BD465DF8047B704702380240F6
:100B280080B582B000AF00233B600023FB71002337
:100B3800BB71312000F084FC0346BB713B68013374
:100B48003B603B68B3F5A06F02D0BB79002BF0D0B7
:100B5800312000F075FC0346002B02D00123FB7105
:100B680001E00023FB71FB7918460837BD4680BDBC
:100B780080B485B000AF0346FB710023FB600A4BCD
:100B88001B68FB60FB6823F0F803FB60FB79DB0064
:100B9800FA681343FB60044BFA681A601437BD46C1
:100BA8005DF8047B704700BF0038024080B483B012
:100BB80000AF0346FB71044BFA791A600C37BD4647
:100BC8005DF8047B704700BF0000474280B483B0E3
:100BD80000AF0346FB710C4B00221A700A4B00222F
:100BE8001A70FB79012B02D0042B04D007E0064BC6
:100BF80001221A7003E0044B05221A7000BF0C375B
:100C0800BD465DF8047B70477038024080B483B0FD
:100C180000AF0346FB71044BFA791A600C37BD46E6
:100C28005DF8047B704700BF800E474280B485B0F2
:100C380000AFF860B9607A603B600A4B7A6891014E
:100C4800BA6811433A685208013A12041143FA6823
:100C58001143BA6912060A435A601437BD465DF853
:100C6800047B70470038024080B483B000AF03466D
:100C7800FB71044BFA791A600C37BD465DF8047BAA
:100C8800704700BF6000474280B483B000AF78600F
:100C98003960064B7A6891013A6812070A43C3F82B
:100CA80084200C37BD465DF8047B7047003802404D
:100CB80080B483B000AF0346FB71044BFA791A6025
:100CC8000C37BD465DF8047B704700BF680047429B
:100CD80080B483B000AF0346FB71044BFA791A6005
:100CE8000C37BD465DF8047B704700BF4C00474297
:100CF80080B485B000AF786039600023FB600A4B90
:100D08009B68FB60FB6823F0EC63FB607A683B68D8
:100D18001343FA681343FB60034BFA689A6014376D
:100D2800BD465DF8047B70470038024080B485B04A
:100D380000AF786039600023FB600A4B9B68FB605A
:100D4800FB6823F07843FB607A683B681343FA68D2
:100D58001343FB60034BFA689A601437BD465DF88D
:100D6800047B70470038024080B485B000AF7860DB
:100D78000023FB60094B9B68FB60FB6823F00303BF
:100D8800FB60FA687B681343FB60044BFA689A605F
:100D98001437BD465DF8047B704700BF0038024039
:100DA80080B400AF054B9B68DBB203F00C03DBB2E9
:100DB8001846BD465DF8047B704700BF0038024006
:100DC80080B485B000AF78600023FB60094B9B6856
:100DD800FB60FB6823F0F003FB60FA687B68134351
:100DE800FB60044BFA689A601437BD465DF8047BD3
:100DF800704700BF0038024080B485B000AF78600B
:100E08000023FB60094B9B68FB60FB6823F4E053FD
:100E1800FB60FA687B681343FB60044BFA689A60CE
:100E28001437BD465DF8047B704700BF00380240A8
:100E380080B485B000AF78600023FB60094B9B68E5
:100E4800FB60FB6823F46043FB607B68DB00FA68A7
:100E58001343FB60034BFA689A601437BD465DF88C
:100E6800047B70470038024080B489B000AF7860D6
:100E78000023BB6100237B610023FB6102233B61EC
:100E88000023FB600223BB60484B9B6803F00C0304
:100E9800BB61BB69042B07D0082B09D0002B3FD1BD
:100EA8007B68434A1A603FE07B68424A1A603BE02D
:100EB8003E4B5B6803F480039B0DFB603B4B5B6818
:100EC80003F03F03BB60FB68002B0DD0394ABB68B9
:100ED800B2FBF3F2354B596847F6C0730B409B09D8
:100EE80003FB02F3FB610CE0314ABB68B2FBF3F28F
:100EF8002E4B596847F6C0730B409B0903FB02F35E
:100F0800FB612A4B5B6803F440331B0C01335B0025
:100F18003B61FA693B69B2FBF3F27B681A6003E054
:100F28007B68234A1A6000BF204B9B6803F0F003DC
:100F3800BB61BB691B09BB611F4ABB6913441B78B2
:100F4800DBB27B617B681A687B69DA407B685A6030
:100F5800164B9B6803F4E053BB61BB699B0ABB61FA
:100F6800154ABB6913441B78DBB27B617B685A68FE
:100F78007B69DA407B689A600C4B9B6803F460439A
:100F8800BB61BB695B0BBB610B4ABB6913441B7834
:100F9800DBB27B617B685A687B69DA407B68DA6020
:100FA8002437BD465DF8047B704700BF0038024017
:100FB8000024F40000127A001C00002080B485B0E0
:100FC80000AF78600023FB607B6803F44073B3F5DF
:100FD800407F11D10F4B9B68FB60FB6823F4F8132B
:100FE800FB607B6823F0704323F44073FA68134373
:100FF800FB60084BFA689A60064B064A116F7A68DC
:10100800C2F30B020A431A671437BD465DF8047B26
:10101800704700BF0038024080B483B000AF034679
:10102800FB71044BFA791A600C37BD465DF8047BF6
:10103800704700BF3C0E474280B483B000AF034600
:10104800FB71044BFA791A600C37BD465DF8047BD6
:10105800704700BF400E474280B483B000AF78604D
:10106800034B7A681A600C37BD465DF8047B7047FD
:101078005C01474280B483B000AF78600B46FB70D8
:10108800FB78002B06D0094B084A116B7A680A4393
:101098001A6306E0054B054A116B7A68D2430A4089
:1010A8001A630C37BD465DF8047B70470038024070
:1010B80080B483B000AF78600B46FB70FB78002BE0
:1010C80006D0094B084A516B7A680A435A6306E00E
:1010D800054B054A516B7A68D2430A405A630C376C
:1010E800BD465DF8047B70470038024080B483B089
:1010F80000AF78600B46FB70FB78002B06D0094BDD
:10110800084A916B7A680A439A6306E0054B054AD8
:10111800916B7A68D2430A409A630C37BD465DF8F2
:10112800047B70470038024080B483B000AF786019
:101138000B46FB70FB78002B06D0094B084A116C54
:101148007A680A431A6406E0054B054A116C7A6806
:10115800D2430A401A640C37BD465DF8047B7047D9
:101168000038024080B483B000AF78600B46FB7053
:10117800FB78002B06D0094B084A516C7A680A4361
:101188005A6406E0054B054A516C7A68D2430A4016
:101198005A640C37BD465DF8047B7047003802403E
:1011A80080B483B000AF78600B46FB70FB78002BEF
:1011B80006D0094B084A11697A680A431A6106E0A1
:1011C800054B054A11697A68D2430A401A610C37FF
:1011D800BD465DF8047B70470038024080B483B098
:1011E80000AF78600B46FB70FB78002B06D0094BEC
:1011F800084A51697A680A435A6106E0054B054A6C
:1012080051697A68D2430A405A610C37BD465DF885
:10121800047B70470038024080B483B000AF786028
:101228000B46FB70FB78002B06D0094B084A9169E6
:101238007A680A439A6106E0054B054A91697A681B
:10124800D2430A409A610C37BD465DF8047B70476B
:101258000038024080B483B000AF78600B46FB7062
:10126800FB78002B06D0094B084A116A7A680A43B2
:101278001A6206E0054B054A116A7A68D2430A40A9
:101288001A620C37BD465DF8047B7047003802408F
:1012980080B483B000AF78600B46FB70FB78002BFE
:1012A80006D0094B084A516A7A680A435A6206E02E
:1012B800054B054A516A7A68D2430A405A620C378C
:1012C800BD465DF8047B70470038024080B483B0A7
:1012D80000AF78600B46FB70FB78002B06D0094BFB
:1012E800084A116D7A680A431A6506E0054B054AF3
:1012F800116D7A68D2430A401A650C37BD465DF80D
:10130800047B70470038024080B483B000AF786037
:101318000B46FB70FB78002B06D0094B084A516D31
:101328007A680A435A6506E0054B054A516D7A68A2
:10133800D2430A405A650C37BD465DF8047B7047B6
:101348000038024080B483B000AF78600B46FB7071
:10135800FB78002B06D0094B084A916D7A680A433E
:101368009A6506E0054B054A916D7A68D2430A40B2
:101378009A650C37BD465DF8047B7047003802401B
:1013880080B483B000AF78600B46FB70FB78002B0D
:1013980006D0094B084A116E7A680A431A6606E0B5
:1013A800054B054A116E7A68D2430A401A660C3713
:1013B800BD465DF8047B70470038024080B483B0B6
:1013C80000AF78600B46FB70FB78002B06D0094B0A
:1013D800084A516E7A680A435A6606E0054B054A80
:1013E800516E7A68D2430A405A660C37BD465DF89A
:1013F800047B70470038024080B483B000AF0246D7
:101408000B46FA71BB71BB79002B08D00B4B0B4A0A
:101418001278D1B2FA790A43D2B21A7009E0074BAE
:10142800064A1278D1B2FA79D243D2B20A40D2B27D
:101438001A700C37BD465DF8047B70470D380240C2
:1014480080B487B000AF0346FB710023FB60002324
:101458007B610023FB74FB795B09DBB2FB60FB68F3
:10146800012B03D1124B1B687B6109E0FB68022B3F
:1014780003D10F4B1B6F7B6102E00D4B5B6F7B61F0
:10148800FB7903F01F03FB60FB687A6922FA03F318
:1014980003F00103002B02D00123FB7401E00023B9
:1014A800FB74FB7C18461C37BD465DF8047B70470F
:1014B8000038024080B400AF044B044A526F42F037
:1014C80080725A67BD465DF8047B70470038024059
:1014D80080B485B000AF0346FB710023FB73094B52
:1014E800DA68FB791340002B02D00123FB7301E07B
:1014F8000023FB73FB7B18461437BD465DF8047B5D
:10150800704700BF0038024080B483B000AF034684
:10151800FB71044BFA791A700C37BD465DF8047BF1
:10152800704700BF0E38024080B582B000AF7860C7
:101538007A685F4B9A4208D101200121FFF7A8FE83
:1015480001200021FFF7A4FEAFE07B68B3F1804FD4
:1015580008D101200121FFF77DFE01200021FFF7BE
:1015680079FEA2E07A68534B9A4208D10220012101
:10157800FFF770FE02200021FFF76CFE95E07A6805
:101588004D4B9A4208D104200121FFF763FE042045
:101598000021FFF75FFE88E07A68484B9A4208D13D
:1015A80008200121FFF756FE08200021FFF752FE10
:1015B8007BE07A68424B9A4208D110200121FFF75C
:1015C80049FE10200021FFF745FE6EE07A683D4B8A
:1015D8009A4208D120200121FFF73CFE202000215B
:1015E800FFF738FE61E07A68374B9A4208D102204B
:1015F8000121FFF74DFE02200021FFF749FE54E0CC
:101608007A68324B9A420AD14FF480300121FFF7B1
:101618003FFE4FF480300021FFF73AFE45E07A683C
:101628002B4B9A420AD14FF400300121FFF730FECC
:101638004FF400300021FFF72BFE36E07A68254B87
:101648009A420AD14FF480200121FFF721FE4FF47E
:1016580080200021FFF71CFE27E07A681E4B9A4283
:1016680008D140200121FFF7F5FD40200021FFF7B8
:10167800F1FD1AE07A68194B9A4208D180200121BD
:10168800FFF7E8FD80200021FFF7E4FD0DE07A6810
:10169800134B9A4209D14FF480700121FFF7DAFD0C
:1016A8004FF480700021FFF7D5FD0837BD4680BD97
:1016B800000001400004004000080040000C004009
:1016C80000100040001400400004014000400140A8
:1016D800004401400048014000180040001C004040
:1016E8000020004080B485B000AF786039600023E6
:1016F800FB817B681B88FB817A68284B9A4213D050
:101708007A68274B9A420FD07B68B3F1804F0BD091
:101718007A68244B9A4207D07A68234B9A4203D0BE
:101728007A68224B9A4208D1FB8923F07003FB8127
:101738003B685A88FB891343FB817A681C4B9A42A1
:101748000CD07A681B4B9A4208D0FB8923F440736B
:10175800FB813B681A89FB891343FB817B68FA8903
:101768001A803B685A687B68DA623B681A887B682B
:101778001A857A68094B9A4203D07A68084B9A42CC
:1017880004D13B689B7A1A467B681A867B680122DB
:101798009A821437BD465DF8047B7047000001400B
:1017A800000401400004004000080040000C004014
:1017B800001000400014004080B483B000AF78608F
:1017C8007B684FF0FF325A607B6800221A807B6882
:1017D80000221A817B6800225A807B6800229A7254
:1017E8000C37BD465DF8047B704700BF80B483B0FA
:1017F80000AF786013460A467A803B807B687A8817
:101808001A857B683A889A820C37BD465DF8047B56
:10181800704700BF80B485B000AF78600B467B800E
:101828000023FB817B681B88FB81FB8923F0700305
:10183800FB81FA897B881343FB817B68FA891A80CC
:101848001437BD465DF8047B704700BF80B483B091
:1018580000AF786039607B683A685A620C37BD46D9
:101868005DF8047B704700BF80B483B000AF786038
:1018780039607B683A68DA620C37BD465DF8047BEC
:10188800704700BF80B483B000AF78607B685B6A44
:1018980018460C37BD465DF8047B704780B483B0AA
:1018A80000AF78607B681B8D9BB218460C37BD462D
:1018B8005DF8047B704700BF80B483B000AF7860E8
:1018C8000B46FB70FB78002B08D07B681B889BB20B
:1018D80043F002039AB27B681A8007E07B681B8892
:1018E8009BB223F002039AB27B681A800C37BD467C
:1018F8005DF8047B704700BF80B483B000AF7860A8
:101908000B467B807B88002B08D07B681B889BB2AA
:1019180043F004039AB27B681A8007E07B681B884F
:101928009BB223F004039AB27B681A800C37BD4639
:101938005DF8047B704700BF80B483B000AF786067
:101948000B46FB70FB78002B08D07B681B889BB28A
:1019580043F080039AB27B681A8007E07B681B8893
:101968009BB223F080039AB27B681A800C37BD467D
:101978005DF8047B704700BF80B483B000AF786027
:101988000B467B807B681B889BB223F008039AB2C6
:101998007B681A807B681B889AB27B8813439AB24B
:1019A8007B681A800C37BD465DF8047B704700BF22
:1019B80080B483B000AF78600B467B807B681B885F
:1019C8009BB223F440739AB27B681A807B681B88A9
:1019D8009AB27B8813439AB27B681A800C37BD464B
:1019E8005DF8047B704700BF80B483B000AF7860B7
:1019F8000B46FB70FB78002B08D07B681B889BB2DA
:101A080043F001039AB27B681A8007E07B681B8861
:101A18009BB223F001039AB27B681A800C37BD464B
:101A28005DF8047B704700BF80B485B000AF786074
:101A3800396000237B810023FB810023BB817B6805
:101A48001B8C9BB223F001039AB27B681A847B68D3
:101A58001B8CFB817B689B88BB817B681B8B7B8194
:101A68007B8923F070037B817B8923F003037B81CF
:101A78003B681A887B8913437B81FB8923F0020327
:101A8800FB813B689A89FB891343FB813B685A8831
:101A9800FB891343FB817A681E4B9A4203D07A680C
:101AA8001D4B9A4223D1FB8923F00803FB813B6835
:101AB800DA89FB891343FB81FB8923F00403FB814B
:101AC8003B689A88FB891343FB81BB8923F48073A5
:101AD800BB81BB8923F40073BB813B681A8ABB892D
:101AE8001343BB813B685A8ABB891343BB817B681C
:101AF800BA899A807B687A891A833B689A687B6876
:101B08005A637B68FA891A841437BD465DF8047BEA
:101B1800704700BF000001400004014080B485B058
:101B280000AF7860396000237B810023FB810023AC
:101B3800BB817B681B8C9BB223F010039AB27B6835
:101B48001A847B681B8CFB817B689B88BB817B68C4
:101B58001B8B7B817B8923F4E0437B817B8923F486
:101B680040737B813B681B881B029AB27B891343B5
:101B78007B81FB8923F02003FB813B689B891B0148
:101B88009AB2FB891343FB813B685B881B019AB2BD
:101B9800FB891343FB817A68224B9A4203D07A6807
:101BA800214B9A422BD1FB8923F08003FB813B68B0
:101BB800DB891B019AB2FB891343FB81FB8923F064
:101BC8004003FB813B689B881B019AB2FB89134346
:101BD800FB81BB8923F48063BB81BB8923F4006349
:101BE800BB813B681B8A9B009AB2BB891343BB81AC
:101BF8003B685B8A9B009AB2BB891343BB817B68B5
:101C0800BA899A807B687A891A833B689A687B6864
:101C18009A637B68FA891A841437BD465DF8047B99
:101C2800704700BF000001400004014080B485B047
:101C380000AF7860396000237B810023FB8100239B
:101C4800BB817B681B8C9BB223F480739AB27B6840
:101C58001A847B681B8CFB817B689B88BB817B68B3
:101C68009B8B7B817B8923F070037B817B8923F0AD
:101C780003037B813B681A887B8913437B81FB893B
:101C880023F40073FB813B689B891B029AB2FB8992
:101C98001343FB813B685B881B029AB2FB891343A1
:101CA800FB817A68224B9A4203D07A68214B9A4288
:101CB8002BD1FB8923F40063FB813B68DB891B0282
:101CC8009AB2FB891343FB81FB8923F48063FB8170
:101CD8003B689B881B029AB2FB891343FB81BB8933
:101CE80023F48053BB81BB8923F40053BB813B6839
:101CF8001B8A1B019AB2BB891343BB813B685B8A71
:101D08001B019AB2BB891343BB817B68BA899A804D
:101D18007B687A899A833B689A687B68DA637B6810
:101D2800FA891A841437BD465DF8047B704700BFF2
:101D3800000001400004014080B485B000AF786025
:101D480039600023BB8100237B810023FB817B68F2
:101D58001B8C9BB223F480539AB27B681A847B68ED
:101D68001B8C7B817B689B88FB817B689B8BBB8101
:101D7800BB8923F4E043BB81BB8923F44073BB8157
:101D88003B681B881B029AB2BB891343BB817B89C2
:101D980023F400537B813B689B891B039AB27B89A0
:101DA80013437B813B685B881B039AB27B8913438F
:101DB8007B817A68114B9A4203D07A68104B9A4219
:101DC8000AD1FB8923F48043FB813B681B8A9B0172
:101DD8009AB2FB891343FB817B68FA899A807B68F6
:101DE800BA899A833B689A687B681A647B687A899F
:101DF8001A841437BD465DF8047B70470000014023
:101E08000004014080B483B000AF78607B68002292
:101E18001A807B6800225A807B6800229A807B683F
:101E280000229A607B6800229A817B680022DA810E
:101E38007B6800221A827B6800225A820C37BD46D2
:101E48005DF8047B704700BF80B485B000AF786050
:101E580013460A467A803B800023FB6000237B817F
:101E68007B68FB60FB681833FB607B88012202FA01
:101E780003F37B817B681B8C9AB27B89DB439BB223
:101E880013409AB27B681A847B88002B02D07B8827
:101E9800082B13D17B885B089BB2FA681344FB605C
:101EA800FA68FB6819684FF68F730B401360FB687C
:101EB800FA6811683A880A431A6016E07B88043B7E
:101EC8009BB25B089BB2FA681344FB60FA68FB6834
:101ED800196848F6FF730B401360FB68FA681168CD
:101EE8003A88120292B20A431A601437BD465DF866
:101EF800047B704780B483B000AF786039607B683A
:101F08003A685A630C37BD465DF8047B704700BFDA
:101F180080B483B000AF786039607B683A689A63B0
:101F28000C37BD465DF8047B704700BF80B483B0B2
:101F380000AF786039607B683A68DA630C37BD4671
:101F48005DF8047B704700BF80B483B000AF786051
:101F580039607B683A681A640C37BD465DF8047BC3
:101F6800704700BF80B485B000AF78600B467B80B7
:101F78000023FB817B681B8BFB81FB8923F07003AB
:101F8800FB81FA897B881343FB817B68FA891A8372
:101F98001437BD465DF8047B704700BF80B485B038
:101FA80000AF78600B467B800023FB817B681B8B2E
:101FB800FB81FB8923F4E043FB817B881B029AB2F7
:101FC800FB891343FB817B68FA891A831437BD4662
:101FD8005DF8047B704700BF80B485B000AF7860BF
:101FE8000B467B800023FB817B689B8BFB81FB89F5
:101FF80023F07003FB81FA897B881343FB817B689C
:10200800FA899A831437BD465DF8047B704700BF90
:1020180080B485B000AF78600B467B800023FB81DD
:102028007B689B8BFB81FB8923F4E043FB817B88E6
:102038001B029AB2FB891343FB817B68FA899A8356
:102048001437BD465DF8047B704700BF80B485B087
:1020580000AF78600B467B800023FB817B681B8B7D
:10206800FB81FB8923F00803FB81FA897B881343F2
:10207800FB817B68FA891A831437BD465DF8047BB7
:10208800704700BF80B485B000AF78600B467B8096
:102098000023FB817B681B8BFB81FB8923F4006396
:1020A800FB817B881B029AB2FB891343FB817B6807
:1020B800FA891A831437BD465DF8047B704700BF60
:1020C80080B485B000AF78600B467B800023FB812D
:1020D8007B689B8BFB81FB8923F00803FB81FA89D2
:1020E8007B881343FB817B68FA899A831437BD4642
:1020F8005DF8047B704700BF80B485B000AF78609E
:102108000B467B800023FB817B689B8BFB81FB89D3
:1021180023F40063FB817B881B029AB2FB8913437B
:10212800FB817B68FA899A831437BD465DF8047B86
:10213800704700BF80B485B000AF78600B467B80E5
:102148000023FB817B681B8BFB81FB8923F0040345
:10215800FB81FA897B881343FB817B68FA891A83A0
:102168001437BD465DF8047B704700BF80B485B066
:1021780000AF78600B467B800023FB817B681B8B5C
:10218800FB81FB8923F48063FB817B881B029AB265
:10219800FB891343FB817B68FA891A831437BD4690
:1021A8005DF8047B704700BF80B485B000AF7860ED
:1021B8000B467B800023FB817B689B8BFB81FB8923
:1021C80023F00403FB81FA897B881343FB817B6836
:1021D800FA899A831437BD465DF8047B704700BFBF
:1021E80080B485B000AF78600B467B800023FB810C
:1021F8007B689B8BFB81FB8923F48063FB817B8855
:102208001B029AB2FB891343FB817B68FA899A8384
:102218001437BD465DF8047B704700BF80B485B0B5
:1022280000AF78600B467B800023FB817B681B8BAB
:10223800FB81FB8923F08003FB81FA897B881343A8
:10224800FB817B68FA891A831437BD465DF8047BE5
:10225800704700BF80B485B000AF78600B467B80C4
:102268000023FB817B681B8BFB81FB89C3F30E0377
:10227800FB817B881B029AB2FB891343FB817B6835
:10228800FA891A831437BD465DF8047B704700BF8E
:1022980080B485B000AF78600B467B800023FB815B
:1022A8007B689B8BFB81FB8923F08003FB81FA8988
:1022B8007B881343FB817B68FA899A831437BD4670
:1022C8005DF8047B704700BF80B485B000AF7860CC
:1022D8000B467B800023FB817B689B8BFB81FB8902
:1022E800C3F30E03FB817B881B029AB2FB8913435D
:1022F800FB817B68FA899A831437BD465DF8047BB5
:10230800704700BF80B485B000AF78600B467B8013
:102318000023FB817B681B8CFB81FB8923F0020374
:10232800FB81FA897B881343FB817B68FA891A84CD
:102338001437BD465DF8047B704700BF80B485B094
:1023480000AF78600B467B800023FB817B681B8C89
:10235800FB81FB8923F00803FB81FA897B881343FF
:10236800FB817B68FA891A841437BD465DF8047BC3
:10237800704700BF80B485B000AF78600B467B80A3
:102388000023FB817B681B8CFB81FB8923F02003E6
:10239800FB817B881B019AB2FB891343FB817B6815
:1023A800FA891A841437BD465DF8047B704700BF6C
:1023B80080B485B000AF78600B467B800023FB813A
:1023C8007B681B8CFB81FB8923F08003FB817B8866
:1023D8001B019AB2FB891343FB817B68FA891A8433
:1023E8001437BD465DF8047B704700BF80B485B0E4
:1023F80000AF78600B467B800023FB817B681B8CD9
:10240800FB81FB8923F40073FB817B881B029AB252
:10241800FB891343FB817B68FA891A841437BD460C
:102428005DF8047B704700BF80B485B000AF78606A
:102438000B467B800023FB817B681B8CFB81FB891F
:1024480023F40063FB817B881B029AB2FB89134348
:10245800FB817B68FA891A841437BD465DF8047BD2
:10246800704700BF80B485B000AF78600B467B80B2
:102478000023FB817B681B8CFB81FB8923F40053C1
:10248800FB817B881B039AB2FB891343FB817B6822
:10249800FA891A841437BD465DF8047B704700BF7B
:1024A80080B485B000AF786013460A467A803B80D6
:1024B8000023FB817B88012202FA03F3FB817B68FE
:1024C8001B8C9AB2FB89DB439BB213409AB27B68A0
:1024D8001A847B681B8C9AB239887B8801FA03F3CB
:1024E8009BB213439AB27B681A841437BD465DF8D1
:1024F800047B704780B485B000AF786013460A4605
:102508007A803B800023FB817B88042202FA03F354
:10251800FB817B681B8C9AB2FB89DB439BB213401F
:102528009AB27B681A847B681B8C9AB239887B883C
:1025380001FA03F39BB213439AB27B681A841437E7
:10254800BD465DF8047B704780B582B000AF786007
:1025580039603B681B88002B0FD13B6859883B6862
:102568009A883B681B89786800F092FC3B68DB8896
:102578007868194600F0E0F836E03B681B88042BC1
:102588000FD13B6859883B689A883B681B897868F3
:1025980000F0BAFC3B68DB887868194600F0E8F878
:1025A80022E03B681B88082B0FD13B6859883B68A1
:1025B8009A883B681B89786800F0ECFC3B68DB88EC
:1025C8007868194600F0F2F80EE03B6859883B68D5
:1025D8009A883B681B89786800F01EFD3B68DB8899
:1025E8007868194600F0FEF80837BD4680BD00BF80
:1025F80080B483B000AF78607B6800221A807B6863
:1026080000225A807B6801229A807B680022DA8047
:102618007B6800221A810C37BD465DF8047B704741
:1026280080B584B000AF786039600023FB81012356
:10263800BB813B685B88002B02D10223FB8101E050
:102648000023FB813B689B88012B02D10223BB81BD
:1026580001E00123BB813B681B88002B1CD13B6830
:1026680059883B689A883B681B89786800F010FC99
:102678003B68DB887868194600F05EF83B681B8980
:10268800F989BA89786800F03FFC3B68DB8878688C
:10269800194600F06DF81BE03B6859883B689A883A
:1026A8003B681B89786800F02FFC3B68DB887868FA
:1026B800194600F05DF83B681B89F989BA89786882
:1026C80000F0E6FB3B68DB887868194600F034F8D0
:1026D8001037BD4680BD00BF80B483B000AF7860BE
:1026E8007B685B6B18460C37BD465DF8047B70470A
:1026F80080B483B000AF78607B689B6B18460C375A
:10270800BD465DF8047B704780B483B000AF786045
:102718007B68DB6B18460C37BD465DF8047B704759
:1027280080B483B000AF78607B681B6C18460C37A8
:10273800BD465DF8047B704780B483B000AF786015
:102748000B467B807B681B8B9BB223F00C039AB2F1
:102758007B681A837B681B8B9AB27B8813439AB277
:102768007B681A830C37BD465DF8047B704700BF51
:1027780080B483B000AF78600B467B807B681B8B8E
:102788009BB223F440639AB27B681A837B681B8BE5
:102798009AB27B881B029BB213439AB27B681A8356
:1027A8000C37BD465DF8047B704700BF80B483B02A
:1027B80000AF78600B467B807B689B8B9BB223F0D5
:1027C8000C039AB27B689A837B689B8B9AB27B884E
:1027D80013439AB27B689A830C37BD465DF8047B35
:1027E800704700BF80B483B000AF78600B467B8031
:1027F8007B689B8B9BB223F440639AB27B689A8375
:102808007B689B8B9AB27B881B029BB213439AB25C
:102818007B689A830C37BD465DF8047B704700BF20
:1028280080B483B000AF786039603B681A883B6831
:102838005B8813439AB23B689B8813439AB23B6800
:10284800DB8813439AB23B681B8913439AB23B68EF
:102858005B8913439AB23B689B8913439AB27B689E
:10286800A3F844200C37BD465DF8047B704700BFD1
:1028780080B483B000AF78607B6800221A807B68E0
:1028880000225A807B6800229A807B680022DA80C6
:102898007B6800221A817B6800225A817B680022AB
:1028A8009A810C37BD465DF8047B704780B483B0CD
:1028B80000AF78600B46FB70FB78002B0CD07B6870
:1028C800B3F844309BB26FEA43436FEA53439AB27A
:1028D8007B68A3F8442009E07B68B3F844309BB2D6
:1028E800C3F30E039AB27B68A3F844200C37BD46A5
:1028F8005DF8047B704700BF80B483B000AF786098
:102908000B46FB70FB78002B08D07B689B889BB23A
:1029180043F004039AB27B689A8007E07B689B883F
:102928009BB223F004039AB27B689A800C37BD46A9
:102938005DF8047B704700BF80B483B000AF786057
:102948000B46FB70FB78002B08D07B689B889BB2FA
:1029580043F001039AB27B689A8007E07B689B8802
:102968009BB223F001039AB27B689A800C37BD466C
:102978005DF8047B704700BF80B483B000AF786017
:1029880013460A467A807B707B78002B08D07B68D8
:102998009B899AB27B8813439AB27B689A8109E033
:1029A8007B689B899AB27B88DB439BB213409AB2BF
:1029B8007B689A810C37BD465DF8047B704700BF81
:1029C80080B483B000AF78600B467B807B687A88E0
:1029D8009A820C37BD465DF8047B704780B485B099
:1029E80000AF78600B467B800023FB737B681B8AF3
:1029F8009AB27B8813409BB2002B02D00123FB7351
:102A080001E00023FB73FB7B18461437BD465DF8D5
:102A1800047B704780B483B000AF78600B467B803E
:102A28007B88DB439AB27B681A820C37BD465DF817
:102A3800047B704780B485B000AF78600B467B801C
:102A48000023FB730023BB8100237B817B681B8AE7
:102A58009AB27B881340BB817B689B899AB27B883A
:102A680013407B81BB89002B05D07B89002B02D0CA
:102A78000123FB7301E00023FB73FB7B184614372B
:102A8800BD465DF8047B704780B483B000AF7860C2
:102A98000B467B807B88DB439AB27B681A820C37B3
:102AA800BD465DF8047B704780B483B000AF7860A2
:102AB80013460A467A803B807A883B8813439AB249
:102AC8007B68A3F848200C37BD465DF8047B704747
:102AD80080B483B000AF786013460A467A807B7072
:102AE8007B78002B08D07B689B899AB27B8813433C
:102AF8009AB27B689A8109E07B689B899AB27B8845
:102B0800DB439BB213409AB27B689A810C37BD466F
:102B18005DF8047B704700BF80B483B000AF786075
:102B28000B46FB70FB78002B08D07B689B889BB218
:102B380043F008039AB27B689A8007E07B689B8819
:102B48009BB223F008039AB27B689A800C37BD4683
:102B58005DF8047B704700BF80B483B000AF786035
:102B68007B681B899BB223F007039AB27B681A81A2
:102B78000C37BD465DF8047B704700BF80B582B056
:102B880000AF78600B467B807B887868194600F038
:102B980075F87B681B899BB243F007039AB27B6880
:102BA8001A810837BD4680BD80B584B000AFF86093
:102BB80079813A81FB807B89602B07D13A89FB8830
:102BC800F8681146012200F09FF906E03A89FB886F
:102BD800F8681146012200F05BF97B89F86819460C
:102BE80000F04CF8FB681B899BB243F007039AB2CC
:102BF800FB681A811037BD4680BD00BF80B586B01E
:102C080000AFF86079813A81FB800023FB827989E3
:102C18003A89FB88F86800F0A1F8FB681B89FB82F9
:102C2800FB8A23F00703FB82FB8A43F00703FB823E
:102C3800FB8A23F07003FB82FB8A43F07003FB825C
:102C4800FB68FA8A1A811837BD4680BD80B584B002
:102C580000AFF86079813A81FB8079893A89FB88ED
:102C6800F86800F07BF8FB681B899BB243F480434B
:102C78009AB2FB681A811037BD4680BD80B485B012
:102C880000AF78600B467B800023FB817B681B8943
:102C9800FB81FB8923F07003FB81FA897B8813434E
:102CA800FB817B68FA891A811437BD465DF8047B7D
:102CB800704700BF80B483B000AF78600B467B805C
:102CC8007B689B889BB223F070039AB27B689A80DA
:102CD8007B689B889AB27B8813439AB27B689A80F8
:102CE8000C37BD465DF8047B704700BF80B483B0E5
:102CF80000AF78600B467B807B681B899BB223F012
:102D080007039AB27B681A817B681B899AB27B8811
:102D180013439AB27B681A810C37BD465DF8047B71
:102D2800704700BF80B483B000AF78600B467B80EB
:102D38007B681B899BB223F080039AB27B681A8157
:102D48007B681B899AB27B8813439AB27B681A8185
:102D58000C37BD465DF8047B704700BF80B487B070
:102D680000AFF86079813A81FB800023FB82FB6821
:102D78001B89FB82FB8ADBB2FB82FB881B029AB2AF
:102D88003B8913439AB27B8913439AB2FB8A134354
:102D9800FB82FB68FA8A1A811C37BD465DF8047B02
:102DA800704700BF80B487B000AFF86079813A817E
:102DB800FB800023FB820023BB8200237B82FB680D
:102DC8001B89FB82FB681B8BBB82FB681B8C7B828D
:102DD800FB8A23F00703FB82FA8A7B891343FB8271
:102DE800BB8A23F4407323F00303BB82BB8A43F4FA
:102DF800807343F00103BB827B8A23F022037B822A
:102E0800FB881B019AB23B8913439AB27B8A13430E
:102E18007B82FB68FA8A1A81FB68BA8A1A83FB6884
:102E28007A8A1A841C37BD465DF8047B704700BF58
:102E380080B483B000AF78600B46FB70FB78002B42
:102E480008D07B689B889BB243F080039AB27B686A
:102E58009A8007E07B689B889BB223F080039AB234
:102E68007B689A800C37BD465DF8047B704700BFCD
:102E780080B483B000AF78600B467B807B687A882B
:102E8800A3F850200C37BD465DF8047B704700BF9F
:102E980080B487B000AFF86079813A81FB80002365
:102EA800FB820023BB82FB681B8C9BB223F00103CF
:102EB8009AB2FB681A84FB681B8BFB82FB681B8C2D
:102EC800BB82FB8A23F0F303FB82FB881B019AB2C7
:102ED8003B8913439AB2FB8A1343FB82BB8A23F0D4
:102EE8000A03BB827A89BB8A13439BB243F001036E
:102EF800BB82FB68FA8A1A83FB68BA8A1A841C3771
:102F0800BD465DF8047B704780B487B000AFF860B9
:102F180079813A81FB800023FB820023BB82002356
:102F28007B82FB681B8C9BB223F010039AB2FB6870
:102F38001A84FB681B8BFB82FB681B8CBB827B891A
:102F48001B017B82FB8A23F440731B051B0DFB824C
:102F5800FB881B039AB2FB8A1343FB823B891B0243
:102F68009AB2FB8A1343FB82BB8A23F0A003BB827D
:102F78007A8ABB8A13439BB243F01003BB82FB6877
:102F8800FA8A1A83FB68BA8A1A841C37BD465DF828
:102F9800047B704780B487B000AFF86079813A81CC
:102FA800FB800023FB820023BB8200237B82FB681B
:102FB8001B8C9BB223F480739AB2FB681A84FB685B
:102FC8009B8BFB82FB681B8CBB827B891B027B82F1
:102FD800FB8A23F0F303FB82FB881B019AB23B892F
:102FE80013439AB2FB8A1343FB82BB8A23F4206300
:102FF800BB827A8ABB8A13439BB243F48073BB8239
:10300800FB68FA8A9A83FB68BA8A1A841C37BD4619
:103018005DF8047B704700BF80B487B000AFF860EC
:1030280079813A81FB800023FB820023BB82002345
:103038007B82FB681B8C9BB223F480539AB2FB689B
:103048001A84FB689B8BFB82FB681B8CBB827B8989
:103058001B037B82FB8A23F440731B051B0DFB8239
:103068003B891B029AB2FB8A1343FB82FB881B0332
:103078009AB2FB8A1343FB82BB8A23F400535B0496
:103088005B0CBB827A8ABB8A13439BB243F480539E
:10309800BB82FB68FA8A9A83FB68BA8A1A841C374F
:1030A800BD465DF8047B704780B400AF094B002231
:1030B8001A60084B00225A60064B00229A60054BA2
:1030C8000022DA60034B044A5A61BD465DF8047B6E
:1030D800704700BF003C0140FFFF7F0080B485B00F
:1030E80000AF78600023FB60324BFB607B689B7904
:1030F800002B4DD02F4B2F4A11687A681268D243A3
:103108000A401A602B4B2B4A51687A681268D243DE
:103118000A405A607B681B79FA681344FB60FB68B5
:10312800FA6811687A6812680A431A60214B214AC2
:1031380091687A681268D2430A409A601D4B1D4A0A
:10314800D1687A681268D2430A40DA607B685B7992
:10315800102B0ED1174B174A91687A6812680A43E8
:103168009A60144B134AD1687A6812680A43DA6085
:103178001BE0104BFB607B685B79FA681344FB60CB
:10318800FB68FA6811687A6812680A431A600CE0EA
:103198007B681B79FA681344FB60FB68FA6811685E
:1031A8007A681268D2430A401A601437BD465DF83F
:1031B800047B7047003C014080B483B000AF786066
:1031C8007B6800221A607B6800221A717B680C22D7
:1031D8005A717B6800229A710C37BD465DF8047BF2
:1031E800704700BF80B483B000AF7860054B054AD4
:1031F80011697A680A431A610C37BD465DF8047B89
:10320800704700BF003C014080B485B000AF7860D3
:103218000023FB73084B5A697B681340002B02D0CC
:103228000123FB7301E00023FB73FB7B1846143773
:10323800BD465DF8047B7047003C014080B483B014
:1032480000AF7860034B7A685A610C37BD465DF869
:10325800047B7047003C014080B485B000AF7860C3
:103268000023FB730023BB600C4B1A687B68134078
:10327800BB600A4B5A697B681340002B05D0BB68BA
:10328800002B02D00123FB7301E00023FB73FB7BBF
:1032980018461437BD465DF8047B7047003C014072
:1032A80080B483B000AF7860034B7A685A610C37FA
:1032B800BD465DF8047B7047003C014080B483B094
:1032C80000AF7860054A7B6843F0BF6343F400337E
:1032D800D3600C37BD465DF8047B704700ED00E015
:1032E80080B485B000AF78600023FB730023BB7304
:1032F8000F237B737B68DB78002B37D0254BDB688B
:10330800DB4303F4E0631B0AFB73FB7BC3F1040399
:10331800BB737A7BFB7B42FA03F37B737B685B7836
:103328001A46BB7B02FA03F3FB737B689A787B7BB4
:103338001340DAB2FB7B1343FB73FB7B1B01FB736C
:10334800154A7B681B781344FA7B83F80023124BD9
:103358007A6812785209D2B27968097801F01F01A7
:10336800012000FA01F143F822100EE00A4B7A68B6
:1033780012785209D2B27968097801F01F01012048
:1033880000FA01F1203243F822101437BD465DF8E7
:10339800047B704700ED00E000E100E080B483B0FA
:1033A80000AF78603960074A3B6823F0604323F038
:1033B8007F0379680B4393600C37BD465DF8047B47
:1033C800704700BF00ED00E080B483B000AF024654
:1033D8000B46FA71BB71BB79002B06D0094B094A21
:1033E8001169FA790A431A6106E0064B054A116920
:1033F800FA79D2430A401A610C37BD465DF8047B5E
:10340800704700BF00ED00E080B483B000AF786083
:103418007B68042B06D1094B084A126842F0040263
:103428001A6005E0054B054A126822F004021A608A
:103438000C37BD465DF8047B704700BF10E000E024
:10344800002100F004B80D4B5B58435004310C4880
:103458000C4B42189A42FFF4F6AF0B4A00F003B83F
:10346800002342F8043B094B9A42FFF4F9AFFCF7FA
:10347800A5FF00F01FF8FCF731FF7047C0370008C0
:10348800000000205C040020600400208404002068
:10349800FFF7FEBF08B50021044600F087F8044B8B
:1034A8001868C36B03B19847204600F07BF900BF4A
:1034B8008C37000870B50F4E0F4D761BB61007D02D
:1034C800043D0024013455F8043F9847A642F9D139
:1034D8000A4E0B4D761B00F059F9B61008D0043D82
:1034E8000024013455F8043F9847A642F9D170BD2D
:1034F80070BD00BFB4370008B4370008BC370008F7
:10350800B4370008F0B4840743D0541E002A3ED0D4
:10351800CDB2034603E0621E002C38D0144603F8EF
:10352800015B9A07F7D1032C2AD9CDB245EA0525C4
:103538000F2C45EA054515D9A4F110073F0903F1F9
:10354800100606EB07161A46156055609560D5609B
:103558001032B242F8D104F00F040137032C03EB08
:1035680007130DD91E462246043A032A46F8045B7F
:10357800FAD8221F22F003020432134404F0030491
:103588002CB1C9B21C4403F8011BA342FBD1F0BC07
:10359800704714460346C6E7024B13B1024800F0D1
:1035A8007DB8704700000000B13600082DE9F04FE3
:1035B800384B1B6885B003F5A472019302900F463F
:1035C8000392019BD3F84881B8F1000F1CD0DDF8B5
:1035D8000CB04FF00109DA46D8F804305C1E11D45B
:1035E80008F188059E1C05EB830508EB860677B174
:1035F800EB6FBB420BD0013C631CA5F10405A6F19F
:103608000406F4D1244A7ABB05B0BDE8F08FD8F897
:10361800042056F8043C013AA24216BF0022C8F81A
:10362800044046F8042C002BE5D0D8F88811D8F8C7
:1036380004B009FA04F20A4210D0D8F88C110A42F0
:103648000ED1029855F8041C9847D8F804305B4509
:10365800B7D1DAF800304345CDD0B2E79847F4E760
:1036680055F8040C9847F0E7D8F804306BB9D8F847
:10367800003063B14046CAF80030AFF30080DAF892
:103688000080B8F1000FA7D1BEE7D8F80030C246D5
:103698009846F6E78C370008000000000146002035
:1036A8000246034600F018B838B5094D094C641BAA
:1036B800A41018BF05EB840505D0013C55F8043D5E
:1036C8009847002CF9D1BDE8384000F065B800BF34
:1036D800BC370008C0370008F0B5274C2668D6F874
:1036E800484185B00746002C41D065681F2D1EDD76
:1036F800224818B94FF0FF3005B0F0BD4FF4C8703C
:10370800039102920193AFF300800399029A019BFF
:1037180004460028EED0D6F84851256000206060A5
:103728000546C6F84841C4F88801C4F88C013FB979
:10373800AB1C00200135656044F8231005B0F0BDCE
:1037480004EB85004FF0010CC0F88820D4F888619C
:103758000CFA05F21643022FC4F88861C0F8083144
:10376800E6D1D4F88C311A43C4F88C21E0E706F589
:10377800A674C6F84841B8E78C3700080000000076
:10378800430000003000002000000000F8B500BF32
:10379800F8BC08BC9E467047F8B500BFF8BC08BC2A
:0437A8009E46704782
:0837AC0030CAFF7F010000009C
:0837B400A1350008AD01000879
:0437BC008901000877
:1037C00000000000010000000095BA0A000000009F
:1037D00000000000010203040607080900000000C1
:1037E00001020304010203040607080900000000A7
:1037F000000000001C03002084030020EC030020D4
:1038000000000000000000000000000000000000B8
:1038100000000000000000000000000000000000A8
:1038200000000000883700080000000000000000D1
:103830000000000000000000000000000000000088
:103840000000000000000000000000000000000078
:103850000000000000000000000000000000000068
:103860000000000000000000000000000000000058
:103870000000000000000000000000000000000048
:103880000000000000000000000000000000000038
:103890000000000000000000010000000000000027
:1038A0000E33CDAB34126DE6ECDE05000B000000EC
:1038B0000000000000000000000000000000000008
:1038C00000000000000000000000000000000000F8
:1038D00000000000000000000000000000000000E8
:1038E00000000000000000000000000000000000D8
:0C3C100000000000000000003000002058
:043C1C0000000000A4
:040000050800344972
:00000001FF
