:020000040800F2
:1000000000000220854D0008D54D0008D54D0008A0
:10001000D54D0008D54D0008D54D00080000000062
:10002000000000000000000000000000D54D0008A6
:10003000D54D000800000000D54D0008D54D000842
:10004000D54D0008D54D0008D54D0008D54D000808
:10005000D54D0008D54D0008D54D0008D54D0008F8
:10006000D54D0008D54D0008D54D0008D54D0008E8
:10007000D54D0008D54D0008D54D0008D54D0008D8
:10008000D54D0008D54D0008D54D0008D54D0008C8
:10009000D54D0008D54D0008D54D0008D54D0008B8
:1000A000D54D0008D54D0008D54D0008D54D0008A8
:1000B000D54D0008D54D0008D54D0008D54D000898
:1000C000D54D0008D54D0008D54D0008D54D000888
:1000D000D54D0008D54D0008D54D0008D54D000878
:1000E000D54D0008D54D0008D54D0008D54D000868
:1000F000D54D0008D54D0008D54D0008D54D000858
:10010000D54D0008D54D0008D54D0008D54D000847
:10011000D54D0008D54D0008D54D0008D54D000837
:10012000D54D0008D54D0008D54D0008D54D000827
:10013000D54D0008D54D0008D54D0008D54D000817
:10014000D54D0008D54D0008D54D0008D54D000807
:10015000D54D0008D54D0008D54D0008D54D0008F7
:10016000D54D0008D54D0008D54D0008D54D0008E7
:10017000D54D0008D54D0008D54D0008D54D0008D7
:08018000D54D0008D54D000823
:1001880010B5054C237833B9044B13B10448AFF3C9
:1001980000800123237010BD5804002000000000D7
:1001A8000452000808B5064B1BB106480649AFF3D0
:1001B80000800648036813B1054B03B1984708BD92
:1001C80000000000045200085C04002054040020D1
:1001D80000000000154B002B08BF134B9D46A3F5EC
:1001E800803A00218B460F461348144A121A04F02D
:1001F80027FE0F4B002B00D098470E4B002B00D04A
:1002080098470020002104000D000D48002802D066
:100218000C4804F0E1FE04F0EBFD2000290004F096
:10022800DBFC04F0D5FD00BF000008000000000062
:1002380000000000000000005804002074040020A2
:10024800E14F0008ED4F0008FEE700BF394A3A4B7E
:10025800D2F88810394841F47001C2F8881019683A
:10026800002241F0010119609A60196821F0847137
:1002780021F4803119605860196882B021F4802116
:100288001960DA60009201921A6842F480321A60AA
:100298001A4603E0009BB3F5A06F09D0136803F476
:1002A80000330193009B01330093019B002BF1D095
:1002B800214B1B6813F4003318BF01230193019BE2
:1002C800012B05D01B4B4FF000629A6002B07047BB
:1002D800194B1B4A186C1B4940F080501864106871
:1002E80040F4804010609A689A609A6842F400422C
:1002F8009A609A6842F4A0529A6059601A6842F06B
:1003080080721A6019460B680B4A9B01FBD50E4B8D
:1003180040F205611960936823F0030393609368C2
:1003280043F002039360936803F00C03082BFAD19F
:10033800C8E700BF00ED00E000380240103000249C
:100348000070004019544007003C0240154B9A6861
:1003580002F00C02042A23D0082A09D0124A1149B3
:10036800124B8968C1F30311595CCA401A6170477E
:10037800586859685B6842024CBF0D4A0A4A01F046
:100388003F01C3F38813B2FBF1F202FB03F2054B02
:100398005B68C3F3014301335B00B2FBF3F2DEE7B2
:1003A800034ADCE7003802400024F400040000207F
:1003B80000127A0034520008000000205404002083
:1003C800580400207404002008B5424B98423BD0E2
:1003D80003F58063984241D003F58063984247D083
:1003E80003F5806398424DD003F58063984221D08D
:1003F80003F5806398424FD003F58063984255D047
:1004080003F5806398425BD003F58063984205D07A
:1004180031487B21BDE80840FFF716BF4FF48070D4
:10042800012100F093FF4FF480700021BDE80840DF
:1004380000F08CBF1020012100F088FF102000215F
:10044800BDE8084000F082BF0120014600F07EFFB1
:1004580001200021BDE8084000F078BF02200121FA
:1004680000F074FF02200021BDE8084000F06EBFD4
:100478000420012100F06AFF04200021BDE80840A3
:1004880000F064BF0820012100F060FF082000216F
:10049800BDE8084000F05ABF2020012100F056FFB7
:1004A80020200021BDE8084000F050BF4020012175
:1004B80000F04CFF40200021BDE8084000F046BF96
:1004C8008020012100F042FF80200021BDE8084083
:1004D80000F03CBF00000240C45000082DE9F84F6E
:1004E800504B98420546884623D003F580639842CE
:1004F8001FD003F5806398421BD003F580639842B0
:1005080017D003F58063984213D003F580639842AF
:100518000FD003F5806398420BD003F580639842AF
:1005280007D003F58063984203D03F48BB21FFF70B
:100538008BFED8F80030002B6ED098F80430032BCF
:1005480065D898F80730022B5CD8002634464FF05F
:1005580001094FF0030B04E00134102C06F10206E8
:1005680027D0D8F8007009FA04F31F409F42F3D14E
:100578002A6898F804300BFA06FA6FEA0A0A0AEAB7
:1005880002022A602A6803FA06F1013B0A43012B9A
:100598002A6010D9EA6898F807300AEA0202EA6085
:1005A800EA68B34001341343102CEB6006F10206ED
:1005B800D7D1BDE8F88F98F80520032A1BD8A96879
:1005C80098F8063018480AEA0101A960A968B240FB
:1005D8000A43012BAA6004D9D721FFF735FE98F802
:1005E80006306A6822EA07076F606A68A3409BB210
:1005F80013436B60CEE70C48D021FFF725FE98F82F
:100608000520DCE70848BE21FFF71EFE9DE70648E7
:10061800BD21FFF719FE94E70348BC21FFF714FE3C
:100628008BE700BF00000240C450000800234FF6CB
:10063800FF720260037143718371C371704700BF19
:1006480030B5214B83B04FF48032984204460D46B2
:10065800019224D003F58063984220D003F580638B
:1006680098421CD003F58063984218D003F5806344
:10067800984214D003F58063984210D003F5806344
:1006880098420CD003F58063984208D003F5806344
:10069800984204D00D484FF48271FFF7D5FD25B973
:1006A8000A4840F20511FFF7CFFD019B2B43019348
:1006B800019BE361E561019BE361E3690193E36900
:1006C800019303B030BD00BF00000240C4500008D1
:1006D80038B52E4B984204460D4624D003F5806366
:1006E800984220D003F5806398421CD003F58063BC
:1006F800984218D003F58063984214D003F58063BC
:10070800984210D003F5806398420CD003F58063BB
:10071800984208D003F58063984204D01C484FF4EF
:100728009871FFF791FD6B1E012B28D9042D26D057
:10073800082D24D0102D22D0202D20D0402D1ED0C1
:10074800802D1CD0B5F5807F19D0B5F5007F16D067
:10075800B5F5806F13D0B5F5006F10D0B5F5805F93
:100768000DD0B5F5005F0AD0B5F5804F07D0B5F5C7
:10077800004F04D0064840F23111FFF765FD2369A8
:100788001D420CBF0020012038BD00BF0000024000
:10079800C4500008164B984210B5044624D003F5FF
:1007A8008063984220D003F5806398421CD003F5FB
:1007B8008063984218D003F58063984214D003F5FB
:1007C8008063984210D003F5806398420CD003F5FB
:1007D8008063984208D003F58063984204D00548A6
:1007E8004FF4A371FFF730FD206980B210BD00BF40
:1007F80000000240C450000838B52E4B9842044609
:100808000D4624D003F58063984220D003F5806319
:1008180098421CD003F58063984218D003F5806392
:10082800984214D003F58063984210D003F5806392
:1008380098420CD003F58063984208D003F5806392
:10084800984204D01C4840F25711FFF7FDFC6B1E7C
:10085800012B28D9042D26D0082D24D0102D22D0E4
:10086800202D20D0402D1ED0802D1CD0B5F5807FA6
:1008780019D0B5F5007F16D0B5F5806F13D0B5F552
:10088800006F10D0B5F5805F0DD0B5F5005F0AD0C8
:10089800B5F5804F07D0B5F5004F04D006484FF4A2
:1008A800AC71FFF7D1FC63691D420CBF0020012029
:1008B80038BD00BF00000240C4500008164B9842E3
:1008C80010B5044624D003F58063984220D003F580
:1008D800806398421CD003F58063984218D003F5D2
:1008E8008063984214D003F58063984210D003F5D2
:1008F800806398420CD003F58063984208D003F5D2
:100908008063984204D0054840F26D11FFF79CFCC3
:10091800606980B210BD00BF00000240C4500008EA
:1009280038B5194B984204460D4624D003F5806328
:10093800984220D003F5806398421CD003F5806369
:10094800984218D003F58063984214D003F5806369
:10095800984210D003F5806398420CD003F5806369
:10096800984208D003F58063984204D0074840F2C3
:100978007F11FFF769FC25B904484FF4C071FFF7F0
:1009880063FC258338BD00BF00000240C450000846
:1009980038B5194B984204460D4624D003F58063B8
:1009A800984220D003F5806398421CD003F58063F9
:1009B800984218D003F58063984214D003F58063F9
:1009C800984210D003F5806398420CD003F58063F9
:1009D800984208D003F58063984204D007484FF442
:1009E800C971FFF731FC25B9044840F29311FFF7AC
:1009F8002BFC658338BD00BF00000240C4500008CE
:100A080030B5354B984283B004460D4626D003F5E1
:100A18008063984222D003F5806398421ED003F584
:100A2800806398421AD003F58063984216D003F584
:100A38008063984212D003F5806398420ED003F584
:100A4800806398420AD003F58063984206D0234811
:100A580001924FF4D371FFF7F7FB019A6B1E012B3C
:100A68002AD9042D28D0082D26D0102D24D0202DA9
:100A780022D0402D20D0802D1ED0B5F5807F1BD0F0
:100A8800B5F5007F18D0B5F5806F15D0B5F5006FB6
:100A980012D0B5F5805F0FD0B5F5005F0CD0B5F575
:100AA800804F09D0B5F5004F06D00C48019240F2AE
:100AB800A711FFF7C9FB019A012A07D907484FF484
:100AC800D471FFF7C1FB258303B030BD002AFAD1EA
:100AD800658303B030BD00BF00000240C450000869
:100AE80038B5164B984204460D4624D003F580636A
:100AF800984220D003F5806398421CD003F58063A8
:100B0800984218D003F58063984214D003F58063A7
:100B1800984210D003F5806398420CD003F58063A7
:100B2800984208D003F58063984204D0044840F204
:100B3800BD11FFF789FB656138BD00BF00000240A9
:100B4800C450000838B5174B984204460D4624D0C7
:100B580003F58063984220D003F5806398421CD047
:100B680003F58063984218D003F58063984214D047
:100B780003F58063984210D003F5806398420CD047
:100B880003F58063984208D003F58063984204D047
:100B9800054840F2CB11FFF757FB63695D4065617B
:100BA80038BD00BF00000240C4500008274B9842DF
:100BB80070B504460D46164624D003F58063984266
:100BC80020D003F5806398421CD003F580639842D7
:100BD80018D003F58063984214D003F580639842D7
:100BE80010D003F5806398420CD003F580639842D7
:100BF80008D003F58063984204D0154840F21721C5
:100C0800FFF722FB0F2D1AD80D2E06D90F2E04D070
:100C18000F4840F21921FFF717FBEB0804EB830498
:100C280005F00705226AAD000F23AB4022EA030353
:100C38002362236A06FA05F51D43256270BD044840
:100C48004FF40671FFF700FBDEE700BF000002402B
:100C5800C45000080A4B0B481A68002142F00102F0
:100C68001A6099601A6822F0847222F480321A603D
:100C780058601A6822F480221A60D960704700BF51
:100C88000038024010300024012810B5044605D968
:100C9800052803D00448F021FFF7D6FA034B0022B9
:100CA8001A701C7010BD00BF2C5100080238024099
:100CB8001F2810B5044604D906484FF49471FFF76D
:100CC800C3FA054B1A6822F0F80242EAC4041C6011
:100CD80010BD00BF2C51000800380240012810B593
:100CE800044604D9034840F24B11FFF7ADFA024B12
:100CF8001C6010BD2C51000800004742012810B5A7
:100D0800044606D904280DD00B484FF4B271FFF7FA
:100D18009BFA0A4B0022012C1A701A700AD0042C74
:100D280004D010BD054B00221A701A70034B05221F
:100D38001A7010BD1C7010BD2C510008703802408C
:100D4800012810B5044604D903484FF4C671FFF7CB
:100D58007BFA024B1C6010BD2C510008800E4742E4
:100D68002DE9F0411C4630F4800306460F469046B4
:100D7800069D04D01C4840F2B711FFF765FA3F2FD3
:100D88002BD8A8F1C003F02B21D824F00403022BA0
:100D980008D0042C06D0082C04D013484FF4DD7179
:100DA800FFF752FA2B1F0B2B04D90F4840F2BB1147
:100DB800FFF74AFA47EA8817640847EA0565013CDD
:100DC80045EA0445094B2E435E60BDE8F0810648BC
:100DD80040F2B911FFF738FAD7E703484FF4DC714E
:100DE800FFF732FACDE700BF2C5100080038024067
:100DF800012810B5044604D903484FF4E771FFF7FA
:100E080023FA024B1C6010BD2C51000860004742B9
:100E180038B5A0F1C003F02B04460D460ED8AB1E22
:100E2800052B04D9084840F2E911FFF70DFA2D0700
:100E3800064B45EA8414C3F8844038BD02484FF491
:100E4800F471FFF701FAEAE72C5100080038024074
:100E5800012810B5044604D9034840F2F711FFF7FA
:100E6800F3F9024B1C6010BD2C5100086800474282
:100E7800012810B5044604D9034840F20921FFF7B8
:100E8800E3F9024B1C6010BD2C5100084C0047428E
:100E980038B530F4C00305460C4604D00E484FF46C
:100EA8000971FFF7D1F934F080630CD024F0007396
:100EB800B3F1A06F07D0B4F1C06F04D0064840F278
:100EC8002521FFF7C1F9054B9A6822F0EC6214431B
:100ED80025439D6038BD00BF2C51000800380240F2
:100EE80038B520F0404305460C4623B10E4840F281
:100EF8004A21FFF7A9F934F000530CD024F08053AD
:100F0800B3F1205F07D0B4F1405F04D0064840F247
:100F18004B21FFF799F9054B9A6822F07842144360
:100F280025439D6038BD00BF2C51000800380240A1
:100F3800022810B5044604D905484FF42D71FFF76F
:100F480083F9044B9A6822F0030214439C6010BD95
:100F58002C51000800380240024B986800F00C0041
:100F6800704700BF0038024030F0800310B50446D7
:100F780012D020F02003902B0ED020F04003A02B9D
:100F88000AD020F01003C02B06D0F02804D0064861
:100F980040F2E921FFF758F9044B9A6822F0F00271
:100FA80014439C6010BD00BF2C510008003802405B
:100FB80030F4805310B504460CD020F40063B3F528
:100FC800A05F07D0B0F5C05F04D0064840F20931F1
:100FD800FFF73AF9044B9A6822F4E05214439C60F4
:100FE80010BD00BF2C5100080038024030F4805377
:100FF80010B504460CD020F40063B3F5A05F07D009
:10100800B0F5C05F04D006484FF44A71FFF71CF9E9
:10101800044B9A6822F4604242EAC4049C6010BD02
:101028002C510008003802401F4A936803F00C0353
:10103800042B10B41BD0082B1CD01C4B03601A497E
:101048001B4A8C68C4F30314145DE34043608C6846
:10105800C4F38224145D23FA04F4846089685DF87B
:10106800044BC1F34231525CD340C3607047114B0B
:101078000360E4E754685168526863024CBF0D4B43
:101088000A4B01F03F01C2F38812B3FBF1F303FBF3
:1010980002F3054A5268C2F3014201325200B3FB1F
:1010A800F2F30360CBE700BF003802400024F400ED
:1010B8001800002000127A00B0F5807F10B50446B1
:1010C80032D0B0F5007F2FD0204B20F4A0229A42D6
:1010D80020F480312FD01E4B20F410229A422AD0BF
:1010E8001C4A20F44033934225D002F5C02220F454
:1010F800881090421FD002F5003293421BD002F5AF
:101108008022934217D002F58022934213D0124BCB
:10111800994210D0114840F2D931FFF795F804F4FC
:101128004073B3F5407F06D00D4B1A6FC4F30B0420
:1011380014431C6710BD0A4A916824F0704321F4D7
:10114800F81123F440730B439360EDE700030200AA
:10115800000304000003080000031C002C510008D1
:1011680000380240012810B5044604D9034840F26B
:10117800F731FFF769F8024B1C6010BD2C510008CD
:101188003C0E4742012810B5044604D903484FF4E1
:101198008161FFF759F8024B1C6010BD2C51000803
:1011A800400E4742012810B5044604D9034840F2CE
:1011B8001941FFF749F8024B1C6010BD2C5100087B
:1011C8005C01474238B5104B034004460D4663B9ED
:1011D80058B1012D10D90D4840F24241FFF734F8BB
:1011E8000B4B1A6B14431C6338BD08484FF48861D5
:1011F800FFF72AF8012DEED8002DF1D1044B1A6B18
:1012080022EA04041C6338BD00EE8B812C510008CF
:101218000038024038B530F0F10304460D460CD1D1
:1012280058B1012D10D90C4840F26141FFF70CF874
:101238000A4B5A6B14435C6338BD07484FF48C6102
:10124800FFF702F8012DEED8002DF1D1034B5A6BB0
:1012580022EA04045C6338BD2C51000800380240BF
:1012680038B530F0010304460D460CD158B1012DB4
:1012780010D90C4840F27C41FEF7E6FF0A4B9A6B06
:1012880014439C6338BD074840F27B41FEF7DCFFFE
:10129800012DEED8002DF1D1034B9A6B22EA0404FC
:1012A8009C6338BD2C5100080038024038B5104BFB
:1012B800034004460D4663B958B1012D10D90D48B5
:1012C80040F2AE41FEF7C0FF0B4B1A6C14431C648E
:1012D80038BD084840F2AD41FEF7B6FF012DEED803
:1012E800002DF1D1044B1A6C22EA04041C6438BDA9
:1012F800003601C92C5100080038024038B5104B9F
:10130800034004460D4663B958B1012D10D90D4864
:1013180040F2D641FEF798FF0B4B5A6C14435C64BD
:1013280038BD084840F2D541FEF78EFF012DEED8B2
:10133800002DF1D1044B5A6C22EA04045C6438BDD8
:10134800CCA0F8FF2C5100080038024038B5104BEB
:10135800034004460D4663B958B1012D10D90D4814
:1013680040F2FD41FEF770FF0B4B1A6914431C61F4
:1013780038BD084840F2FC41FEF766FF012DEED863
:10138800002DF1D1044B1A6922EA04041C6138BD0E
:1013980000EE9FDD2C5100080038024038B530F0CF
:1013A800F10304460D460CD158B1012D10D90C4853
:1013B80040F21A51FEF748FF0A4B5A6914435C6120
:1013C80038BD074840F21951FEF73EFF012DEED80F
:1013D800002DF1D1034B5A6922EA04045C6138BD3F
:1013E8002C5100080038024038B530F0010304469B
:1013F8000D460CD158B1012D10D90C4840F232518C
:10140800FEF722FF0A4B9A6914439C6138BD0748CE
:1014180040F23151FEF718FF012DEED8002DF1D121
:10142800034B9A6922EA04049C6138BD2C510008D8
:101438000038024038B5104B034004460D4663B9E6
:1014480058B1012D10D90D4840F26151FEF7FCFE4C
:101458000B4B1A6A14431C6238BD08484FF4AC6140
:10146800FEF7F2FE012DEED8002DF1D1044B1A6AD9
:1014780022EA04041C6238BD003601C92C51000858
:101488000038024038B5104B034004460D4663B996
:1014980058B1012D10D90D4840F28551FEF7D4FE00
:1014A8000B4B5A6A14435C6238BD084840F28451B9
:1014B800FEF7CAFE012DEED8002DF1D1044B5A6A71
:1014C80022EA04045C6238BDCCA6F8FF2C5100085F
:1014D8000038024038B5104B034004460D4663B946
:1014E80058B1012D10D90D4840F2B351FEF7ACFEAA
:1014F8000B4B1A6D14431C6538BD084840F2B251B5
:10150800FEF7A2FE012DEED8002DF1D1044B1A6D85
:1015180022EA04041C6538BD006E98812C5100082D
:101528000038024038B530F0F10304460D460CD1BE
:1015380058B1012D10D90C4840F2D351FEF784FE62
:101548000A4B5A6D14435C6538BD074840F2D251C6
:10155800FEF77AFE012DEED8002DF1D1034B5A6D1E
:1015680022EA04045C6538BD2C51000800380240AA
:1015780038B530F0010304460D460CD158B1012DA1
:1015880010D90C4840F2EE51FEF75EFE0A4B9A6DF8
:1015980014439C6538BD074840F2ED51FEF754FEF0
:1015A800012DEED8002DF1D1034B9A6D22EA0404E7
:1015B8009C6538BD2C5100080038024038B5104BE6
:1015C800034004460D4663B958B1012D10D90D48A2
:1015D8004FF4C461FEF738FE0B4B1A6E14431C66B9
:1015E80038BD084840F21F61FEF72EFE012DEED8E7
:1015F800002DF1D1044B1A6E22EA04041C6638BD92
:10160800003601C92C5100080038024038B5104B8B
:10161800034004460D4663B958B1012D10D90D4851
:101628004FF4C961FEF710FE0B4B5A6E14435C660B
:1016380038BD084840F24761FEF706FE012DEED896
:10164800002DF1D1044B5A6E22EA04045C6638BDC1
:10165800CCA0F8FF2C5100080038024010F0C00F51
:1016680038B504460D460CD158B1012D10D90C4897
:1016780040F27561FEF7E8FD0A4B1A7814431C70B6
:1016880038BD074840F27461FEF7DEFD012DEED843
:10169800002DF1D1034B1A7822EA04041C7038BDDE
:1016A8002C5100080D38024000F0EF03212B10B533
:1016B80004461ED039281CD0412823D061280FD0D9
:1016C800A0F17903062B0BD93B2812D0124840F21F
:1016D8009C61FEF7B9FD6309012B0AD0022B11D0DA
:1016E8000E4B5B6F04F01F0423FA04F000F00100B6
:1016F80010BD0A4B1B6804F01F0423FA04F000F025
:10170800010010BD054B1B6F04F01F0423FA04F001
:1017180000F0010010BD00BF2C5100080038024045
:1017280000B583B00023019300E048B93120FFF7EA
:10173800BBFF019B01330193019BB3F5A06FF4D16B
:101748003120FFF7B1FF003018BF012003B05DF86A
:1017580004FB00BF024B5A6F42F080725A67704711
:1017680000380240431E012B10B504460ED9042848
:101778000CD008280AD0102808D0802806D02028A5
:1017880004D0064840F2DA61FEF75EFD044BDB68E0
:101798001C420CBF0020012010BD00BF2C510008C6
:1017A80000380240430610B5044600D420B9044866
:1017B80040F2F961FEF748FD024B1C7010BD00BFF6
:1017C8002C5100080E38024008B5694B984245D0A4
:1017D800B0F1804F4CD0A3F57C43984252D003F52A
:1017E8008063984258D003F5806398422CD003F563
:1017F800806398425AD003F58063984260D003F51D
:101808007043984272D003F57053984278D003F52C
:10181800806398425ED003F58063984200F0888028
:10182800A3F59833984200F08F8003F580639842BF
:1018380000F0948003F5806398426DD04D48C5212F
:10184800BDE80840FEF700BD08200121FFF7F2FDC2
:1018580008200021BDE80840FFF7ECBD0120014643
:10186800FFF710FE01200021BDE80840FFF70ABE7F
:1018780001200146FFF7DEFD01200021BDE80840F8
:10188800FFF7D8BD02200121FFF7D4FD0220002177
:10189800BDE80840FFF7CEBD04200121FFF7CAFDCF
:1018A80004200021BDE80840FFF7C4BD1020012135
:1018B800FFF7C0FD10200021BDE80840FFF7BABDC2
:1018C80020200121FFF7B6FD20200021BDE80840B7
:1018D800FFF7B0BD4FF400300121FFF7D3FD4FF4FF
:1018E80000300021BDE80840FFF7CCBD02200121EF
:1018F800FFF7C8FD02200021BDE80840FFF7C2BD80
:101908004FF480300121FFF7BDFD4FF480300021F6
:10191800BDE80840FFF7B6BD4FF480700121FFF71E
:1019280089FD4FF480700021BDE80840FFF782BDB3
:101938004FF480200121FFF7A5FD4FF480200021FE
:10194800BDE80840FFF79EBD40200121FFF772FD6A
:1019580040200021BDE80840FFF76CBD8020012130
:10196800FFF768FD80200021BDE80840FFF762BD51
:1019780000000140945100084E4B984270B504464F
:101988000D4637D0B0F1804F34D0A3F57C43984250
:1019980030D003F5806398422CD003F580639842D9
:1019A80028D003F58063984224D003F580639842D9
:1019B80020D003F5704398421CD003F57053984229
:1019C80018D003F58063984214D003F580639842D9
:1019D80010D0A3F5983398420CD003F58063984251
:1019E80008D003F58063984204D0334840F21F11B1
:1019F800FEF72AFC6B8823F0100252B123F0400254
:101A0800202A06D0402B04D02B484FF49071FEF7C3
:101A18001BFC2B8923F480723AB1B3F5007F04D004
:101A2800254840F22111FEF70FFC224A23889442F0
:101A38009BB212D002F5806294420ED0B4F1804F6E
:101A48000BD0A2F58032944207D002F5806294420E
:101A580003D002F58062944203D16A8823F07003B0
:101A68001343164A94421CD002F58062944218D05F
:101A78002E896868298823F4407302F56C429BB26A
:101A8800334394422380E062218505D00C4B9C426D
:101A980002D00123A38270BDAB7A23860123A382DF
:101AA80070BD23802B886A68E26223850123A382A4
:101AB80070BD00BF000001409451000800100040B4
:101AC8000004014000234FF0FF324260038003818D
:101AD80043808372704700BF244B984270B5044618
:101AE8000E46154637D0B0F1804F34D0A3F57C436D
:101AF800984230D003F5806398422CD003F5806378
:101B0800984228D003F58063984224D003F5806377
:101B1800984220D003F5704398421CD003F57053C7
:101B2800984218D003F58063984214D003F5806377
:101B3800984210D0A3F5983398420CD003F58063EF
:101B4800984208D003F58063984204D0084840F2D0
:101B58006511FEF779FB012D04D905484FF4B371DF
:101B6800FEF772FB2685A58270BD00BF000001400C
:101B78009451000838B5194B984204460D4617D0C1
:101B8800B0F1804F14D0A3F57C43984210D003F5F0
:101B9800806398420CD003F58063984208D003F51F
:101BA8007843984204D00E484FF4BF71FEF74CFBBF
:101BB80025F0100353B125F04003202B06D0402D0B
:101BC80004D0074840F27F11FEF73EFB238823F03C
:101BD80070031B041B0C2B43238038BD00000140FD
:101BE8009451000838B51F4B984204460D4637D02B
:101BF800B0F1804F34D0A3F57C43984230D003F540
:101C0800806398422CD003F58063984228D003F56E
:101C18008063984224D003F58063984220D003F56E
:101C2800704398421CD003F57053984218D003F5BE
:101C38008063984214D003F58063984210D0A3F5CE
:101C4800983398420CD003F58063984208D003F586
:101C58008063984204D004484FF4CB71FEF7F4FA3D
:101C6800656238BD000001409451000838B51F4B2B
:101C7800984204460D4637D0B0F1804F34D0A3F5D2
:101C88007C43984230D003F5806398422CD003F50A
:101C98008063984228D003F58063984224D003F5E6
:101CA8008063984220D003F5704398421CD003F516
:101CB8007053984218D003F58063984214D003F506
:101CC8008063984210D0A3F5983398420CD003F55E
:101CD8008063984208D003F58063984204D0044892
:101CE80040F2A511FEF7B0FAE56238BD00000140E8
:101CF800945100081F4B984210B5044637D0B0F1F4
:101D0800804F34D0A3F57C43984230D003F58063EC
:101D180098422CD003F58063984228D003F580635D
:101D2800984224D003F58063984220D003F570438D
:101D380098421CD003F57053984218D003F580637D
:101D4800984214D003F58063984210D0A3F59833D5
:101D580098420CD003F58063984208D003F580635D
:101D6800984204D0044840F2B311FEF76DFA606A55
:101D780010BD00BF00000140945100081F4B98425D
:101D880010B5044637D0B0F1804F34D0A3F57C436A
:101D9800984230D003F5806398422CD003F58063D5
:101DA800984228D003F58063984224D003F58063D5
:101DB800984220D003F5704398421CD003F5705325
:101DC800984218D003F58063984214D003F58063D5
:101DD800984210D0A3F5983398420CD003F580634D
:101DE800984208D003F58063984204D0044840F232
:101DF800C111FEF729FA208D80B210BD0000014004
:101E08009451000838B5294B984204460D4637D0FE
:101E1800B0F1804F34D0A3F57C43984230D003F51D
:101E2800806398422CD003F58063984228D003F54C
:101E38008063984224D003F58063984220D003F54C
:101E4800704398421CD003F57053984218D003F59C
:101E58008063984214D003F58063984210D0A3F5AC
:101E6800983398420CD003F58063984208D003F564
:101E78008063984204D00E4840F2D111FEF7E4F98D
:101E8800012D0AD90A484FF4E971FEF7DDF92388D4
:101E98009BB243F00203238038BD002DF7D123887D
:101EA80023F002031B041B0C238038BD00000140F3
:101EB8009451000838B5294B984204460D4637D04E
:101EC800B0F1804F34D0A3F57C43984230D003F56D
:101ED800806398422CD003F58063984228D003F59C
:101EE8008063984224D003F58063984220D003F59C
:101EF800704398421CD003F57053984218D003F5EC
:101F08008063984214D003F58063984210D0A3F5FB
:101F1800983398420CD003F58063984208D003F5B3
:101F28008063984204D00E484FF4F771FEF78CF99D
:101F3800012D0AD90A4840F2EF11FEF785F92388E6
:101F48009BB243F00403238038BD002DF7D12388CA
:101F580023F004031B041B0C238038BD0000014040
:101F68009451000838B5294B984204460D4637D09D
:101F7800B0F1804F34D0A3F57C43984230D003F5BC
:101F8800806398422CD003F58063984228D003F5EB
:101F98008063984224D003F58063984220D003F5EB
:101FA800704398421CD003F57053984218D003F53B
:101FB8008063984214D003F58063984210D0A3F54B
:101FC800983398420CD003F58063984208D003F503
:101FD8008063984204D00E4840F20721FEF734F996
:101FE800012D0AD90A484FF40271FEF72DF923880A
:101FF8009BB243F08003238038BD002DF7D123889E
:1020080023F080031B041B0C238038BD0000014013
:102018009451000838B5284B984204460D4637D0ED
:10202800B0F1804F34D0A3F57C43984230D003F50B
:10203800806398422CD003F58063984228D003F53A
:102048008063984224D003F58063984220D003F53A
:10205800704398421CD003F57053984218D003F58A
:102068008063984214D003F58063984210D0A3F59A
:10207800983398420CD003F58063984208D003F552
:102088008063984204D00D4840F22221FEF7DCF824
:1020980025F0080323B1094840F22321FEF7D4F8BC
:1020A800238823F008031B041B0C238023889BB27E
:1020B8001D43258038BD00BF000001409451000831
:1020C80038B5254B984204460D462FD0B0F1804FC5
:1020D8002CD0A3F57C43984228D003F5806398421E
:1020E80024D003F58063984220D003F578439842C2
:1020F8001CD003F57053984218D003F580639842BA
:1021080014D003F58063984210D0A3F59833984211
:102118000CD003F58063984208D003F58063984299
:1021280004D00E4840F23921FEF78EF825F480736A
:102138003BB1B5F5007F04D0084840F23A21FEF7DC
:1021480083F8238823F440731B041B0C2380238803
:102158009BB21D43258038BD000001409451000802
:1021680038B5294B984204460D4637D0B0F1804F18
:1021780034D0A3F57C43984230D003F5806398426D
:102188002CD003F58063984228D003F580639842E9
:1021980024D003F58063984220D003F57043984219
:1021A8001CD003F57053984218D003F58063984209
:1021B80014D003F58063984210D0A3F59833984261
:1021C8000CD003F58063984208D003F580639842E9
:1021D80004D00E4840F24D21FEF736F8012D0AD9F9
:1021E8000A4840F24E21FEF72FF823889BB243F0AD
:1021F8000103238038BD002DF7D1238823F0010384
:102208001B041B0C238038BD0000014094510008BA
:102218002DE9F8435D4B984204460D462FD0B0F1A6
:10222800804F2CD0A3F57C43984228D003F58063D7
:10223800984224D003F58063984220D003F5784370
:1022480098421CD003F57053984218D003F5806368
:10225800984214D003F58063984210D0A3F59833C0
:1022680098420CD003F58063984208D003F5806348
:10227800984204D0464840F29E21FDF7E5FF2A889F
:1022880022F0100322F030029BB2002A69D16B8839
:10229800012B04D93E484FF42871FDF7D5FFA889D2
:1022A80020F002032BB13A4840F2A121FDF7CCFF00
:1022B800A889218C6E88B5F80080DFF8D0C021F09D
:1022C80001010904090C2184228CA788238B22F0A0
:1022D8000202120423F07303120C1B0432431B0C7A
:1022E800644542EA0006BFB243EA08080AD0294B0F
:1022F8009C4207D0AB68A780A4F818806363268443
:10230800BDE8F883AB8823F004039BB223B12048CF
:1023180040F2BE21FDF798FFEB8923F008039BB23A
:1023280023B11B4840F2BF21FDF78EFF6B8A23F4CF
:1023380000739BB223BB2B8A23F48072CAB9B5F809
:102348000E90B5F812C0A98826F0080627F4407741
:1023580046EA090626F0040647EA0C070E431F431F
:10236800C8E7602B93D00A4840F29F21FDF76CFF25
:102378008DE7074840F2C121FDF766FF2B8ADEE7AB
:1023880003484FF43071FDF75FFFD4E700000140C8
:1023980094510008000401405B4B98422DE9F0413C
:1023A80004460D461FD0B0F1804F1CD0A3F57C43E6
:1023B800984218D003F58063984214D003F58063DF
:1023C800984210D003F5784398420CD003F5705327
:1023D800984208D0A3F59433984204D04B4840F271
:1023E800EF21FDF731FF2A8822F0100322F0300296
:1023F8009BB2002A73D16B88012B04D9434840F261
:10240800F121FDF721FFA88920F002032BB13F48F5
:1024180040F2F221FDF718FFA889218C6E88B5F8E3
:102428000080DFF8E4C021F010010904090C2184C0
:10243800228CA788238B22F02002120423F4E6437F
:10244800120C1B0442EA06121B0C42EA001643EA6D
:1024580008236445B6B2BFB21FFA83F80AD02C4BE2
:102468009C4207D0AB68A780A4F81880A363268491
:10247800BDE8F081AB8823F004039BB223B1234865
:102488004FF44471FDF7E0FEEB8923F008039BB29B
:10249800FBB96B8A23F400739BB27BBB298A21F4B6
:1024A800807323BBEB89B5F812C0A88826F0800694
:1024B800B6B246EA031627F440674FF6BF733340B7
:1024C80047EA8C0743EA001647EA8107B6B2BFB26B
:1024D800C8E70E4840F21131FDF7B6FED9E7602B88
:1024E80089D00A484FF43C71FDF7AEFE83E740F20D
:1024F80013310648FDF7A8FE298AD3E7034840F2BE
:102508001231FDF7A1FEC9E700000140945100080F
:1025180000040140564B98422DE9F04104460D460F
:1025280017D0B0F1804F14D0A3F57C43984210D057
:1025380003F5806398420CD003F58063984208D075
:1025480003F57843984204D04A484FF45071FDF798
:102558007BFE2A8822F0100322F030029BB2002A68
:1025680071D16B88012B04D9424840F24231FDF702
:102578006BFEA88920F002032BB13E4840F243319C
:10258800FDF762FEA889218C6E88B5F80080DFF817
:10259800E0C021F480710904090C2184228CA788E9
:1025A800A38B22F400721204120C23F0730342EA84
:1025B80006221B0442EA00261B0C6445B6B2BFB2D1
:1025C80043EA08080AD02C4B9C4207D0AB68A78086
:1025D800A4F81C80E3632684BDE8F081AB8823F06F
:1025E80004039BB223B123484FF45871FDF72CFE26
:1025F800EB8923F008039BB2FBB96B8A23F40073C1
:102608009BB27BBB298A21F4807323BBEB89B5F885
:1026180012C0A88826F40066B6B246EA032627F454
:1026280040574FF6FF33334047EA0C1743EA00267A
:1026380047EA0117B6B2BFB2C8E70E4840F26131A7
:10264800FDF702FED9E7602B8BD00A4840F24131F2
:10265800FDF7FAFD85E740F263310648FDF7F4FD22
:10266800298AD3E7034840F26231FDF7EDFDC9E757
:102678000000014094510008000401403F4B98427B
:102688002DE9F04104460D4617D0B0F1804F14D023
:10269800A3F57C43984210D003F5806398420CD090
:1026A80003F58063984208D003F57843984204D034
:1026B80033484FF46471FDF7C7FD2A8822F01003F0
:1026C80022F030029BB2002A48D16B88012B04D932
:1026D8002B4840F29231FDF7B7FDA88920F002039C
:1026E8002BB1274840F29331FDF7AEFDA889218C24
:1026F8006E88B5F80080DFF884C021F480510904A1
:10270800090C2184228CA788A38B22F4005212047E
:1027180023F4E643120C1B0442EA06321B0C42EA7D
:10272800003643EA08236445B6B2BFB21FFA83F8FD
:102738000AD0144B9C4207D0AB68A780A4F81C8031
:1027480023642684BDE8F0812B8A23F480726AB959
:1027580027F4804747EA8317BFB2EDE7602BB4D070
:10276800074840F29131FDF76FFDAEE7044840F2AB
:10277800B131FDF769FD2B8AEAE700BF000001408F
:1027880094510008000401400023038043808380A3
:1027980083608381C3810382438270473C4B9842A4
:1027A80070B504460E4615462FD0B0F1804F2CD098
:1027B800A3F57C43984228D003F58063984224D03F
:1027C80003F58063984220D003F5784398421CD0E3
:1027D80003F57053984218D003F58063984214D0DB
:1027E80003F58063984210D0A3F5983398420CD033
:1027F80003F58063984208D003F58063984204D0BB
:1028080024484FF47D71FDF71FFD26F00C03002BC3
:1028180031D125F0100225F0300392B243B122F0F5
:102828002002402A04D01B4840F2F631FDF70CFD87
:10283800238C01229BB2B24023EA020226F008034D
:10284800228418346BB1043EC6F34E0648F6FF7373
:10285800A2591340A3512D02A359ADB21D43A5514E
:1028680070BD76084FF68F73A2591340A351A35930
:102878001D43A55170BD074840F2F531FDF7E4FC52
:1028880025F0100225F0300392B2002BC7D1CFE714
:10289800000001409451000838B51B4B984204468B
:1028A8000D462FD0B0F1804F2CD0A3F57C43984231
:1028B80028D003F58063984224D003F580639842BA
:1028C80020D003F5784398421CD003F57053984202
:1028D80018D003F58063984214D003F580639842BA
:1028E80010D0A3F5983398420CD003F58063984232
:1028F80008D003F58063984204D0044840F21F4191
:10290800FDF7A2FC656338BD000001409451000842
:1029180038B5134B984204460D461FD0B0F1804F8E
:102928001CD0A3F57C43984218D003F580639842E5
:1029380014D003F58063984210D003F57843984289
:102948000CD003F57053984208D0A3F594339842FD
:1029580004D0044840F22F41FDF776FCA56338BD4A
:10296800000001409451000838B50F4B98420446C6
:102978000D4617D0B0F1804F14D0A3F57C43984290
:1029880010D003F5806398420CD003F58063984219
:1029980008D003F57843984204D0044840F23E41F9
:1029A800FDF752FCE56338BD000001409451000872
:1029B80038B50F4B984204460D4617D0B0F1804FFA
:1029C80014D0A3F57C43984210D003F58063984255
:1029D8000CD003F58063984208D003F578439842F9
:1029E80004D0044840F24D41FDF72EFC256438BD63
:1029F800000001409451000838B5234B9842044622
:102A08000D462FD0B0F1804F2CD0A3F57C439842CF
:102A180028D003F58063984224D003F58063984258
:102A280020D003F5784398421CD003F570539842A0
:102A380018D003F58063984214D003F58063984258
:102A480010D0A3F5983398420CD003F580639842D0
:102A580008D003F58063984204D00C4840F26141E5
:102A6800FDF7F2FB25F01003402B04D0074840F295
:102A78006241FDF7E9FB238B23F070031B041B0C59
:102A88002B43238338BD00BF000001409451000848
:102A980038B51C4B984204460D461FD0B0F1804F04
:102AA8001CD0A3F57C43984218D003F58063984264
:102AB80014D003F58063984210D003F57843984208
:102AC8000CD003F57053984208D0A3F5943398427C
:102AD80004D00D4840F27E41FDF7B6FB25F0100307
:102AE800402B04D0084840F27F41FDF7ADFB238B13
:102AF80023F4E0431B041B0C43EA05239BB2238306
:102B080038BD00BF000001409451000838B5174B8C
:102B1800984204460D4617D0B0F1804F14D0A3F563
:102B28007C43984210D003F5806398420CD003F59B
:102B38008063984208D003F57843984204D00C4843
:102B480040F29A41FDF780FB25F01003402B04D09A
:102B5800074840F29B41FDF777FBA38B23F07003F6
:102B68001B041B0C2B43A38338BD00BF000001408E
:102B78009451000838B5184B984204460D4617D0B2
:102B8800B0F1804F14D0A3F57C43984210D003F5E0
:102B9800806398420CD003F58063984208D003F50F
:102BA8007843984204D00D4840F2B741FDF74CFBFA
:102BB80025F01003402B04D008484FF49761FDF727
:102BC80043FBA38B23F4E0431B041B0C43EA0523BC
:102BD8009BB2A38338BD00BF000001409451000898
:102BE80038B5224B984204460D462FD0B0F1804F9D
:102BF8002CD0A3F57C43984228D003F580639842F3
:102C080024D003F58063984220D003F57843984296
:102C18001CD003F57053984218D003F5806398428E
:102C280014D003F58063984210D0A3F598339842E6
:102C38000CD003F58063984208D003F5806398426E
:102C480004D00B4840F2D341FDF7FEFA25F0080303
:102C580023B1074840F2D441FDF7F6FA238B23F05D
:102C680008031B041B0C2B43238338BD00000140C1
:102C78009451000838B51B4B984204460D461FD0A6
:102C8800B0F1804F1CD0A3F57C43984218D003F5CF
:102C98008063984214D003F58063984210D003F5FE
:102CA800784398420CD003F57053984208D0A3F5A6
:102CB8009433984204D00C4840F2F141FDF7C4FA2D
:102CC80025F0080323B1084840F2F241FDF7BCFAA9
:102CD800238B23F400631B041B0C43EA05239BB2DC
:102CE800238338BD000001409451000838B5164BC5
:102CF800984204460D4617D0B0F1804F14D0A3F582
:102D08007C43984210D003F5806398420CD003F5B9
:102D18008063984208D003F57843984204D00B4862
:102D280040F20E51FDF790FA25F0080323B1074849
:102D380040F20F51FDF788FAA38B23F008031B0418
:102D48001B0C2B43A38338BD00000140945100089D
:102D580038B5174B984204460D4617D0B0F1804F4E
:102D680014D0A3F57C43984210D003F580639842B1
:102D78000CD003F58063984208D003F57843984255
:102D880004D00C4840F22B51FDF75EFA25F00803F9
:102D980023B1084840F22C51FDF756FAA38B23F4CF
:102DA80000631B041B0C43EA05239BB2A38338BDB5
:102DB800000001409451000838B5224B984204465F
:102DC8000D462FD0B0F1804F2CD0A3F57C4398420C
:102DD80028D003F58063984224D003F58063984295
:102DE80020D003F5784398421CD003F570539842DD
:102DF80018D003F58063984214D003F58063984295
:102E080010D0A3F5983398420CD003F5806398420C
:102E180008D003F58063984204D00B484FF4A961A9
:102E2800FDF712FA25F0040323B1074840F249518F
:102E3800FDF70AFA238B23F004031B041B0C2B4316
:102E4800238338BD000001409451000838B51B4B5E
:102E5800984204460D461FD0B0F1804F1CD0A3F510
:102E68007C43984218D003F58063984214D003F548
:102E78008063984210D003F5784398420CD003F54C
:102E88007053984208D0A3F59433984204D00C4864
:102E980040F26751FDF7D8F925F0040323B108483B
:102EA8004FF4AD61FDF7D0F9238B23F480631B0445
:102EB8001B0C43EA05239BB2238338BD0000014065
:102EC8009451000838B5164B984204460D4617D061
:102ED800B0F1804F14D0A3F57C43984210D003F58D
:102EE800806398420CD003F58063984208D003F5BC
:102EF8007843984204D00B4840F28551FDF7A4F975
:102F080025F0040323B1074840F28651FDF79CF9E8
:102F1800A38B23F004031B041B0C2B43A38338BD92
:102F2800000001409451000838B5174B98420446F8
:102F38000D4617D0B0F1804F14D0A3F57C439842CA
:102F480010D003F5806398420CD003F58063984253
:102F580008D003F57843984204D00C4840F2A351B6
:102F6800FDF772F925F0040323B1084840F2A45193
:102F7800FDF76AF9A38B23F480631B041B0C43EA57
:102F880005239BB2A38338BD00000140945100087B
:102F980038B5224B984204460D462FD0B0F1804FE9
:102FA8002CD0A3F57C43984228D003F5806398423F
:102FB80024D003F58063984220D003F578439842E3
:102FC8001CD003F57053984218D003F580639842DB
:102FD80014D003F58063984210D0A3F59833984233
:102FE8000CD003F58063984208D003F580639842BB
:102FF80004D00B4840F2C151FDF726F925F08003B3
:1030080023B1074840F2C251FDF71EF9238B23F084
:1030180080031B041B0C2B43238338BD0000014095
:103028009451000838B51A4B984204460D461FD0F3
:10303800B0F1804F1CD0A3F57C43984218D003F51B
:103048008063984214D003F58063984210D003F54A
:10305800784398420CD003F57053984208D0A3F5F2
:103068009433984204D00B4840F2DF51FDF7ECF856
:1030780025F0800323B107484FF4BC61FDF7E4F85D
:10308800238BC3F30E0343EA0525ADB2258338BD70
:10309800000001409451000838B5164B9842044688
:1030A8000D4617D0B0F1804F14D0A3F57C43984259
:1030B80010D003F5806398420CD003F580639842E2
:1030C80008D003F57843984204D00B4840F2FC51ED
:1030D800FDF7BAF825F0800323B1074840F2FD5107
:1030E800FDF7B2F8A38B23F080031B041B0C2B43C2
:1030F800A38338BD000001409451000838B5164B31
:10310800984204460D4617D0B0F1804F14D0A3F56D
:103118007C43984210D003F5806398420CD003F5A5
:103128008063984208D003F57843984204D00B484E
:1031380040F21961FDF788F825F0800323B10748AC
:1031480040F21A61FDF780F8A38BC3F30E0343EA3C
:103158000525ADB2A58338BD000001409451000893
:1031680038B5224B984204460D462FD0B0F1804F17
:103178002CD0A3F57C43984228D003F5806398426D
:1031880024D003F58063984220D003F57843984211
:103198001CD003F57053984218D003F58063984209
:1031A80014D003F58063984210D0A3F59833984261
:1031B8000CD003F58063984208D003F580639842E9
:1031C80004D00B4840F23661FDF73EF825F00203C3
:1031D80023B1074840F23761FDF736F8238C23F016
:1031E80002031B041B0C2B43238438BD0000014041
:1031F8009451000838B50F4B984204460D4608D044
:1032080003F58063984204D00B484FF4CA61FDF778
:103218001BF825F0080323B1074840F25161FDF778
:1032280013F8238C23F008031B041B0C2B43238463
:1032380038BD00BF000001409451000838B51B4B51
:10324800984204460D461FD0B0F1804F1CD0A3F51C
:103258007C43984218D003F58063984214D003F554
:103268008063984210D003F5784398420CD003F558
:103278007053984208D0A3F59433984204D00C4870
:1032880040F26C61FCF7E0FF25F0020323B1084827
:1032980040F26D61FCF7D8FF238C23F020031B0458
:1032A8001B0C43EA05139BB2238438BD0000014080
:1032B8009451000838B5104B984204460D4608D082
:1032C80003F58063984204D00C4840F28761FCF70C
:1032D800BBFF25F0080323B108484FF4D161FCF780
:1032E800B3FF238C23F080031B041B0C43EA051354
:1032F8009BB2238438BD00BF0000014094510008F0
:1033080038B5174B984204460D4617D0B0F1804F98
:1033180014D0A3F57C43984210D003F580639842FB
:103328000CD003F58063984208D003F5784398429F
:1033380004D00C4840F2A261FCF786FF25F0020396
:1033480023B1084840F2A361FCF77EFF238C23F4E5
:1033580000731B041B0C43EA05239BB2238438BD6E
:10336800000001409451000838B5104B98420446BB
:103378000D4608D003F58063984204D00C4840F20B
:10338800BD61FCF761FF25F0080323B1084840F24E
:10339800BE61FCF759FF238C23F400631B041B0C4C
:1033A80043EA05239BB2238438BD00BF00000140D7
:1033B8009451000838B5174B984204460D4617D06B
:1033C800B0F1804F14D0A3F57C43984210D003F598
:1033D800806398420CD003F58063984208D003F5C7
:1033E8007843984204D00C484FF4DB61FCF72CFF7B
:1033F80025F0020323B1084840F2D961FCF724FF05
:10340800238C23F400531B041B0C43EA05339BB2A3
:10341800238438BD00000140945100082A4B98428B
:1034280070B504460D4616462FD0B0F1804F2CD00B
:10343800A3F57C43984228D003F58063984224D0B2
:1034480003F58063984220D003F5784398421CD056
:1034580003F57053984218D003F58063984214D04E
:1034680003F58063984210D0A3F5983398420CD0A6
:1034780003F58063984208D003F58063984204D02E
:10348800124840F2F761FCF7DFFE25F00C03A3B900
:10349800012E04D90D4840F2F961FCF7D5FE228CC3
:1034A8000123AB4092B222EA03032384238C06FA59
:1034B80005F51D43ADB2258470BD04484FF4DF61A6
:1034C800FCF7C2FEE4E700BF000001409451000889
:1034D800174B984270B504460D46164608D003F5BA
:1034E8008063984204D0134840F21571FCF7ACFE93
:1034F80025F0040333B1082D04D00E4840F21671AC
:10350800FCF7A2FE26F0040323B10A4840F2177123
:10351800FCF79AFE228C0423AB4092B222EA030302
:103528002384238C06FA05F51D43ADB2258470BDAE
:10353800000001409451000800230122828003808A
:103548004380C380038170471B4B984210B50446E3
:103558002FD0B0F1804F2CD0A3F57C43984228D0CF
:1035680003F58063984224D003F58063984220D005
:1035780003F5784398421CD003F57053984218D04D
:1035880003F58063984214D003F58063984210D005
:10359800A3F5983398420CD003F58063984208D07D
:1035A80003F58063984204D0044840F2E971FCF7BF
:1035B8004BFE606B10BD00BF000001409451000835
:1035C800134B984210B504461FD0B0F1804F1CD061
:1035D800A3F57C43984218D003F58063984214D031
:1035E80003F58063984210D003F5784398420CD0D5
:1035F80003F57053984208D0A3F59433984204D049
:1036080004484FF4FF61FCF71FFEA06B10BD00BF1C
:1036180000000140945100080F4B984210B5044631
:1036280017D0B0F1804F14D0A3F57C43984210D046
:1036380003F5806398420CD003F58063984208D064
:1036480003F57843984204D0044840F60601FCF795
:10365800FBFDE06B10BD00BF000001409451000865
:103668000F4B984210B5044617D0B0F1804F14D0D4
:10367800A3F57C43984210D003F5806398420CD0A0
:1036880003F58063984208D003F57843984204D044
:10369800044840F61401FCF7D7FD206C10BD00BFAC
:1036A800000001409451000838B5244B9842044664
:1036B8000D462FD0B0F1804F2CD0A3F57C43984213
:1036C80028D003F58063984224D003F5806398429C
:1036D80020D003F5784398421CD003F570539842E4
:1036E80018D003F58063984214D003F5806398429C
:1036F80010D0A3F5983398420CD003F58063984214
:1037080008D003F58063984204D00D4840F628019C
:10371800FCF79AFD25F00C0323B1094840F629016E
:10372800FCF792FD238B23F00C031B041B0C238353
:10373800238B9BB21D43258338BD00BF0000014089
:103748009451000838B51D4B984204460D461FD0C9
:10375800B0F1804F1CD0A3F57C43984218D003F5F4
:103768008063984214D003F58063984210D003F523
:10377800784398420CD003F57053984208D0A3F5CB
:103788009433984204D00E4840F64101FCF75CFDA2
:1037980025F00C0323B10A4840F64201FCF754FD1A
:1037A800238B23F440631B041B0C2383238B9BB2C2
:1037B80043EA0525ADB2258338BD00BF00000140AE
:1037C800945100085B4B98422DE9F04104460D46A0
:1037D8001FD0B0F1804F1CD0A3F57C43984218D07D
:1037E80003F58063984214D003F58063984210D0A3
:1037F80003F5784398420CD003F57053984208D0EB
:10380800A3F59433984204D04B4840F2B371FCF7C7
:103818001BFD6E88A8882B88002E14BF002702275E
:10382800012814BF4FF001084FF00208002B41D0C7
:10383800228CB5F808E0E98822F010021204120C74
:103848002284238B228C23F440731B051B0D92B218
:1038580043EA0E3322F0A0029BB242EA061643EA7C
:103868000020B6B280B246F0100620832046268497
:10387800FFF768FF238C2889E98823F001031B04DC
:103888001B0C2384228B238C92B222F0F3029BB26E
:1038980042EA001223F00A0392B243F0010342EA1B
:1038A80008081F43A4F8188020462784BDE8F04183
:1038B800FFF7FABE238CB5F808E0E98823F0010386
:1038C8001B041B0C2384228B238C92B222F0F3025C
:1038D80023F00A0342EA0E121B0492B246F00106D4
:1038E8001B0C10433343208320462384FFF7DCFE60
:1038F800228C2889E98822F010021204120C2284F2
:10390800238B228C23F440731B051B0D92B243EAD0
:10391800003322F0A0029BB242F0100243EA0828CA
:1039280042EA0717A4F8188020462784BDE8F0412A
:10393800FFF708BF000001409451000838B5184B44
:10394800984204460D4617D0B0F1804F14D0A3F525
:103958007C43984210D003F5806398420CD003F55D
:103968008063984208D003F57843984204D00D4804
:1039780040F65901FCF768FC25F00C0323B109480F
:1039880040F65A01FCF760FCA38B23F00C031B04E0
:103998001B0CA383A38B9BB21D43A58338BD00BF1B
:1039A800000001409451000838B5194B984204466C
:1039B8000D4617D0B0F1804F14D0A3F57C43984240
:1039C80010D003F5806398420CD003F580639842C9
:1039D80008D003F57843984204D00E4840F67101A8
:1039E800FCF732FC25F00C0323B10A4840F67201BB
:1039F800FCF72AFCA38B23F440631B041B0CA38352
:103A0800A38B9BB243EA0525ADB2A58338BD00BFA1
:103A18000000014094510008F8B5A84B98420446AC
:103A28000D462FD0B0F1804F2CD0A3F57C4398429F
:103A380028D003F58063984224D003F58063984228
:103A480020D003F5784398421CD003F57053984270
:103A580018D003F58063984214D003F58063984228
:103A680010D0A3F5983398420CD003F580639842A0
:103A780008D003F58063984204D0914840F26571FC
:103A8800FCF7E2FB6B8823F0020232B10A2B04D068
:103A98008B4840F26671FCF7D7FBAB88013B9BB2C1
:103AA800022B52D8EB8823F00C039BB2002B40F07A
:103AB800FF802B890F2B4ED82B88002B53D0042B3B
:103AC80072D0082B7D4B00F0B7809C4217D0B4F120
:103AD800804F14D0A3F57C439C4210D003F580633B
:103AE8009C420CD003F580639C4208D003F57843D0
:103AF8009C4204D0724840F28B71FCF7A5FB208CE5
:103B08006F88B5F804C02E89E98820F48050000435
:103B1800000C2084A28B238C22F4407223F40053DF
:103B280012055B04120D5B0C43EA073342EA0C22D0
:103B380042EA06329BB243F4805392B2A2832046F3
:103B48002384BDE8F840FFF72FBF5D4840F2677156
:103B5800FCF77AFBA6E75A4840F26971FCF774FB58
:103B68002B88002BABD1228C6888AE882F89E988F6
:103B780022F001021204120C2284228B238C92B2AE
:103B880022F0F30223F00A0342EA07121B0440F072
:103B9800010092B21B0C0343324322832046238444
:103BA800BDE8F840FFF780BD444B9C421FD0B4F1FC
:103BB800804F1CD0A3F57C439C4218D003F580634A
:103BC8009C4214D003F580639C4210D003F57843DF
:103BD8009C420CD003F570539C4208D0A3F5943353
:103BE8009C4204D0364840F27771FCF72DFB228CBA
:103BF8006E88A8882F89E98822F010021204120C16
:103C08002284238B258C23F440731B051B0DADB236
:103C180043EA073225F0A00545EA061392B242EAC4
:103C280000229BB243F0100392B2228320462384E1
:103C3800BDE8F840FFF786BD9C4217D0B4F1804F2D
:103C480014D0A3F57C439C4210D003F580639C42BA
:103C58000CD003F580639C4208D003F578439C425E
:103C680004D0174840F28171FCF7EEFA238CA8883B
:103C78006E882F89E98823F480731B041B0C238426
:103C8800A28B238C92B29BB222F0F30223F420631E
:103C980042EA071243EA062392B29BB2024343F474
:103CA8008073A28320462384BDE8F840FFF746BE10
:103CB80003484FF4ED61FCF7C7FAFAE6000001404B
:103CC80094510008F8B5314B984205460C4608D087
:103CD80003F58063984204D02D4840F6A601FCF70E
:103CE800B3FA238823F400639BB2002B42D1638884
:103CF80023F480639BB2002B36D1A38823F440734E
:103D08009BB2002B3CD1238923F480539BB22BBB5D
:103D1800638923F400539BB223B11D4840F6AB01DD
:103D2800FCF792FAA38923F480422AB1184840F696
:103D3800AC01FCF789FAA389B4F802C02288A788E5
:103D4800E688208961894CEA02023A4332430243F9
:103D58000A4313439BB2A5F84430F8BD0C4840F61B
:103D6800AA01FCF771FAD3E7094840F6A801FCF765
:103D78006BFAC2E7064840F6A701FCF765FAB6E712
:103D8800034840F6A901FCF75FFABCE700000140D0
:103D9800945100080023038043808380C3800381FB
:103DA80043818381704700BF38B5144B984204465D
:103DB8000D4608D003F58063984204D0104840F6B9
:103DC800D201FCF741FA012D0ED90D4840F6D30176
:103DD800FCF73AFAB4F844306FEA43436FEA5343C6
:103DE8009BB2A4F8443038BD002DF3D1B4F8443068
:103DF800C3F30E03A4F8443038BD00BF00000140EF
:103E08009451000838B5124B984204460D4608D024
:103E180003F58063984204D00E4840F6EB01FCF7A6
:103E280013FA012D0AD90B4840F6EC01FCF70CFAFD
:103E3800A3889BB243F00403A38038BD002DF7D1BB
:103E4800A38823F004031B041B0CA38038BD00BF08
:103E5800000001409451000838B5124B98420446BE
:103E68000D4608D003F58063984204D00E4840F60A
:103E78000411FCF7E9F9012D0AD90B4840F60511A0
:103E8800FCF7E2F9A3889BB243F00103A38038BD95
:103E9800002DF7D1A38823F001031B041B0CA3807A
:103EA80038BD00BF00000140945100082E4B9842D5
:103EB80070B504460D46164637D0B0F1804F34D061
:103EC800A3F57C43984230D003F5806398422CD008
:103ED80003F58063984228D003F58063984224D084
:103EE80003F58063984220D003F5704398421CD0B4
:103EF80003F57053984218D003F58063984214D0A4
:103F080003F58063984210D0A3F5983398420CD0FB
:103F180003F58063984208D003F58063984204D083
:103F2800124840F63D11FCF78FF915F47F4F0CD17C
:103F38005DB1012E10D90D4840F63F11FCF784F908
:103F4800A3899BB21D43A58170BD084840F63E1168
:103F5800FCF77AF9012EEED8002EF1D1A3899BB295
:103F680023EA0505A58170BD0000014094510008B1
:103F780038B5244B984204460D4637D0B0F1804FEF
:103F880034D0A3F57C43984230D003F5806398423F
:103F98002CD003F58063984228D003F580639842BB
:103FA80024D003F58063984220D003F570439842EB
:103FB8001CD003F57053984218D003F580639842DB
:103FC80014D003F58063984210D0A3F59833984233
:103FD8000CD003F58063984208D003F580639842BB
:103FE80004D0094840F66311FCF72EF915F47F4F09
:103FF80000D125B9044840F66411FCF725F9A582DB
:1040080038BD00BF000001409451000838B5314B5D
:10401800984204460D4637D0B0F1804F34D0A3F50E
:104028007C43984230D003F5806398422CD003F546
:104038008063984228D003F58063984224D003F522
:104048008063984220D003F5704398421CD003F552
:104058007053984218D003F58063984214D003F542
:104068008063984210D0A3F5983398420CD003F59A
:104078008063984208D003F58063984204D01648BC
:1040880040F68511FCF7E0F86B1E012B1CD9042DB6
:104098001AD0082D18D0102D16D0202D14D0402D50
:1040A80012D0802D10D0B5F5007F0DD0B5F5806FFA
:1040B8000AD0B5F5006F07D0B5F5805F04D0064883
:1040C80040F68611FCF7C0F8238A1D420CBF002079
:1040D800012038BD000001409451000838B5204B3C
:1040E800984204460D4637D0B0F1804F34D0A3F53E
:1040F8007C43984230D003F5806398422CD003F576
:104108008063984228D003F58063984224D003F551
:104118008063984220D003F5704398421CD003F581
:104128007053984218D003F58063984214D003F571
:104138008063984210D0A3F5983398420CD003F5C9
:104148008063984208D003F58063984204D00548FC
:1041580040F6AE11FCF778F8ED43ADB2258238BDD4
:10416800000001409451000838B52D4B9842044690
:104178000D4637D0B0F1804F34D0A3F57C43984238
:1041880030D003F5806398422CD003F580639842C1
:1041980028D003F58063984224D003F580639842C1
:1041A80020D003F5704398421CD003F57053984211
:1041B80018D003F58063984214D003F580639842C1
:1041C80010D0A3F5983398420CD003F58063984239
:1041D80008D003F58063984204D0124840F6CC1109
:1041E800FCF732F86B1E012B10D9042D0ED0082DC8
:1041F8000CD0102D0AD0202D08D0402D06D0802DAF
:1042080004D0084840F6CD11FCF71EF8208AA3898F
:1042180028409BB203D01D420CBF0020012038BDAE
:10422800000001409451000838B5204B98420446DC
:104238000D4637D0B0F1804F34D0A3F57C43984277
:1042480030D003F5806398422CD003F58063984200
:1042580028D003F58063984224D003F58063984200
:1042680020D003F5704398421CD003F57053984250
:1042780018D003F58063984214D003F58063984200
:1042880010D0A3F5983398420CD003F58063984278
:1042980008D003F58063984204D0054840F6F3112E
:1042A800FBF7D2FFED43ADB2258238BD00000140D7
:1042B80094510008214B984270B504460D461646A5
:1042C80017D0B0F1804F14D0A3F57C43984210D09A
:1042D80003F5806398420CD003F58063984208D0B8
:1042E80003F57843984204D0154840F61821FBF7A7
:1042F800ABFF132D1BD826F4407326F480729BB2B3
:1043080092B283B1B3F5806F0DD0B3F5006F0AD0C8
:10431800B3F5406F07D0B2F5805F04D0084840F687
:104328001A21FBF791FF3543A4F8485070BD0448A3
:1043380040F61921FBF788FFDDE700BF00000140C8
:1043480094510008224B984270B504460D46164613
:104358001FD0B0F1804F1CD0A3F57C43984218D0F1
:1043680003F58063984214D003F58063984210D017
:1043780003F5806398420CD003F58063984208D017
:1043880003F57043984204D0124840F63321FBF7F6
:104398005BFF25F4FE4363B95DB1012E10D90D48CA
:1043A80040F63521FBF750FFA3899BB21D43A58139
:1043B80070BD084840F63421FBF746FF012EEED8C1
:1043C800002EF1D1A3899BB223EA0505A58170BD12
:1043D800000001409451000838B5194B9842044632
:1043E8000D4617D0B0F1804F14D0A3F57C43984206
:1043F80010D003F5806398420CD003F5806398428F
:1044080008D003F57843984204D00E4840F64D2171
:10441800FBF71AFF012D0AD90A4840F64E21FBF78F
:1044280013FFA3889BB243F00803A38038BD002D77
:10443800F7D1A38823F008031B041B0CA38038BD05
:104448000000014094510008154B984210B50446ED
:104458001FD0B0F1804F1CD0A3F57C43984218D0F0
:1044680003F58063984214D003F58063984210D016
:1044780003F5784398420CD003F57053984208D05E
:10448800A3F59433984204D0064840F67421FBF70C
:10449800DBFE238923F007031B041B0C238110BDBB
:1044A800000001409451000838B5244B9842044656
:1044B8000D462FD0B0F1804F2CD0A3F57C43984205
:1044C80028D003F58063984224D003F5806398428E
:1044D80020D003F5784398421CD003F570539842D6
:1044E80018D003F58063984214D003F5806398428E
:1044F80010D0A3F5983398420CD003F58063984206
:1045080008D003F58063984204D00D4840F6443142
:10451800FBF79AFE25F030039BB233B1402B04D051
:10452800074840F64531FBF78FFE238923F07003D7
:104538001B041B0C2B43238138BD00BF0000014026
:104548009451000838B51B4B984204460D461FD0BD
:10455800B0F1804F1CD0A3F57C43984218D003F5E6
:104568008063984214D003F58063984210D003F515
:10457800784398420CD003F57053984208D0A3F5BD
:104588009433984204D00C4840F68921FBF75CFE2E
:1045980025F0300323B1084840F68A21FBF754FE82
:1045A80029462046FFF780FF23899BB243F0070383
:1045B800238138BD0000014094510008F8B5DFF8A8
:1045C8001CE1704504460E4615461F462ED0B0F134
:1045D800804F2BD03F4B984228D003F580639842F8
:1045E80024D003F58063984220D003F5784398429D
:1045F8001CD003F57053984218D003F58063984295
:1046080014D003F58063984210D0A3F598339842EC
:104618000CD003F58063984208D003F58063984274
:1046280004D02D4840F6A821FBF70EFE25F0020322
:1046380033B10A2D04D0284840F6A921FBF704FE1F
:104648000F2F23D8602E28D0208C20F001000004E2
:10465800000C2084228B238C92B222F0F3029BB2AE
:1046680042F0010223F00A0342EA071743F001036C
:10467800BFB21D432783258431462046FFF714FF28
:1046880023899BB243F007032381F8BD124840F603
:10469800AA21FBF7D9FD602ED6D1238C23F0100375
:1046A8001B041B0C2384238B228C23F440731B05CF
:1046B80092B21B0D22F0A00243F4807342F0100264
:1046C80043EA073742EA0515BFB2ADB2278325840E
:1046D800D2E700BF000400409451000800000140E8
:1046E80038B51D4B984204460D461FD0B0F1804F97
:1046F8001CD0A3F57C43984218D003F580639842F8
:1047080014D003F58063984210D003F58063984273
:104718000CD003F58063984208D003F570439842A3
:1047280004D00E4840F66D31FBF78EFD25F03003BE
:104738009BB233B1402B04D0084840F66E31FBF7EA
:1047480083FDA38823F070031B041B0CA380A3889C
:104758009BB21D43A58038BD00000140945100085C
:1047680038B51C4B984204460D461FD0B0F1804F17
:104778001CD0A3F57C43984218D003F58063984277
:1047880014D003F58063984210D003F5784398421B
:104798000CD003F57053984208D0A3F5943398428F
:1047A80004D00D4840F68531FBF74EFD2B1F032B37
:1047B80004D9094840F68631FBF746FD238923F0E2
:1047C80007031B041B0C238123899BB21D432581EE
:1047D80038BD00BF000001409451000838B51C4B9B
:1047E800984204460D461FD0B0F1804F1CD0A3F567
:1047F8007C43984218D003F58063984214D003F59F
:104808008063984210D003F5784398420CD003F5A2
:104818007053984208D0A3F59433984204D00D48B9
:1048280040F69C31FBF710FD25F0800323B10948C1
:1048380040F69D31FBF708FD238923F080031B0414
:104848001B0C238123899BB21D43258138BD00BFE2
:104858000000014094510008DFF888C06045F8B5B1
:1048680004460F4615461E4616D0B0F1804F13D0A9
:104878001A4B984210D003F5806398420CD003F588
:104888008063984208D003F57843984204D01448CE
:1048980040F6BD31FBF7D8FC27F44053C3B9C5F344
:1048A8000E037BB90F2E04D90D484FF43C61FBF77A
:1048B800CBFC238945EA0625DBB21D43ADB22F4365
:1048C8002781F8BD064840F6BF31FBF7BDFCE9E794
:1048D800034840F6BE31FBF7B7FCE0E700040040B0
:1048E8009451000800000140F8B5DFF894E07045E5
:1048F80004460F4615461E4616D0B0F1804F13D019
:104908001D4B984210D003F5806398420CD003F5F4
:104918008063984208D003F57843984204D017483A
:1049280040F6D221FBF790FC27F44053F3B9C5F3C6
:104938000E03ABB90F2E04D9104840F6D521FBF76A
:1049480083FC334639462A462046FFF785FF2389EC
:1049580023F077031B041B0C43F077032381F8BD76
:10496800064840F6D421FBF76FFCE3E7034840F61E
:10497800D321FBF769FCDAE70004004094510008F2
:1049880000000140F8B5DFF890E0704504460F4696
:1049980015461E4616D0B0F1804F13D01C4B9842D6
:1049A80010D003F5806398420CD003F580639842D9
:1049B80008D003F57843984204D0164840F6FF2102
:1049C800FBF742FC27F44053DBB9C5F30E0393B958
:1049D8000F2E04D90F4840F60231FBF735FC334659
:1049E80039462A462046FFF737FF23899BB243F40E
:1049F80080432381F8BD074840F60131FBF724FCCA
:104A0800E6E704484FF43061FBF71EFCDDE700BF22
:104A18000004004094510008000001402DE9F843CB
:104A2800324DA8420446894690461F461ED0B0F132
:104A3800804F1BD02E4B984218D003F580639842C4
:104A480014D003F58063984210D003F57843984258
:104A58000CD003F57053984208D0A3F594339842CC
:104A680004D0244840F6F931FBF7EEFB09F1FF3397
:104A7800022B34D828F002033BB1B8F10A0F04D056
:104A88001C4840F6FB31FBF7DFFB27F0020333B18C
:104A98000A2F04D0174840F6FC31FBF7D5FB2589CF
:104AA800208B268C20F4407020F0030026F022068C
:104AB80025F007050004360448EA07172D04000C02
:104AC800360C2D0C40F480703E4349EA050540F051
:104AD8000100B6B2258120832684BDE8F883054805
:104AE80040F6FA31FBF7B0FBC4E700BF0000014015
:104AF800000400409451000838B51D4B9842044604
:104B08000D461FD0B0F1804F1CD0A3F57C439842CE
:104B180018D003F58063984214D003F58063984257
:104B280010D003F5784398420CD003F5705398429F
:104B380008D0A3F59433984204D00E4840F6284193
:104B4800FBF782FB012D0AD90A4840F62941FBF7F9
:104B58007BFBA3889BB243F08003A38038BD002D64
:104B6800F7D1A38823F080031B041B0CA38038BD56
:104B78000000014094510008B0F1804F38B5044658
:104B88000D460BD0124B984208D003F59E3398423D
:104B980004D0104840F65B41FBF756FB25F00203B2
:104BA80093B125F40063B3F5806F0DD0B5F5006FB0
:104BB8000AD025F08003402B06D0802D04D005486C
:104BC80040F65C41FBF740FBA4F8505038BD00BFED
:104BD800000C0040945100082DE9F04F04208BB0E0
:104BE8000121FCF763FB40200121FCF7EBFA0026CA
:104BF8000323012402254FF470425B488DF80530E9
:104C0800694600928DF804508DF806608DF80740CB
:104C1800FBF764FC2A465448DFF85CA1DFF854919E
:104C28000C21FBF7C3FF2A464F480D21FBF7BEFFB7
:104C38002A464D480E21FBF7B9FF0F212A464A485C
:104C4800FBF7B4FF494A4A4B12684A48ADF810606E
:104C5800A3FB0212120E013A40F2992302A9ADF801
:104C680008200393ADF80A60FCF786FE602305A9C7
:104C78004048ADF81430ADF816400796ADF82060FE
:104C8800FDF7C6FA3B480821FDF7AAFF05A93948F0
:104C9800ADF816400796FDF77FFB36480821FDF76B
:104CA800E9FF05A93348ADF816400796FDF732FC31
:104CB80030480821FEF71AF805A92E48ADF8164025
:104CC8000796FDF7DBFC2B480821FEF741F8214643
:104CD8002848FDF747F921462648FDF741FA40F2F2
:104CE8004D18013606F1530C06F1A60E06F1F90728
:104CF80086FB0A458CFB0A018EFB0A2335440CEB24
:104D0800010BF41787FB0A0173447A18C4EB2524B6
:104D18004FEAEC704FEAEE71FD17C1EB2321C0EBAF
:104D28002B20C5EB222208FB146308FB10C008FBEC
:104D380011E108FB1272C3F5A673C0F5A670C1F5A0
:104D4800A671C2F5A6720133013001310132C9F8EA
:104D58003C30C9F8400042F21073C9F83410C9F861
:104D68003820013BFDD1BCE70018024014000020A8
:104D780029D9426600080040B107CEC4002100F0DE
:104D880004B80D4B5B58435004310C480C4B421887
:104D98009A42FFF4F6AF0B4A00F003B8002342F83A
:104DA800043B094B9A42FFF4F9AFFBF74FFA00F0C6
:104DB8001FF8FFF711FF7047345200080000002069
:104DC800540400205804002074040020FFF7FEBF9C
:104DD80008B50021044600F087F8044B1868C36B37
:104DE80003B19847204600F017FA00BF00520008A8
:104DF80070B50F4E0F4D761BB61007D0043D00243A
:104E0800013455F8043F9847A642F9D10A4E0B4D94
:104E1800761B00F0F5F9B61008D0043D00240134E3
:104E280055F8043F9847A642F9D170BD70BD00BF40
:104E3800285200082852000830520008285200085A
:104E4800F0B4840743D0541E002A3ED0CDB20346A6
:104E580003E0621E002C38D0144603F8015B9A0761
:104E6800F7D1032C2AD9CDB245EA05250F2C45EAFE
:104E7800054515D9A4F110073F0903F1100606EB03
:104E880007161A46156055609560D5601032B24213
:104E9800F8D104F00F040137032C03EB07130DD9E5
:104EA8001E462246043A032A46F8045BFAD8221F13
:104EB80022F003020432134404F003042CB1C9B2F3
:104EC8001C4403F8011BA342FBD1F0BC70471446F5
:104ED8000346C6E7024B13B1024800F07DB870479D
:104EE80000000000ED4F00082DE9F04F384B1B681B
:104EF80085B003F5A472019302900F460392019BBB
:104F0800D3F84881B8F1000F1CD0DDF80CB04FF091
:104F18000109DA46D8F804305C1E11D408F1880576
:104F28009E1C05EB830508EB860677B1EB6FBB4249
:104F38000BD0013C631CA5F10405A6F10406F4D1CD
:104F4800244A7ABB05B0BDE8F08FD8F8042056F89B
:104F5800043C013AA24216BF0022C8F8044046F8B1
:104F6800042C002BE5D0D8F88811D8F804B009FA39
:104F780004F20A4210D0D8F88C110A420ED10298D5
:104F880055F8041C9847D8F804305B45B7D1DAF8CF
:104F980000304345CDD0B2E79847F4E755F8040C04
:104FA8009847F0E7D8F804306BB9D8F8003063B107
:104FB8004046CAF80030AFF30080DAF80080B8F154
:104FC800000FA7D1BEE7D8F80030C2469846F6E7EA
:104FD8000052000800000000014600200246034677
:104FE80000F018B838B5094D094C641BA41018BF57
:104FF80005EB840505D0013C55F8043D9847002C85
:10500800F9D1BDE8384000F001B900BF30520008BE
:1050180034520008F0B5274C2668D6F8484185B0C8
:105028000746002C41D065681F2D1EDD224818B99F
:105038004FF0FF3005B0F0BD4FF4C87003910292F5
:105048000193AFF300800399029A019B044600285C
:10505800EED0D6F848512560002060600546C6F8B5
:105068004841C4F88801C4F88C013FB9AB1C002042
:105078000135656044F8231005B0F0BD04EB8500E8
:105088004FF0010CC0F88820D4F888610CFA05F2BA
:105098001643022FC4F88861C0F80831E6D1D4F865
:1050A8008C311A43C4F88C21E0E706F5A674C6F8DB
:1050B8004841B8E700520008000000002E2E2F2EAD
:1050C8002E2F4C69627261726965732F53544D3388
:1050D8003246342D446973636F766572795F46573B
:1050E8005F56312E312E302F4C69627261726965BC
:1050F800732F53544D3332463478785F5374645069
:1051080065726970685F4472697665722F7372633D
:105118002F73746D3332663478785F6770696F2ED9
:10512800630000002E2E2F2E2E2F4C6962726172A2
:105138006965732F53544D333246342D4469736374
:105148006F766572795F46575F56312E312E302F54
:105158004C69627261726965732F53544D333246DC
:105168003478785F5374645065726970685F44720C
:10517800697665722F7372632F73746D3332663478
:1051880078785F7263632E63000000002E2E2F2E46
:105198002E2F4C69627261726965732F53544D33B7
:1051A8003246342D446973636F766572795F46576A
:1051B8005F56312E312E302F4C69627261726965EB
:1051C800732F53544D3332463478785F5374645098
:1051D80065726970685F4472697665722F7372636D
:1051E8002F73746D3332663478785F74696D2E630B
:1051F800000000004300000028000020000000001C
:10520800F8B500BFF8BC08BC9E467047F8B500BFAB
:08521800F8BC08BC9E4670477B
:08522000BCAFFF7F010000009C
:08522800DD4E0008AD01000895
:0452300089010008E8
:105234000000000000000000000000000102030460
:10524400060708090095BA0A0000000001020304D9
:1052540001020304060708090000000014030020EB
:105264007C030020E4030020000000000000000094
:10527400000000000000000000000000000000002A
:10528400000000000000000000000000FC510008C5
:10529400000000000000000000000000000000000A
:1052A40000000000000000000000000000000000FA
:1052B40000000000000000000000000000000000EA
:1052C40000000000000000000000000000000000DA
:1052D40000000000000000000000000000000000CA
:1052E40000000000000000000000000000000000BA
:1052F40000000000000000000000000000000000AA
:1053040001000000000000000E33CDAB34126DE646
:10531400ECDE05000B0000000000000000000000AF
:105324000000000000000000000000000000000079
:105334000000000000000000000000000000000069
:105344000000000000000000000000000000000059
:105354000000000000000000000000000000000049
:0456840028000020DA
:04568800000000001E
:0400000508004D851D
:00000001FF
